:020000040800F2
:1000000000800020952B0008950E0108990E01082C
:1000100000000000000000000000000000000000E0
:100020000000000000000000000000009D0E01081C
:100030000000000000000000A10E0108A50E01084C
:10004000E52B000800000000210F0108E52B000847
:10005000E52B0008650F0108710F0108490F010821
:1000600000000000110F0108E10E0108F90E01085F
:10007000390F0108E52B0008E52B000800000000FF
:10008000E52B0008E52B0008E52B0008E52B000810
:10009000E52B0008E52B0008E52B0008B10E010850
:1000A000C90E0108E52B0008E52B0008E52B000828
:0C00B000E52B0008E52B00080000000014
:1000BC0010B5064C2378002B07D1054B002B02D032
:1000CC00044800E000BF0123237010BD900A0020FB
:1000DC00000000005C100108044B10B5002B03D08D
:1000EC000349044800E000BF10BDC04600000000FA
:1000FC00940A00205C100108002243088B4274D340
:10010C0003098B425FD3030A8B4244D3030B8B420C
:10011C0028D3030C8B420DD3FF22090212BA030C15
:10012C008B4202D31212090265D0030B8B4219D3F6
:10013C0000E0090AC30B8B4201D3CB03C01A524116
:10014C00830B8B4201D38B03C01A5241430B8B425E
:10015C0001D34B03C01A5241030B8B4201D30B0347
:10016C00C01A5241C30A8B4201D3CB02C01A52416E
:10017C00830A8B4201D38B02C01A5241430A8B4231
:10018C0001D34B02C01A5241030A8B4201D30B021A
:10019C00C01A5241CDD2C3098B4201D3CB01C01A34
:1001AC00524183098B4201D38B01C01A524143093E
:1001BC008B4201D34B01C01A524103098B4201D32C
:1001CC000B01C01A5241C3088B4201D3CB00C01A99
:1001DC00524183088B4201D38B00C01A5241430811
:1001EC008B4201D34B00C01A5241411A00D2014636
:1001FC00524110467047FFE701B5002000F0F0F8BF
:10020C0002BDC0460029F7D076E7704703460B4382
:10021C007FD4002243088B4274D303098B425FD3F3
:10022C00030A8B4244D3030B8B4228D3030C8B421F
:10023C000DD3FF22090212BA030C8B4202D3121205
:10024C00090265D0030B8B4219D300E0090AC30BDA
:10025C008B4201D3CB03C01A5241830B8B4201D387
:10026C008B03C01A5241430B8B4201D34B03C01A70
:10027C005241030B8B4201D30B03C01A5241C30AE8
:10028C008B4201D3CB02C01A5241830A8B4201D359
:10029C008B02C01A5241430A8B4201D34B02C01A43
:1002AC005241030A8B4201D30B02C01A5241CDD2E8
:1002BC00C3098B4201D3CB01C01A524183098B4233
:1002CC0001D38B01C01A524143098B4201D34B011C
:1002DC00C01A524103098B4201D30B01C01A52417F
:1002EC00C3088B4201D3CB00C01A524183088B4206
:1002FC0001D38B00C01A524143088B4201D34B00EF
:10030C00C01A5241411A00D2014652411046704760
:10031C005DE0CA0F00D04942031000D34042534065
:10032C0000229C4603098B422DD3030A8B4212D325
:10033C00FC22890112BA030A8B420CD38901921157
:10034C008B4208D3890192118B4204D389013AD094
:10035C00921100E08909C3098B4201D3CB01C01A69
:10036C00524183098B4201D38B01C01A524143097C
:10037C008B4201D34B01C01A524103098B4201D36A
:10038C000B01C01A5241C3088B4201D3CB00C01AD7
:10039C00524183088B4201D38B00C01A5241D9D2EF
:1003AC0043088B4201D34B00C01A5241411A00D270
:1003BC000146634652415B10104601D34042002B6C
:1003CC0000D54942704763465B1000D3404201B5EB
:1003DC00002000F005F802BD0029F8D016E77047A0
:1003EC007047C0468446081C6146FFE71FB500F005
:1003FC0091FB002801D40021C8421FBD10B500F0AC
:10040C0023FB4042013010BD10B500F083FB0028E7
:10041C0001DB002010BD012010BDC04610B500F05E
:10042C0079FB002801DD002010BD012010BDC04665
:10043C0010B500F02FFB002801DC002010BD0120BE
:10044C0010BDC04610B500F025FB002801DA0020D5
:10045C0010BD012010BDC04670B500220C4B04002D
:10046C000D0002F069FA002804D12000290002F0E6
:10047C00DDF870BD064B00222000290001F0C0FD04
:10048C0002F0D4F880231B069C466044F1E7C0467A
:10049C000000E041F0B5C6464E024702760A7B0AE0
:1004AC004400C50FF7004800984600B5240E2A00FA
:1004BC00DB00000EC90FBC468D4267D0221A002A01
:1004CC0000DCA5E000283AD1002F00D193E0511EAA
:1004DC00002900D0BCE00124DB1B5A0146D59B014E
:1004EC009E09300002F032FA05388640844200DD65
:1004FC009DE0041B320020200134E240041BA64086
:10050C0033005E1EB341002413435A0704D00F225C
:10051C001A40042A00D004335A0129D50134FF2C87
:10052C0000D181E02A009B015B0AE4B25B02E40586
:10053C00580AD2072043104304BC9046F0BDFF2C50
:10054C00E3D080213800C904084384461B2A00DD0F
:10055C0082E020206146D140821A60469040020021
:10056C00501E82410A439B1A5A01B8D45A07CED165
:10057C00DE082A00FF2C3AD1002E00D1AEE08023F9
:10058C00DB0333435B025B0AFF24CFE7211A00290C
:10059C0052DD002831D0FF2CB7D080203E00C004A3
:1005AC000643B4461B2900DDAAE020266046C8405D
:1005BC00711A66468E4031004E1EB14101435B18E4
:1005CC005901D3D50134FF2C00D187E001227849A1
:1005DC001A405B080B40134397E7002C00D0A7E0B0
:1005EC00002B00D0B6E03B1E62D100260022730225
:1005FC005B0AE4B29AE7140087E7002F4DD0481E3F
:10060C00002857D1634401245A01AFD50224DDE7F9
:10061C00002A24D1621CD2B2012ADEDDDE1B72015B
:10062C0035D5FE1A0D005CE72A0000237EE7330067
:10063C00604A241A134068E7002963D1611CC8B2D0
:10064C0001284EDDFF2949D063445B080C005CE7B0
:10065C00FF2A41D00A0079E701229B1A84E7002C7B
:10066C001DD0FF2822D08024E404524223431B2AAD
:10067C0000DD8AE01C002025D440AA1A93405A1EA3
:10068C009341234362460400D31A0D0025E7002E44
:10069C0000D026E700220024A9E70C0035E7002B48
:1006AC004DD0D243002AEDD0FF28E0D16346FF2481
:1006BC000D002AE7FF290FD0010073E7002B61D052
:1006CC00FF24002F00D120E780224146D2031142A3
:1006DC0002D0164200D13B00FF2416E7FF24002372
:1006EC0024E7002CEAD1002B58D0002F00D10CE7C6
:1006FC0063445A0100D439E72E4A0C00134004E736
:10070C0001215CE7002C1ED1002B40D0C9430029ED
:10071C000BD0FF2836D01B2947DC1C002026CC40F0
:10072C00711A8B40591E8B4123436344040047E7E5
:10073C00002B18D13B1E2DD00D00FF24E5E63B000D
:10074C0004000D00E1E6FF281CD08024E40449429B
:10075C002343E0E7002F00D1D7E6DE1B72011FD543
:10076C00FB1A0D00D1E6FF24002F00D1CDE680222C
:10077C004046D2031042AFD01642ADD13B000D0023
:10078C00FF24C2E66346FF24BFE601237AE73B0061
:10079C000400BAE680260022F603F0E63B00B4E63D
:1007AC00331E00D0E2E6002221E70123BDE7C0465C
:1007BC00FFFFFF7DFFFFFFFBF0B557464E46DE46C1
:1007CC004546E0B544024300C60F83B00F1C640AD3
:1007DC001B0EB24653D0FF2B27D08022E400D2044C
:1007EC0014437F22524290469844002399469B46DC
:1007FC007D027800FB0F6D0A000E009324D0FF28B9
:10080C0046D080230021ED00DB041D437F38474692
:10081C00381A4F460F43BF00B9463300009A874F32
:10082C0053404A46BA5801939746002C4ED10823A0
:10083C009946F7339846FD3B9B467D027800FB0FAB
:10084C006D0A000E0093DAD1002D26D10020012173
:10085C003300009A7A4F53404246101A4A460A43D4
:10086C009200BA581D009746009B2C009A468B4666
:10087C005B46022B31D15346FF21002438E0002C7B
:10088C0017D1042399460023984601339B46AFE7C2
:10089C00FF20002D0BD10221DAE7280002F056F8D8
:1008AC00431F9D4076235B42181A0021AFE70321BA
:1008BC00ADE7200002F04AF8431F9C4076235B42D0
:1008CC001B1A9846002399469B4691E70C239946A0
:1008DC00F3339846FC3B9B468AE7032B00D1A5E0FB
:1008EC005546012B00D081E00123002100242B4030
:1008FC006402C905600ADB070843184303B03CBC1B
:10090C0090469946A246AB46F0BD80240023E403F2
:10091C00FF21EDE7FF210024EAE70123591A1B29E7
:10092C0066DD019A134000210024E1E78023DB03FC
:10093C001C4238D01D4251D01C436402640A33005F
:10094C00FF21D5E763016C01A3423BD21B2600219A
:10095C00013801251F0049005B00002F01DB9C4280
:10096C0001D81B1B2943013E002EF3D11C00631E32
:10097C009C410C4301007F310029CEDD630704D07C
:10098C000F232340042B00D00434230103D5010092
:10099C002C4B80311C40FE290DDD0123019AFF21D7
:1009AC0013400024A4E78023DB031C436402640A85
:1009BC003300FF219CE70123019AA401640AC9B208
:1009CC00134095E71B1B1A260121C2E7009B8B469F
:1009DC009A4600244CE76302E5D500258024E40305
:1009EC002C436402640A009BFF2181E70195C1E757
:1009FC0023002020CB40411A8C40611E8C411C43AB
:100A0C00630704D00F232340042B00D0043463016C
:100A1C0005D50123019A01211340002468E7012325
:100A2C00019AA401640A1340002161E78023DB03CF
:100A3C001C436402640A5346FF2159E794100108D1
:100A4C00D4100108FFFFFFF770B5420045024E02BB
:100A5C004C00C30F6D0A120E760A240EC90F01202A
:100A6C00FF2A06D0FF2C03D0A24201D1B54206D0FA
:100A7C0070BD002DFCD1FF2CFAD1002EF8D18B4289
:100A8C0006D00120002AF3D12800451EA841EFE72B
:100A9C000020EDE7F0B5420045024C02C30F4800C0
:100AAC006D0A120E640A000EC90FFF2A1ED0FF2811
:100ABC0021D0002A0AD16E426E41F6B200280FD125
:100ACC00002C0DD10020002D09D005E0002801D10B
:100ADC00002C01D08B4211D0012158420843F0BDAB
:100AEC00002EF7D0012001390843F8E7002DDED0A5
:100AFC0002204042F3E7002CDBD0F9E78242EBDC2A
:100B0C0004DBA542E8D80020A542E8D20121581EFA
:100B1C000843E4E7F0B542004D024C004602760A69
:100B2C00120EC30F6D0A240EC90FFF2A16D0FF2C0C
:100B3C0018D0002A0AD170427041C0B2002C15D0D6
:100B4C00002805D0012001390843F0BD002C13D03A
:100B5C00994214D001205B421843F6E70220002E84
:100B6C00F3D1E4E70220002DEFD1E2E7002DE7D12D
:100B7C000020002EE9D0EDE7002DE9D1EAE7A242F2
:100B8C0006DCDFDBAE4203D80020AE42DAD3DCE772
:100B9C00012049420843D8E7F8B557464E4645462A
:100BAC00DE46E0B54702460088467F0A360EC40F83
:100BBC00002E47D0FF2E24D0FB008027FF041F43BC
:100BCC00002399469A467F3E43465D025800DB0F50
:100BDC006D0A000E984643D0FF283BD0EB008025D1
:100BEC000022ED041D437F383618731C41469B468A
:100BFC004B46614013430F2B64D875489B00C35878
:100C0C009F46002F42D108239946063BFF269A4661
:100C1C00DAE74146022A28D0032A00D1CEE0012A85
:100C2C0000D0ACE0114000200022CCB24002D20532
:100C3C00400AE407104320433CBC90469946A24628
:100C4C00AB46F8BD002F15D104239946033B002673
:100C5C009A46B9E7FF200222002DC5D00322C3E734
:100C6C00002D19D100200122BEE70124FF220C40E7
:100C7C000020DBE7380001F069FE7626431F9F4019
:100C8C0000237642361A99469A469DE70C239946DC
:100C9C00093BFF269A4697E7280001F057FE431FB1
:100CAC009D4076235B42181A00229DE78020002489
:100CBC00C003FF22BAE73D005246ABE73D002100DE
:100CCC005246A7E73B0C9C462A04120C2B0C140032
:100CDC00604665463F043F0C7C4342435D437B4387
:100CEC00270C9B18FF18BA4203D980235B029C4641
:100CFC00654424043A04240C121993015C1EA3418C
:100D0C003F0C920E7D191A43AD0115432B0104D5EE
:100D1C0001235E466A081D40154332007F32002ACB
:100D2C0025DD6B0704D00F232B40042B00D004359A
:100D3C002B0103D53200274B80321D40FE2A94DC58
:100D4C000124A801400AD2B20C406FE78020C003F6
:100D5C00074207D0054205D128434002400A4446C9
:100D6C00FF2263E738434002400AFF225EE701247A
:100D7C00A31A1B2B05DD0C400022002056E75E4613
:100D8C00CBE72A002020DA40C31A9D402B005D1EC1
:100D9C00AB4113435A0704D00F221A40042A00D047
:100DAC0004335A0104D5012401220C4000203DE7F4
:100DBC0001249B01580A0C40002237E780200124B3
:100DCC00C00328434002400A0C40FF222EE7C046D5
:100DDC0014110108FFFFFFF770B5002830D0C317BE
:100DEC00C4185C40C50F200001F0B0FD9E231B1AF7
:100DFC00962B0DDC9622D21A94402A006402640AC7
:100E0C00DBB26402DB05600AD2071843104370BDE5
:100E1C00992B19DC9922D21A002A29DD9440220040
:100E2C00144C1440510704D00F210A40042A00D05E
:100E3C000434620113D4A401640ADBB22A00E0E793
:100E4C00002200230024DCE705222100121AD140E5
:100E5C00B922D21A9440621E94410C43DAE7054B36
:100E6C002A001C409F23A4011B1A640ADBB2C8E7AA
:100E7C002200D5E7FFFFFFFBF8B54546DE46574697
:100E8C004E460C03E0B54E00C90F88460D00610AB2
:100E9C00440F0C43C70019035800DB0F9B464B0A49
:100EAC00510F0B43760D400D1900D200D84500D1DF
:100EBC00AEE0351A002D00DCF6E000280FD113430C
:100ECC0000D1DBE06B1E002B00D037E1BA1A974241
:100EDC00BF41641A7F42E41B0126170024E0C64B75
:100EEC009E424DD080231B041943382D00DD07E1B1
:100EFC001F2D00DD38E12020431B9A460B00504685
:100F0C008340994613004846EB4018430300504673
:100F1C008240501E8241E9401A43BA1A611A974224
:100F2C00A441170064420C1B230262D56402650ABB
:100F3C00002D00D1DFE0280001F008FD0300083B84
:100F4C001F2B00DDD2E020223C00D21A9D40D44061
:100F5C009F4025439E4200DDC4E09E1B731C1F2B4B
:100F6C0000DDF1E0202238002900D21AD84091404F
:100F7C0097402C000143781E8741DC4000260F432C
:100F8C007B0709D00F233B40042B05D03B1DBB42F4
:100F9C00BF417F42E4191F0023022CD5964B01362A
:100FAC009E4200D19AE04546944BFF081C406007D6
:100FBC00760564020743240B760D00212403230BD2
:100FCC000C0D8F4A24051C431440330523435B004E
:100FDC00ED075B082B43380019003CBC9046994642
:100FEC00A246AB46F8BD6446044300D111E20400AE
:100FFC0067467B07C6D145466007FF080743E408F0
:10100C007D4B9E4230D024037605240B760DD4E71D
:10101C00331A9A46002B78DD002831D07648864268
:10102C00AED08020000401435346382B00DCE9E0AD
:10103C000A43511E8A410021D219BA42BF410919F3
:10104C007C4217000C192302D3D56B4B01369E4200
:10105C0000D13AE10120694B1C407B0807401F433B
:10106C00E007074364088BE723003B4300D1CBE147
:10107C008022120314432403240B9EE72E007FE7E7
:10108C000800104300D1B4E0581E002800D0DEE068
:10109C00BA18BA429B4164185B42E4181700012647
:1010AC002302A6D50226D5E7002D6ED1701C400573
:1010BC00400D012800DCF9E0B81A844687428041D3
:1010CC00E51A40422D1A280200D489E0D71BBA42F7
:1010DC0092411C1B5242A51AD84629E745460024CA
:1010EC0000276AE7454CF61A2C4049E73D002838A2
:1010FC00854000272EE7380001F028FC20301DE742
:10110C000A43511E8A41002107E7002B00D0F3E06F
:10111C00701C43055B0D012B00DCADE0364B984297
:10112C0000D1D1E0BA18BA42BF4164187F42E41929
:10113C00E707520817436408060021E72E4885424A
:10114C0000D193E01D00D0E629001F3EF140202B7A
:10115C0000D18DE04022D31A9D402F437D1EAF411C
:10116C0000240F43002644E72B000800203BD84006
:10117C000300202D00D17DE04020451BA9400A43EF
:10118C00511E8A4100211A43C7E6002E50D01A4E38
:10119C00B04257D080266B429946360434434B46B6
:1011AC00382B00DDD6E01F2B00DD35E12026F51AAB
:1011BC002600AE40B2463E00DE40AC4635005646F8
:1011CC002E436546AF407D1EAF41DC403743D71BF5
:1011DC00BA4292410C1B5242A41A0600D846A3E60E
:1011EC00644667462C4300D0A2E600250026002763
:1011FC0006E71E00C4E6C046FF070000FFFF7FFFA6
:10120C00FFFF0F801F2B63DC2020C31A08009840BF
:10121C009C46834653461000D8400300584618435A
:10122C0063469A40531E9A4153460243D94003E702
:10123C0026003E4306D0EB439946002BC7D0944E74
:10124C00B042ACD10C0017000600D84698E6904B83
:10125C009A450BD08246E7E6002800D09EE01800A5
:10126C00104300D1E9E01C001700D846884E87E6F1
:10127C00002572E7002182E723003B43002E00D0BB
:10128C00ABE0002B00D1E7E00B00134300D177E675
:10129C00BA18BA42BF4164187F42E419230200D441
:1012AC00F2E07C4B17001C40060069E62000384336
:1012BC00002ED1D100285BD11C00144300D1A8E032
:1012CC001C001700D8465BE606000024002797E6B2
:1012DC0050460B002038C34099465346202B00D172
:1012EC0095E0402350461B1A99400A43511E8A41EF
:1012FC004B4600211A439FE6002E30D126003E4378
:10130C0067D0DB439A46002B1CD0614EB04260D0B4
:10131C005346382B00DD96E01F2B00DD9FE0202686
:10132C00F31A26009E409C46B34653463E00DE40D0
:10133C0033005E461E4363469F407B1E9F415346CF
:10134C00DC403743BF189742924164185242A418AC
:10135C00060078E627437C1EA741002437E74C4E55
:10136C00B04236D080265B4236049A463443CFE7EF
:10137C001800104300D103E6B81A84466745AD4106
:10138C00E01A6D42401B050200D42CE6D71BBA4272
:10139C0092411C1B5242A41AD846F1E51800104386
:1013AC0000D163E7F808670707438020E4080003CF
:1013BC00044208D0DD08054205D1D2085907114373
:1013CC000F002C00D8467B0FE4001C43FF00304E6E
:1013DC00D6E50C0017000600D2E5002B38D00B0028
:1013EC00134300D142E7F808670707438020E4085D
:1013FC0000030442E7D0CB080342E4D1D2084907EA
:10140C0011430F001C00DEE700270024D5E5002166
:10141C006BE700250027F3E54E462500203EF540FE
:10142C004B462E00202B2DD04025ED1AAC402743E7
:10143C007C1EA74100243743C9E6802400252403E1
:10144C00134E0027DCE527437C1EA741002479E7D7
:10145C000C0017000E4E93E50C00170090E5564655
:10146C002300203EF34099465346202B0ED04023B8
:10147C0056469B1B9C4027437C1EA7414B46002491
:10148C001F435FE70024D2E71700B2E50024F2E720
:10149C00FF070000FFFF7FFFF0B557464546DE46CD
:1014AC004E46E0B54C000E0387B0834692461D00B5
:1014BC008046360B640DCF0F002C4FD06F4B9C42E7
:1014CC0035D08023420F1B04F60013433343994657
:1014DC00C30098466A4B00269C4600236444039341
:1014EC002B031B0B9B466B00ED0F50465B0D0195C0
:1014FC005ED0624A934253D05A46D1008022400FAC
:10150C00120402430A4393465246D1005C4A944665
:10151C00002263443800684084460290E41A164363
:10152C000F2E00D9B4E0574BB6009B599F460300D1
:10153C00334399466CD10023984602330826039313
:10154C00CEE7CB464146039A0197022A65D1019B0F
:10155C004A4C9C460023002298466BE00300334320
:10156C0099464ED0002E00D1BCE1300001F0EEF9CE
:10157C0003000B3B1C2B00DDACE11D22D31A5A4699
:10158C000100DA4008398E401300334399465B461C
:10159C008B40984600233C4C0026241A03939FE76B
:1015AC0051465A46114329D1002293460232B1E7E3
:1015BC00594601431ED05B46002B00D19EE1584694
:1015CC0001F0C4F903000B3B1C2B00DD8FE1020082
:1015DC005946083A91408B461D21CB1A5146D940A9
:1015EC000B0059460B4351469B469140264B00221B
:1015FC001B1A8FE7002301229B468BE751460322DF
:10160C0088E700239846013304260024039367E7F8
:10161C000323B14603930C2662E7032A00D15CE254
:10162C00019B012A00D0E4E113409C4600230024D6
:10163C000022984600211203130B0A0D12051A43BF
:10164C002305124C40462240134362465B00D207EE
:10165C005B081343190007B03CBC90469946A24660
:10166C00AB46F0BD002380229C4612039846034CE7
:10167C00E0E70023014C00229846DBE7FF0700005F
:10168C0001FCFFFF541101080DFCFFFFFFFF0F8051
:10169C00D94500D939E100D134E1002346464D4605
:1016AC009A46013C5B460A0E1B021A430B02170CAE
:1016BC00039313041B0C3900280090460193FEF78A
:1016CC001BFD0200019B83465A43280039009146BA
:1016DC00FEF798FD350C09040D43A9450DD95B4661
:1016EC004544013BA84500D93AE1A94500D837E16A
:1016FC0002235B429C464544E3444B46EB1A3900BB
:10170C0018000493FEF7F8FC019B050043433900D5
:10171C0004989946FEF776FD330409041B0C0B4321
:10172C00994509D943446A1E984500D91AE199454F
:10173C0000D817E1023D43444A469B1A5A4612040C
:10174C002A4303999346100C0A0C914609045A46F5
:10175C00090C4E460D001204120C454305915143E1
:10176C007243704352190E0CB218954203D980255E
:10177C006D02AC466044150C09041204090C2818BF
:10178C005218834200D2CEE000D1C8E01D1A534655
:10179C009E1AB24592415242AB1A9A46984500D1D4
:1017AC0017E139001800FEF7A7FC019B0500434325
:1017BC00390050460493FEF725FD04980B04310CB8
:1017CC001943884209D941446B1E884500D907E169
:1017DC00884200D804E1023D4144049BCB1A180016
:1017EC0039000493FEF788FC019B82464343390081
:1017FC0004980193FEF706FD01980B043104090CC3
:10180C00194388420DD953464144013B884500D9C0
:10181C00E8E0884200D8E5E002235B429C46414464
:10182C00E244019B2D04CE1A51462943059D4F4697
:10183C002A000B04080C1B0C5A4345437B4378438A
:10184C005B19170CFB189D4203D980256D02AC4621
:10185C0060441D0C12041B04120C28189B188642A1
:10186C0000D293E000D18EE001231943A04BE31882
:10187C00002B00DC99E04A0700D09EE05A46D201CA
:10188C0006D55A469B4B1A4080239346DB00E3183F
:10189C00994A934268DD0123029A984C1A4000231E
:1018AC00944698460022C5E680224B46120313420A
:1018BC000AD05B46134206D11A431203120BAC46F4
:1018CC0088468E4CB6E64B461A431203120BBC46A6
:1018DC008A4CAFE603005A46283B9A4000239146B7
:1018EC00984657E6584601F031F8203040E60300A0
:1018FC005246283B9A400021934677E601F026F8A1
:10190C0020305FE6884500D2C7E64B46DE075D080F
:10191C0043465B081E434346DB079A46C2E6002556
:10192C00924500D333E7039E5946B446E244B24590
:10193C00AD416D424544EB180139984507D29842A8
:10194C0000D97FE000D1BCE01D1A8B461FE79845FB
:10195C00FAD1039D5545F2D943468B461D1A16E71D
:10196C009B46CAE61500E7E65A46C90852070A43E1
:10197C005B0590465C0D5A460123029952021940B0
:10198C00120B8C4656E6002B00D16FE746444A1EDC
:10199C00B04529D91100864200D065E7039A9342DD
:1019AC0000D061E762E7012149420120C21A382ABE
:1019BC0021DD029B03409C4638E60F220A40042A94
:1019CC0000D15BE70A00111D9142924152429344AF
:1019DC0054E7474BE318002BE5DD01225242F2E7B6
:1019EC001D00FAE69A461CE7B04239D86ED01100B9
:1019FC003AE702933AE71F2A3CDC20239B1A0C009F
:101A0C005846994098404B1E99415B46D440D34070
:101A1C00204308431A00430709D00F230340042B2B
:101A2C0005D00100081D88429B415B42D21813026D
:101A3C003AD50123029A01241A4000239446984671
:101A4C000022F7E5022149428C46039DE344AC4653
:101A5C00E244AA45AD416D424544ED182D1A96E677
:101A6C008A1E03994D008D428941494241447618A2
:101A7C0003958FE71F204042C31A5846D8400300F5
:101A8C00202A28D040205D46821A954029434A1EC0
:101A9C0091411943072300220B4009D00F23002248
:101AAC000B400800042BBDD1010053075202120B4E
:101ABC00C9081943012388460299002419408C4611
:101ACC00B8E55245BED88B46002560E6039D9D4285
:101ADC00C6D3110062E70025D8E780225B461203CB
:101AEC001A43019B1203120B9C468846034CA1E53A
:101AFC00FF030000FFFFFFFEFE070000FF070000D2
:101B0C00F0B557464546DE464E46E0B50C039846C2
:101B1C004E00230B87B0070092469B46760DCD0FE7
:101B2C00002E6BD06D4B9E4235D080245B46420F0D
:101B3C002404DB0014431C43C3009946684BA346A2
:101B4C009C46002300276644029343461C035A001C
:101B5C00DB0F5046240B520D984600D176E05F4BBC
:101B6C009A426DD08023410F1B040B435C49E40067
:101B7C008C461C43C300002062444146B6186940A1
:101B8C00721C0191944607430F2F00D9B0E0554ABF
:101B9C00BF00D25997465B460343994600D087E075
:101BAC0000239B46023308270293CEE7424601925C
:101BBC00022867D0032800D10EE2012800D062E190
:101BCC00002300240022994601990140CDB2002146
:101BDC0012030B0D120B1B051343434A2405134030
:101BEC001C436400ED0764082C434846210007B0F1
:101BFC003CBC90469946A246AB46F0BD0343994681
:101C0C004FD05B46002B00D189E1584600F09EFE78
:101C1C0003000B3B1C2B00DD7AE11D22D31A3A008A
:101C2C0001005C46DA4008398C4013008F40234396
:101C3C009B46B94600232D4E0027361A029384E7A3
:101C4C00534623432AD10024022096E753462343CC
:101C5C0020D0002C00D157E1200000F077FE0300CB
:101C6C000B3B1C2B00DD49E11D21CB1A5146020018
:101C7C00D9405346083A944093400C431B4A121ADD
:101C8C0000207AE70125019B144C1D400023002203
:101C9C0099469CE70024002201206EE7534603205E
:101CAC006BE700239B4601330427002602934CE785
:101CBC00032381460C27029347E78022002300254B
:101CCC0012039946054C82E75C464B4602986FE737
:101CDC005C464B46019502986AE7C046FF07000038
:101CEC0001FCFFFF94110108FFFF0F800DFCFFFFAB
:101CFC004A464946170C1A0C1B041B0C0804190005
:101D0C00000C41431500884619007D437943039527
:101D1C0089462900150045434D44029545462D0C36
:101D2C00AA46029D5544A94506D98A4680214902F6
:101D3C008946CA4451460391290C04914146090431
:101D4C002D04090C88462900250C24044144240C3C
:101D5C000591210041438846210079438A46684316
:101D6C00414650448146080C48446F43824503D990
:101D7C008021490289464F44010C89463900494467
:101D8C00029141460F0404993F0C88460004C01987
:101D9C0080444146049159460F0C0904090C8846AD
:101DAC0059438A4639005143894641464A43514674
:101DBC00090C8B467B43D2185A44934203D9802397
:101DCC005B029B46D94451460904090C8A4641469C
:101DDC0061437C43130C12044B445244A1468A4683
:101DEC003C0041466C434D4351464D440F0C7D190C
:101DFC00A94503D98021490288464444049F03998C
:101E0C00B84641448B468345804141428846514601
:101E1C0008042F04000C3F185846029910188946E4
:101E2C00904292414F44BA46524299469346C2441C
:101E3C00D144CB448F42BF41C245894199459B4116
:101E4C00934592417F4249422D0C52420F435B42D3
:101E5C0013437F19FF185B463C19DB0D059A64028E
:101E6C001C43430213435D1EAB415A46C00D034352
:101E7C0052021343E20156D501205A080340134382
:101E8C00E207134364085A48604400284DDD5A07A2
:101E9C0009D00F221A40042A05D01A1D9A429B41E0
:101EAC005B42E4181300E20104D58020514AC000C3
:101EBC0014406044504A904200DDE3E60125DB0803
:101ECC0062071A436402019B9146220B4405640D80
:101EDC001D407CE6802259461203114208D0144260
:101EEC0006D122431203120B45469946434C6EE62B
:101EFC005B461A431203120B404C68E6030054462F
:101F0C00283B9C400023B9E600F020FD2030A6E6DB
:101F1C000300283B9F400023BB4699468AE600F00D
:101F2C0015FD203074E6B446ADE701252A1A382A8F
:101F3C0006DD019B00241D4000230022994646E645
:101F4C001F2A21DC20252000AD1A1E00AB40A84022
:101F5C00D6405D1EAB4130431843D440430709D0F3
:101F6C000F230340042B05D00300181D98429B41FE
:101F7C005B42E418230221D50125019B01241D405D
:101F8C0000230022994622E61F2521006D42281AC3
:101F9C00C1400800202A1DD05F35AA1A9440234363
:101FAC005C1EA341072503431D400022002D09D0D0
:101FBC000F2200241A401800042AD6D1030065070A
:101FCC006402220BDB082B4301259946019B00245C
:101FDC001D40FCE50024E2E7802201251203224388
:101FEC0001991203120B0D409946044CEFE5C046C3
:101FFC00FF030000FFFFFFFEFE070000FF070000CD
:10200C00F0B54646D6464F460C03C0B5CD0F4E0034
:10201C00610A440F0C43C1005800400D84468A46A7
:10202C000F001903500F490A0143C648760DA84604
:10203C00DB0FD200844500D1D8E001204340AB42F5
:10204C0000D1A6E06046351A002D00DC05E1002821
:10205C0010D10B00134300D1D7E06B1E002B00D026
:10206C004BE153469F1ABA458041641A4042241AE8
:10207C0001261EE0B34B9E4248D080231B0419431B
:10208C00382D00DD19E11F2D00DD4CE120230F0060
:10209C005B1B10009A409F40E840531E9A41E94058
:1020AC00074317435346DF1B611ABA45A4416442E8
:1020BC000C1B230200D4C5E06402650A002D00D17C
:1020CC00F6E0280000F042FC0300083B1F2B00DD6B
:1020DC00E9E020223C00D21A9D40D4409F40254389
:1020EC009E4200DDDBE09E1B731C1F2B00DD0AE112
:1020FC0020223800D21A290097402C009140D84059
:10210C007A1E9741DC40002601430F437B0709D020
:10211C000F233B40042B05D03B1DBB42BF417F42EC
:10212C00E4191F00230225D5864B01369E4200D1AF
:10213C00AFE0854B01251C4043466207FF08640253
:10214C0076051743240B760D1D4000212403230B29
:10215C000C0D7E4A24051C431440330523435B00BD
:10216C00ED075B082B43380019001CBC90469946C0
:10217C00A246F0BD012543466207FF081743E40859
:10218C001D40704B9E4236D024037605240B760DF1
:10219C00DBE76346F31A002B00DC94E06046002872
:1021AC0035D068488642B1D080273F043943382B5C
:1021BC0000DCFDE00A43170000217A1E97415744CA
:1021CC0057458041091944420C1923023AD55D4BFD
:1021DC0001369E4200D14BE101225B4B1C407B0837
:1021EC0017401F43E207174364088FE708001043AA
:1021FC0000D024E721E723003B4300D1B9E1802242
:10220C00120314432403240B9FE72E007EE70800DF
:10221C00104300D1CAE0581E8446002800D0E7E0E5
:10222C00524452458041641840422418170001263C
:10223C00230207D50226CFE764462C4300D1B3E135
:10224C002C0067467B0700D062E76307FF081F433B
:10225C0001254346E4081D4093E7002D78D1751CF9
:10226C006D056D0D012D00DCF2E05046801A8245A3
:10227C00BF41651A7F42ED1B8446280200D48CE0D6
:10228C005046171ABA4292410C1B5542651B984690
:10229C0014E70125434600241D40002755E72A4C2E
:1022AC00F61A2C4032E73D0028388540002717E706
:1022BC00380000F04BFB203006E70A4317000021E2
:1022CC007A1E9741EEE6002B00D0E5E0731C9C468D
:1022DC005B055B0D012B00DC9FE01A4B9C4500D18C
:1022EC00C5E0524452458041641840422418E70727
:1022FC00520817436408664608E71248854200D125
:10230C0085E01D00BCE629001F3EF140202B00D1CA
:10231C007FE04022D31A9D402F437D1EAF41002405
:10232C000F4300268EE72B000F00203BDF40202DB3
:10233C0071D040235D1BA9400A43511E8A410021E4
:10234C001743AFE6FF070000FFFF7FFFFFFF0F8083
:10235C00002E3ED0B34EB44545D0802636046D4297
:10236C003443382D00DDA8E01F2D00DD1FE12026B1
:10237C0027005046761BB740E84007435046B04014
:10238C00461EB041EC403843171ABA4292410C1B1E
:10239C005242A41A664698468BE6644667462C431E
:1023AC0000D08BE6002500260027EAE61E00ADE6ED
:1023BC001F2B60DC2027F81A0F0084468740100082
:1023CC00D840074360468240501E8241D940174393
:1023DC00F5E626005046064305D0ED43002DD3D03C
:1023EC00904EB445BDD10C001700664698468DE65C
:1023FC008C4883420BD06346D9E6002D00D096E082
:10240C000800104300D1E2E00C0017009846854EFE
:10241C007CE6002580E700218EE72300504603432D
:10242C00002E00D0A8E0002B00D1DEE00B001343FF
:10243C0000D16BE652445245804164184042241846
:10244C001700230200D4FDE6774B66461C405DE680
:10245C00250050460543002ECFD1002D4FD10C0046
:10246C00144300D1A0E00C00170098464EE66646D7
:10247C000024002785E61F000800203FF8400700D5
:10248C00202B00D18EE04020C31A99400A43511EE4
:10249C008A410021174392E6002E14D126005046A3
:1024AC00064362D0DB43002B5CD1871897429241E4
:1024BC0064185242A418664687E650462043441ED0
:1024CC00A041002460E7574EB4454ED08026360418
:1024DC005B423443382B00DD7FE01F2B00DD8BE0AB
:1024EC00202627005046F61AB740D84007435046DE
:1024FC00B040461EB0410743DC40BF18D6E70D0084
:10250C00154300D102E65046801A8245BF41651A38
:10251C007F42ED1B8446280200D48DE65046171AE4
:10252C00BA4292410C1B5242A41A9846EEE50D0099
:10253C00154300D16BE750466707C008074380205E
:10254C00E4080003044207D0CD08054204D12C0056
:10255C009846D70849070F437B0FE4001C43FF0044
:10256C00304ED3E52F4EB445B4D10C00170066465F
:10257C00CCE500270024E8E5002B39D00B001343F1
:10258C0000D144E7C008670707438020E408000334
:10259C000442E1D0CB080342DED1D70849070F43F0
:1025AC001C00D9E7002171E700250027E9E52E0082
:1025BC002700203EF740202D2FD04026751BAC4025
:1025CC0050462043441EA04100243843DCE68024BE
:1025DC0000252403134E0027D3E550462043070063
:1025EC00781E87410024BF1860E70C0017008DE5AA
:1025FC000C0017000B4E89E51E002700203EF7400B
:10260C00202B0CD04026F31A9C4050462043441EED
:10261C00A04107430024BF1848E70024D0E700245A
:10262C00F3E7C046FF070000FFFF7FFF30B5134DF7
:10263C000A034B00120B5B0DC90F0024AB4210DDDB
:10264C000F4CA3420FDC80240E4D64032243ED1A81
:10265C001F2D0BDD0C48C31ADA405442002900D15F
:10266C001400200030BD094BCC18FAE7084CE840A8
:10267C00A44663449A400243EFE7C046FE030000C1
:10268C001D0400003304000013040000FFFFFF7F53
:10269C00EDFBFFFF70B5002830D0C317C4185C40A9
:1026AC00C50F200000F052F9174B184A1B1AD21A0A
:1026BC001F2A18DD164AD21A9440002224035B0507
:1026CC00240B5B0D0021100024030A0D240B1205B2
:1026DC002243104C1B05224013435B00ED075B08A3
:1026EC002B43190070BD210091400A000B21081AE0
:1026FC00C4405B052403240B5B0DE3E7002500239A
:10270C0000240022DEE7C0461E0400003304000053
:10271C0013040000FFFF0F804100090E4B1C70B525
:10272C00DBB24602750AC40F012B14DDE0239B00BB
:10273C006D07360BCB1800210A0D280012051C4D15
:10274C0032435B052A405B0813435B00E4075B08DC
:10275C002343190070BD002914D1002D1ED0280070
:10276C0000F0F4F80A281CDC0B232A001B1ADA40B0
:10277C00030015339D400F4B12031B1A5B05160B00
:10278C005B0DD8E7002D06D0320B802636036D0783
:10279C001643094BCFE7084B0026CCE70023002655
:1027AC00C9E703002A000B3B9A400025E3E7C0462B
:1027BC00FFFF0F8089030000FF070000F0B54C00FD
:1027CC00640D0B03621C450F5B0A52052B43C90FAA
:1027DC00C500520D012A28DD3A4AA618FE2E1BDC34
:1027EC00002E3EDD80010200501E82416D0F2A43F7
:1027FC00DB0013435A0704D00F221A40042A00D0DE
:10280C0004338022D2041A405AD00136FF2E03D052
:10281C009B015B0AF4B201E0FF2400235802E4059B
:10282C00400AC90720430843F0BD002C07D01D43C4
:10283C00F2D08020DB0080040343FF26DAE72B4331
:10284C0003D00523DB08FF2C03D05B025B0AE4B248
:10285C00E4E7002B32D08020C00303435B025B0A09
:10286C00DCE73200173214DB80221E2712041343DC
:10287C00BF1B1F2F0FDC144A944664442A00A5404A
:10288C002E00A340751EAE41FA403343134300267D
:10289C00B0E70024D5E702225242961B1A00F24000
:1028AC00202F09D0094884466444A3402B435D1E65
:1028BC00AB41002613439DE70023F7E70023ADE768
:1028CC003400BFE780FCFFFF82FCFFFFA2FCFFFF90
:1028DC008446101C62468C46191C634600E0C046B8
:1028EC001FB500F0EFF8002801D40021C8421FBD2D
:1028FC0010B500F049F84042013010BD10B500F0A1
:10290C00E1F8002801DB002010BD012010BDC046FD
:10291C0010B500F0D7F8002801DD002010BD012013
:10292C0010BDC04610B500F069F8002801DC00208D
:10293C0010BD012010BDC04610B500F05FF8002896
:10294C0001DA002010BD012010BDC0461C2101235E
:10295C001B04984201D3000C10391B0A984201D376
:10296C00000A08391B09984201D30009043902A254
:10297C00105C40187047C0460403020201010101BB
:10298C000000000000000000F0B54F464646D64659
:10299C005C00C0B51F03DB0F9A46174B0E034D00AE
:1029AC0084468046360B6D0DC90F91463F0B640D66
:1029BC0001209D4208D09C4201D0A5420BD01CBCEA
:1029CC0090469946A246F0BD63463343F7D1AC42DC
:1029DC00F5D13A43F3D10120BE42F0D1C845EED136
:1029EC00514507D0002DEAD163461E433000461EE8
:1029FC00B041E4E70020E2E7FF070000F0B54546F0
:102A0C00DE4657464E46E0B51F033D0B2C4F0E03DA
:102A1C004C00AB465D008446360B640DC90F9046E6
:102A2C006D0DDB0FBC422AD0254FBD422DD0002CA2
:102A3C000FD130430700814678427841C0B2002D57
:102A4C0017D15F463A4314D14B460020002B0AD0D5
:102A5C0006E0002D02D15846024301D0994218D00D
:102A6C004842012108433CBC90469946A246AB46DD
:102A7C00F0BD0028F2D00120013B1843F3E73700EA
:102A8C000743D1D002204042EDE75F461743CED03A
:102A9C00F8E7AC42E4DC03DA481E01210843E2E724
:102AAC005E45DDD806D000205E45DCD20123481EF1
:102ABC001843D8E7C445D3D80020C445F6D3D2E791
:102ACC00FF070000F0B54E464546DE4657465C0013
:102ADC00E0B51F03DB0F99462A4B0E034D00C90FBF
:102AEC008446360B6D0D8B4690463F0B640D9D4214
:102AFC0020D0244B9C4222D0002D12D13043434293
:102B0C004341DBB2002C1FD0002B0CD04B460120D4
:102B1C00013B034318003CBC90469946A246AB4689
:102B2C00F0BD002C16D0CB4517D05B465942012383
:102B3C000B43EFE7310002230143EBD1D9E7390016
:102B4C0002231143E6D1D7E73A43DDD10023002815
:102B5C00E0D0EAE73A43E6D1E7E7A542E5DC05DB5E
:102B6C00BE42E2D807D00023BE42D3D2594601233D
:102B7C0001390B43CEE7C445D7D80023C445F5D360
:102B8C00C8E7C046FF0700000D488546002103E05A
:102B9C000C4B5B58435004310B480C4B42189A4277
:102BAC00F6D30B4A02E0002313600432094B9A421D
:102BBC00F9D300F013F80EF01FFA0BF08DFCFEE7C2
:102BCC0000800020FC1B010800000020EC05002008
:102BDC00900A002098490020FEE700000121114BCB
:102BEC0011481A680A431A605A6802405A601A68F7
:102BFC000E4802401A601A680D4802401A605A6862
:102C0C000C4802400F205A60DA6A8243DA621A6B6F
:102C1C00094802401A635A6B8A435A6300229A602D
:102C2C007047C046001002400CB8FF08FFFFF6FECC
:102C3C00FFFFFBFFFFFFC0FFECFEFFFF0221024A7C
:102C4C0013688B431360704710E000E00221024AC6
:102C5C0013680B431360704710E000E0002370B55D
:102C6C00026882B001939168033304000B40012B7E
:102C7C0031D09168204B194222D1012193680B432A
:102C8C0093601E4B1E491868FDF736FA0190019BA4
:102C9C00002B05D0019B013B0193019B002BF9D12B
:102CAC000EF080F90125060004E00EF07BF9801B84
:102CBC00022818D823681B681D42F6D0002008E0B3
:102CCC0010220120636C13436364A36C0F3A13430B
:102CDC00A36402B070BD11680B42EFD1D3681B0422
:102CEC00C7D50020F5E71022636C01201343636401
:102CFC00A36C1D43A564ECE71700008000000020C6
:102D0C0040420F00F8B5041E00D180E0436C002B4C
:102D1C0067D0636CDB065ED4042023689A6810408D
:102D2C0059D1626C48490A400631FF310A4362644A
:102D3C00032299680A40012A59D01821DA688A437B
:102D4C00A1680A43DA601A696168920092080A4322
:102D5C001A61DA683D49266A0A40DA60A26977038B
:102D6C009103E269D2031143626B013A551EAA41E9
:102D7C001503E268114322693943022A59D0226BA8
:102D8C0052000A43616A2A43024301294BD0C220F4
:102D9C00A16AFF30814202D0E06A01430A43D9683C
:102DAC00A56B1143D960802149058D4226D0691E3F
:102DBC00062923D9DB6826490B409A4229D01222D6
:102DCC00636C01209343023A13436364A36C0F3A80
:102DDC001343A36404E010220120636C1343636467
:102DEC00F8BD4022836483540DF0EEFC91E7196822
:102DFC000A42AED1DA6812049FD5AAE707215869B6
:102E0C00884358615869294001435961D2E7012030
:102E1C00E6E700230322A364636C00209343023A89
:102E2C0013436364DCE7002E05D1802149020A4379
:102E3C00ADE70420A3E72025606C28436064A06CF8
:102E4C000143A164A3E7C046FDFEFFFF1902FEFF8C
:102E5C00E7FF3F83036810B59A680400022052070D
:102E6C0000D510BD4022A15C0129FAD00121A1544A
:102E7C00E269012A05D02000FFF7F0FE0028F0D10E
:102E8C002368626C084900201140802252000A43DA
:102E9C00626440210022A26462541C321A609A6857
:102EAC003C390A439A60DCE7FEF0FFFF402370B523
:102EBC00C25C04000220012A00D170BD0122E25440
:102ECC002368033299680A4210D099680A421ED1CD
:102EDC000EF068F80425060004E00EF063F8801B81
:102EEC0002281CD823689A681542F6D103229968E7
:102EFC000A40012A1DD00020636C224A1340043280
:102F0C00FF321343636400224023E254D5E79A68EE
:102F1C001042DDD110219A680A439A60D8E710223A
:102F2C00636C012013436364A36C0F3A1343A364D3
:102F3C00E9E719680A4202D1DA681204DBD50522E6
:102F4C0099680A40012AEAD102219A6801250A43AC
:102F5C009A6003221A600EF025F8060004E00EF0C9
:102F6C0021F8801B022804D823689B681D42F6D1E7
:102F7C00C1E71022636C012013436364A36C1D43EF
:102F8C00A564C0E7FEFEFFFFF8B5446905000E001E
:102F9C00082C04D003680C24DB68DB0740D40EF04B
:102FAC0001F807002A68731C27D113682342FCD050
:102FBC008023696C9B000B436B64C023D1681B019D
:102FCC00194213D12B6A002B10D113681B070DD596
:102FDC0093685B072DD40C2153688B4353606B6C47
:102FEC0018490B400431FF310B436B64AB69002073
:102FFC00002B01D10C331360F8BD13682342D7D1D9
:10300C00002E04D00DF0CEFFC01B8642CAD2042283
:10301C006B6C032013436B6400224023EA54EBE7F0
:10302C002022436C1343436400224023C2540120EA
:10303C00E2E720216B6C0B436B64AB6C1F390B43C9
:10304C00AB64D3E7FEFEFFFF70B50D000168040012
:10305C008B68160002205B0700D570BD4023E25C34
:10306C00012AFAD00122E254E369012B27D1636CC7
:10307C00164AE06B1A4080235B00134363644022C2
:10308C000023A364A354124B303A8362114BC362E6
:10309C00114B03631C230B604B6813434B60CB68D1
:1030AC000F3A1343CB602A004031330000F0BEFBD3
:1030BC0004212268002093680B439360CDE7200025
:1030CC00FFF7CCFD0028C8D12168D0E7FEF0FFFF48
:1030DC0065320008D9320008E9320008F8B54023FF
:1030EC00C25C04000225012A01D12800F8BD01228E
:1030FC00C2540368033299680A4210D099680A4294
:10310C0038D10DF04FFF0425060004E00DF04AFF06
:10311C00801B022836D823689A681542F6D1012103
:10312C00DA68E06B8A43DA6000F0AAFB051E36D041
:10313C0040221021636C1343636423685A688A43EA
:10314C005A60032299680A40012A24D119680A425C
:10315C0002D1DA6812041ED5052299680A40012AA8
:10316C0056D01022636C13436364A36C0F3A134361
:10317C00A36410E09A681542C3D110219A680A43DF
:10318C009A60BEE710220125636C13436364A36C41
:10319C000F3A1343A36400224023E254A5E7102105
:1031AC0023685A688A435A60032299680A40012AA4
:1031BC0007D0636C244A13400432FF321343636418
:1031CC00E9E719680A4202D1DA681204F1D505223E
:1031DC0099680A40012AD5D102219A6801260A432E
:1031EC009A6003221A600DF0DDFE070023689B68CD
:1031FC001E42DED00DF0D6FEC01B0228F6D91022DE
:10320C00636C012513436364A36C1E43A664C2E77D
:10321C0002219A6801260A439A6003221A600DF073
:10322C00C1FE070023689B681E42B4D00DF0BAFEA5
:10323C00C01B0228F6D91022636C13436364A36C81
:10324C001E43A664A7E7C046FEFEFFFF0368186C8A
:10325C007047C0467047C0465021436A10B55A6C3F
:10326C00114222D18022596C92000A43C0215A6427
:10327C001A680901D068084213D1196A002910D1C3
:10328C00116809070DD59168490712D40C205168B3
:10329C00814351605A6C0B490A400431FF310A4397
:1032AC005A641800FFF7D6FF10BDDB6B1B6B9847F9
:1032BC00FAE720215A6C0A435A649A6C1F390A4364
:1032CC009A64EEE7FEFEFFFF7047C04610B5406AF9
:1032DC00FFF7FAFF10BDC0467047C0464022406A57
:1032EC0010B5436C13434364836C3C3A13438364BF
:1032FC00FFF7F2FF10BDC0460422036870B51968D1
:10330C0004000A424AD059680A4247D0626CD2067D
:10331C0004D48022616C92000A436264C022D96892
:10332C001201114213D1226A002A10D11A68120715
:10333C000DD59A68520744D40C215A688A435A60B6
:10334C00636C244A13400432FF321343636420003D
:10335C00FFF780FF0C2223681A6080251A6815423B
:10336C0002D05A68154221D1102219680A4214D091
:10337C0059680A4211D0626B012A02D0DA68D2076E
:10338C0009D50221A26C20000A43A26410221A6003
:10339C00FFF7A2FF236810221A6070BD082219687B
:1033AC000A42DAD059680A42D7D0AFE78023626C60
:1033BC005B021343636420000CF070F823681D60FB
:1033CC00D2E72022636C13436364A36C1F3A13434C
:1033DC00A364BCE7FEFEFFFF002370B582B001932F
:1033EC004033C25C04000220012A2BD00122A06BC6
:1033FC00E25423689D686D0726D4334D4E68AE4267
:10340C0035D00D689E6AAA4032439A6280225205DA
:10341C0090420FD0013806280CD9072288685969C8
:10342C001140884206D0596991435961596902404B
:10343C000A435A612B00103B012B0ED900200022AD
:10344C004023E25402B070BD20220120636C134370
:10345C00636400224023E254F4E71C4B1968102DDE
:10346C0018D08022D2030A431A600020F1E70968C1
:10347C00986A8A40904398620B00103B012BDDD870
:10348C00124B1B6810291DD0114A13400F4A002003
:10349C001360D4E7802212040A431A600D4B0E49C4
:1034AC001868FCF729FE8300181840000190019B56
:1034BC00002BC3D0019B013B0193019B002BF9D145
:1034CC000020BCE7054AE0E7011000000827014096
:1034DC00FFFFBFFF0000002040420F00FFFF7FFFF7
:1034EC00402370B5C45C02000220012C34D001389A
:1034FC000C68D0541368986840072ED4D8681E4DB9
:10350C001E4E2840D860DD6848682C438006204356
:10351C000324D860D868CD68C0082040400085409E
:10352C002800DD680004ED082C400D696400A540FE
:10353C002C001D6A896835401D621D6A2C4320438E
:10354C00186280201860012910D059688143596095
:10355C00002140230020D15470BD20210120536C48
:10356C000B43536400214023D154F5E759680843B9
:10357C0058600020F6E7C046FFFF3F8300F000F0E4
:10358C00402370B5C25C04000220012A2AD001221B
:10359C00E25422683D3B91680B40012B23D0636CB5
:1035AC001C490B400631FF310B4363648023916847
:1035BC001B060B4393600DF0F5FC050004E00DF0C9
:1035CC00F1FC401B02281AD823689B68002BF6DB01
:1035DC0003220020636C9343023A1343636400227A
:1035EC004023E25470BD11680B4202D1D3681B0416
:1035FC00D5D52022636C012013436364EFE71222BC
:10360C00636C01209343023A13436364002240230A
:10361C00E254E7E7FDFEFFFF70B5002814DB164A05
:10362C0003249446FF22830820401400C026C000C7
:10363C00890184400A4082409B006344B6009D5936
:10364C00A5432A439A5170BD0C4AFF2494460F237C
:10365C000322C0B2034010402200C0008901824006
:10366C000C408440083B9B089B006344DD699543F8
:10367C002C43DC61E7E7C04600E100E000ED00E030
:10368C001F2318401E3B8340014A13607047C046FD
:10369C0000E100E01F2318401E3B834080220149BB
:1036AC008B50704700E100E00A4A431E0120934210
:1036BC000ED8C021084A09485360036A09061B0248
:1036CC001B0A0B4303620023002093600733136033
:1036DC007047C046FFFFFF0010E000E000ED00E087
:1036EC001F23C02218401E3B8340024952008B50BE
:1036FC007047C04600E100E0054A1368042803D077
:10370C0004218B431360704718431060FBE7C046DD
:10371C0010E000E07047C04610B5FFF7FBFF10BD8E
:10372C0030B5002823D02123C35CDBB2002B1BD087
:10373C00212102230468435423680E4A85681A40E9
:10374C0043682B43C5682B4305692B4345692B43C1
:10375C0085692B43C5692B43134323600023836383
:10376C0001334354002030BD20228354E0E7012074
:10377C00F9E7C0460FC0FFFF002840D001210368C5
:10378C001A688A431A6000221A605A609A60DA60DA
:10379C00214A93421BD0214A93421FD0204A934284
:1037AC0023D0204A93422CD080221F4B92025A6085
:1037BC00802212035A608022D2021B4B5A600023D3
:1037CC00212283638354013A8354002070470222E0
:1037DC00154B5A6006325A60043AEEE72022124B1F
:1037EC005A6060325A60403AE7E780220E4B9200F2
:1037FC005A60802212015A608022D200DDE701203B
:10380C00E4E78022084B92015A60802212025A602F
:10381C008022D201D1E7C046080002401C000240C1
:10382C0030000240440002400000024070B52025E8
:10383C00465D0224012E1ED0012646550135445505
:10384C0004682568B543256063604368102B14D069
:10385C00A160E260022223681343236023680232D2
:10386C001343236023680432134323602368073A0D
:10387C00134323600024200070BDA260E160E9E7DF
:10388C0001210268F8B5136804008B4313600DF036
:10389C0089FBFA2607000125B60004E00DF082FB37
:1038AC00C01BB04209D823681B682B40F6D12122DB
:1038BC000020A554013AA354F8BD2022A36B032188
:1038CC001343A3632123E15400230320A354F3E700
:1038DC00212310B5C35C022B03D004238363012086
:1038EC0010BD0E2103681A688A431A601A680D39D4
:1038FC008A431A60134A93421AD0134A934215D042
:10390C00124A934218D0124A934218D08022520283
:10391C00104B5A6001222123C2540022013BC25495
:10392C00436B002B06D098470020D9E71022EFE715
:10393C000122EDE70020D3E780225200E8E7802245
:10394C005201E5E7080002401C0002403000024032
:10395C00440002400000024070B503680400714A44
:10396C00714815681900834200D181E06F48834289
:10397C0000D187E06E48834200D195E06D488342C8
:10398C0000D1A0E080200003054200D1BCE0082259
:10399C001D682A4215D01D689543624A1D6050600F
:1039AC000120A26B0243A26321220330A054002009
:1039BC00013AA054226B002A03D0200090472368C0
:1039CC001900584A58481268834254D057488342C9
:1039DC005DD05748834200D16CE05648834200D1F9
:1039EC0077E08020C002024200D180E01A685207C2
:1039FC0000D47CE01A68920603D404251A68AA4302
:103A0C001A60484A506021221120A054E26A002A10
:103A1C0003D02000904723681900424A424D106899
:103A2C000222A9420BD0414D1E32A94207D0404A76
:103A3C00914266D080223F4D9202A9424FD0104253
:103A4C0015D002211868014211D01868800627D5BC
:103A5C00344B5A60A36B0122A3632123E25400224E
:103A6C00013BE254A36A002B01D02000984770BDA3
:103A7C00280751D412680421114247D1294A1068F1
:103A8C000222DCE780202D0600D580E71268520662
:103A9C0002D51A68520741D4224A10682022CEE778
:103AAC00186888431860D3E780200001054200D0D5
:103ABC006DE712688020C000024213D1194A1068C9
:103ACC0080229200BBE780200002054200D05EE716
:103ADC0012688020C00102420ED1124A1068802266
:103AEC009201ACE71A685207E8D5114982E70D4AF2
:103AFC00106880229202A2E71A685207EDD50D4990
:103B0C0078E7802292009AE712686AE71A680A42FC
:103B1C00B4D0042004496DE7082038E7402003495D
:103B2C0068E7C04600000240080002401C0002404A
:103B3C003000024044000240F8B504000DF032FAA7
:103B4C00012507001F4E631C25D101221D49CB689E
:103B5C001A42FCD120221B4BD9680A4227D1194B9F
:103B6C00DA68D20603D4DB6800205B0712D5154B4C
:103B7C00DB68DB061DD404210023124AD2685207ED
:103B8C0005D50120104AD3690343D3610B000120F2
:103B9C000C4AD360F8BDF3681D42DBD0002C04D076
:103BAC000DF000FAC01B8442CDD20320F2E7DA609C
:103BBC00D5E70221044AD3690B43D3611231102398
:103BCC00DBE7C04600200240200D0020F0B5DE46A9
:103BDC0057464E464546E0B50B6885B08B469C462D
:103BEC000022002B00D1B7E0644BE1469A46644BAF
:103BFC00984667E0036856009C4603230327B340AE
:103C0C006446DB430F40B7401C403C43019F0460BB
:103C1C00013F012F00D881E05C46C5682B40A568A8
:103C2C00B5402B43C36080235B05194246D05346F5
:103C3C0001249B69032623435446A361A3690124F1
:103C4C000F2723404F4C1640A446B600B740902493
:103C5C000393039B93089B0063449D68E405BD4359
:103C6C00A04200D17FE0484FB84200D17DE0474FE1
:103C7C00B84200D17CE0464FB84200D17BE005272A
:103C8C00B7403D439D604346009C1B68E543CC0315
:103C9C005FD42B404446236063688C0356D42B407E
:103CAC0044466360A368CC024DD42B404446A360C9
:103CBC00E368890244D42B404146CB604B46013229
:103CCC00D34049D001254C4695402C400094F5D06A
:103CDC005B46596810230F009F433B000197022F4E
:103CEC0088D10F24053313409B009C40D608B600A6
:103CFC008619376AA7435C4624699C4023003B43E2
:103D0C00336203235600B340DB4307681F40BC46B5
:103D1C0003270F40B74064462743076087685C461B
:103D2C001F40BC46E7686446B740274301248760C0
:103D3C004768AF430D09254095403D4345606BE70F
:103D4C0000990B43B8E7009C2343AFE7009C234347
:103D5C00A6E7009C23439DE705B03CBC90469946E2
:103D6C00A246AB46F0BD00278BE70127B74088E79A
:103D7C000227B74085E70327B74082E700100240CF
:103D8C000004014000000140000400480008004805
:103D9C00000C0048F0B5DE4657464E464546E0B5A9
:103DAC00002383B0002969D0012294460232904648
:103DBC000C32914603E00A000133DA405ED06646CD
:103DCC009E4035000D40F6D047465C00A740FC43B2
:103DDC00026822400260DA089200871801973F6A55
:103DEC00BA4607271F40BF00BB464F465A4697406E
:103DFC00BB4657465A4697433A00019F3A6282683F
:103E0C004F46224082604268B2434260C26814400E
:103E1C00C460254C9A08A24644461C40A400A74006
:103E2C00920052449668BA463E409027FF05B8422D
:103E3C002BD01E4FB8422AD01D4FB8422BD01D4F4D
:103E4C00B8422CD00527A7403C00A642B3D1564619
:103E5C00ED4394680133B4439460174A164C1268CE
:103E6C002A40226062682A406260A2682A40A260EE
:103E7C00E26815400A00E560DA40A0D103B03CBC12
:103E8C0090469946A246AB46F0BD0024DDE7674656
:103E9C00A7403C00D9E70227A7403C00D5E747469E
:103EAC00A7403C00D1E7C046000001400004004898
:103EBC0000080048000C004800040140006908405C
:103ECC00411E8841C0B27047002A01D181627047FF
:103EDC008161FCE7044B10B55A69104202D058615D
:103EEC000AF08CF910BDC046000401401023F0B557
:103EFC00C64604000D0016000227984600B522683D
:103F0C006B1C2DD102211020936919422BD193697E
:103F1C001842F9D0202193691942FCD01023D361A7
:103F2C001033D36193699B0701D50023936201235E
:103F3C0091690B4202D191690B43936153681E49FD
:103F4C000B4053600423636420224123E25400237A
:103F5C0001202232A354023AA35404BC9046F0BD73
:103F6C0093691F4201D00020F7E74146936919423B
:103F7C0013D1002D04D00DF015F8801B8542BED254
:103F8C002022636C0320134363644123E254002317
:103F9C002232A354023AA354DFE7202707E0002D76
:103FAC00D2D00CF0FFFF801B8542CDD322689369E1
:103FBC001F42F4D0B2E7C04600E800FEF0B5C6469A
:103FCC00040000B50D001600002945D01023202751
:103FDC00984604E00CF0E6FF801B854243D3226830
:103FEC0093691F424CD1414693691942F2D0202764
:103FFC006B1C25D1202193691942FCD01023D3616D
:10400C001033D36193699B0701D50023936201237D
:10401C0091690B4202D191690B4393615368194921
:10402C000B4053600423636420224123E254002399
:10403C0001202232A354023AA35404BC9046F0BD92
:10404C0093691F42DAD1002DEED00CF0ABFF801B30
:10405C008542E9D32268CBE7026893699B060FD4AB
:10406C009369DB06C3D42022636C0320134363647F
:10407C004123E25400232232A354023AA354DCE736
:10408C000020DAE700E800FEF8B51E000400150079
:10409C0089050268244B890D50680B432349014064
:1040AC001943F3B21B040B4353600699079A200083
:1040BC00FFF71CFF071E17D1012E09D023682A0A0F
:1040CC009A620699079A2000FFF710FF00280BD17F
:1040DC002168EDB28D628025069B01330BD18022C5
:1040EC008B691A42FCD004E0636C0127042B00D0CE
:1040FC0003273800F8BD8B691D42FAD1069B002BB3
:10410C0008D00CF04FFF079BC01A069B834201D3CB
:10411C002168E2E720224123E25400232232A354F7
:10412C00023AA354E4E7C04600200001009800FCCA
:10413C00F8B51E0080230400150089050268890D5E
:10414C009B0150680B43224901401943F3B21B04F5
:10415C000B4353600699079A2000FFF7C7FE071E12
:10416C0017D1012E09D023682A0A9A620699079A58
:10417C002000FFF7BBFE00280BD12168EDB28D6249
:10418C004025069B01330BD140228B691A42FCD08F
:10419C0004E0636C0127042B00D003273800F8BD22
:1041AC008B691D42FAD1069B002B08D00CF0FAFE4D
:1041BC00079BC01A069B834201D32168E2E72022A9
:1041CC004123E25400232232A354023AA354E4E7DD
:1041DC00009800FC10B5041E4DD04123C35CDBB22B
:1041EC00002B3ED0242241230121E25423681A687B
:1041FC008A431A606168214A0A401A619A68204908
:10420C000A409A60A268E168002A1ED1022924D0D3
:10421C0059681C4A00200A435A60616922690A43A2
:10422C00A16909020A43DA60216AE2690A430121A1
:10423C001A601A680A431A60002341221F31636412
:10424C00A15401322363A35410BD01290ED0842044
:10425C00000202439A600229DAD1802212015A60CC
:10426C00D6E7402283540CF09DFBBBE7802109026A
:10427C000A439A60CCE70120E6E7C046FFFFFFF057
:10428C00FF7FFFFF0080000270B5041E13D0412594
:10429C00242301210268435513688B4313600CF0EF
:1042AC0049FC002342220020636463552363A3541A
:1042BC00023AA35470BD0120FCE7C046F0B5574646
:1042CC004E464546DE46E0B583B09A460CAB40CB35
:1042DC0004001F884123C35C884691460220202B92
:1042EC0006D003B03CBC90469946A246AB46F0BD06
:1042FC00002E36D0002F34D04023E25C012AF0D0BF
:10430C000122E2540CF04EFE834605E00CF04AFE0E
:10431C005B46C01A192826D823689D6980231B0286
:10432C001D40F3D121224123E25401331F32E254C8
:10433C005B4601930E9B65640093666267856563BB
:10434C0053464A4641462000FFF79EFE002814D0F3
:10435C00636C042B03D040230320E554C1E73C33AA
:10436C00E5540120BDE720224123E25400232232F0
:10437C00A354023AA3540320B3E7638DFF2B61D9F6
:10438C00FF2321682385434A4B681A4043469E0508
:10439C00414BB60D334313434B603F4F802537439E
:1043AC0002E0638D002B60D05A460E992000FFF777
:1043BC009DFD002841D1636A2268591C61621B78FB
:1043CC009362638D013B9BB26385238D013B9BB252
:1043DC002385002BE5D1638D002BE2D00E9B01339E
:1043EC000DD193691D42FCD0638DFF2B16D9FF2391
:1043FC002849238553680B403B435360D1E79369AD
:10440C001D42F1D10E9B002BADD00CF0CBFD5B46C9
:10441C00C01A0E9B8342A6D32268E0E7638D1D4928
:10442C0050689BB2084080212385DBB21B048904B1
:10443C000B43334303435360B3E7636C042B90D0BB
:10444C0003204EE741462068638D8E054268114972
:10445C009BB20A408021B60D890423853143DBB21F
:10446C000A431B041343436097E75A460E992000F6
:10447C00FFF7A4FD0028E0D120212368074DD96166
:10448C005A682A405A604123E1540133E054023BFC
:10449C00E05426E7009800FC0000FF0100E800FE55
:1044AC00F0B557464E464546DE46E0B583B09A46D3
:1044BC000CAB40CB04001F884123C35C884691465B
:1044CC000220202B06D003B03CBC90469946A24655
:1044DC00AB46F0BD002E36D0002F34D04023E25C2A
:1044EC00012AF0D00122E2540CF05CFD834605E079
:1044FC000CF058FD5B46C01A192833D823689D6907
:10450C0080231B021D40F3D122224123E2540133AC
:10451C001E32E2545B4601930E9B65640093666207
:10452C006785656353464A4641462000FFF700FE07
:10453C00002821D0636C042B03D040230320E554C6
:10454C00C1E73C33E5540120BDE793691E4259D1C4
:10455C000E9B002B06D00CF025FD5B46C01A0E9B63
:10456C00834249D220224123E25400232232A35415
:10457C00023AA3540320A6E7638DFF2B5ED9FF23D9
:10458C002268238544495368194043469F05434B91
:10459C00BF0D3B430B435360042580260E9B013318
:1045AC001AD193691D42FCD0636A526A591C61622C
:1045BC001A70238D628D013B013A9BB292B2238516
:1045CC006285002B02D1638D002B14D1638D002BDF
:1045DC0046D022680E9BE2E793691D42E4D10E9B04
:1045EC00002BBFD00CF0DEFC5B46C01A0E9B834246
:1045FC00B8D32268D3E70E9B22680133A5D1936907
:10460C001E42FCD0638DFF2B09D9FF232249238541
:10461C0053681940224B3B430B435360D6E7638DE1
:10462C001D4950689BB2084080212385DBB21B04D6
:10463C0089040B433B4303435360C7E7404622685E
:10464C00638D8705516814489BB201401548BF0D16
:10465C0023853843DBB201431B040B4353609BE7B8
:10466C005A460E992000FFF7A9FC002805D0636C70
:10467C00042B00D167E7032025E7202123680A4D8E
:10468C00D9615A682A405A604123E1540133E054FD
:10469C00023BE05417E7C046009800FC0024FF01E1
:1046AC000000FF010024000200E800FE036810B5C2
:1046BC0099691A68436B002B00D0984710BDC0460F
:1046CC007047C0467047C0467047C0467047C046EA
:1046DC007047C0467047C0460023422210B5835431
:1046EC00404A0400C26241224385436C1943416431
:1046FC00835C282B28D0835C292B25D0835C2A2B28
:10470C0022D0835C835C0368FE20196881431960A6
:10471C00A15C602901D02021A154002280212263B8
:10472C0062631A68C9010A402ED180201968000200
:10473C0001403BD14123E25C602A48D04023200059
:10474C00E154FFF7C5FF10BD4123E25C193B134058
:10475C00282B44D0F72252424123E15C193B0B40F9
:10476C00282B01D0F7225242236819680A401A609C
:10477C0028214122A1540022802122631A4AC90116
:10478C0062631A680A40D0D01A681849A06B0A40B4
:10479C001A60174B002243634023E254FFF798F84A
:1047AC000028D0D0A06B436B9847CCE71968114810
:1047BC0001401960E06B0E4B43634023E254FFF75A
:1047CC0087F80028BFD0E06B436B9847BBE7403AB3
:1047DC00E254013BE1542000FFF77CFFB3E7472292
:1047EC005242B9E70000FFFF85490008FFBFFFFFF9
:1047FC009D4C0008FF7FFFFF2022F8B504000368E2
:10480C00DA61183ADA613932A05CFE20A25C1A68CF
:10481C0082431A6080225868120202435A605A6816
:10482C00534802405A609A69920701D500229A6255
:10483C0001229869024202D1986902439A611A686E
:10484C0052042DD41A6812042AD4628D002A03D083
:10485C000420626C02436264042211400E1E07D0D5
:10486C00616A5B6A481C60620B70238D002B2BD134
:10487C00002542272563E555636C6563002B34D115
:10488C00E16A3C4A914215D14122A15C222967D0B0
:10489C002021A15440222000A354FFF711FFF8BDA2
:1048AC004122A25C212A55D0E26B1268526892B266
:1048BC006285CAE7E26220214122A154013AA35445
:1048CC002000FFF703FFEAE700254227013B238581
:1048DC00638D013B9BB26385636C1A4362642563F1
:1048EC00E555636C6563002BCAD0616C2000FFF743
:1048FC00F3FE4123E25C282AD1D11E4AE262202237
:10490C002563E254E5556563002E12D0636A5A1C88
:10491C0062622268526A1A70238D002B09D004221D
:10492C00013B2385638D013B9BB26385636C134311
:10493C0063644123FE21E25CE35C236820001A6877
:10494C008A431A601022DA6100224023E254FFF7F6
:10495C00BDFEA4E7A26B1268526892B2628574E73E
:10496C000239A154013AA3542000FFF7ABFE96E79D
:10497C0000E800FE0000FFFFF0B54646D6464F4665
:10498C004023C0B51600C25C04000D000220012AB1
:10499C0048D00122E254303B0B4248D104232B4235
:1049AC0000D189E0334200D186E0638D002B0CD01E
:1049BC00636A5A1C62622268526A1A70238D013B28
:1049CC002385638D013B9BB26385638D9BB2002B6A
:1049DC001ED1E16AAD4A91421AD04222A35441330E
:1049EC00E25C292A00D084E02121013AE2542163BF
:1049FC00E35CD1311A40282A00D133E122681368D4
:104A0C008B431360002240232000E254FFF758FE32
:104A1C0020232B4202D0334200D07EE000224023E0
:104A2C000020E2541CBC90469946A246F0BD33428D
:104A3C00B4D0628D002A79D18023E26A9B049A4219
:104A4C0000D194E0E26A9A4200D190E0E26A8F4B86
:104A5C009A4267D04123E35C292B63D1102223684F
:104A6C00DA619A69920701D500229A62012299694A
:104A7C000A4202D199690A439A6100214222A15447
:104A8C00013AA15C292900D1EEE0A15C2A29BFD111
:104A9C0022200239A1542063A25CD2301140282973
:104AAC0000D1EEE01A6882431A60002240232000F5
:104ABC00E254FFF707FEABE708232B4201D0334249
:104ACC003BD102232B42A3D03342A1D0638D002BC8
:104ADC003FD18023E26A5B049A4202D0E36A002B46
:104AEC0096D100224223E254013BE25C292A00D1F8
:104AFC007AE7E25C2A2A00D08AE72221023AE254C1
:104B0C002163E35C67391A40282A01D0F521494218
:104B1C00226813680B401360C7E729002000FFF7D9
:104B2C006BFE7BE710222368DA6171E72268D361A0
:104B3C000422636C134363646AE74122A15C193A53
:104B4C000A40282A47D02268D36100224023E2542D
:104B5C005EE7636A2268591C61621B789362638DFD
:104B6C00013B9BB26385238D013B238550E7412399
:104B7C00E25C282A00D069E7444A2021E262002244
:104B8C002263E1540133E2543E3B62632B4211D069
:104B9C00626A511C61622168496A1170228D002A77
:104BAC0008D0013A2285628D013A92B26285626C1C
:104BBC00134363644123FE21E25CE35C2368200021
:104BCC001A688A431A601022DA6100224023E254E8
:104BDC00FFF77CFD1CE7FE272068BC468169C903F2
:104BEC00CA0F92468269120C3A408768C16888469F
:104BFC00E16802291BD1BF05BF0DF9094A40062106
:104C0C000A4020D1A16C8C4601218846C4446146DF
:104C1C00A164A16C022900D0FAE6A264C361383306
:104C2C00E25451463A002000FFF74EFDF0E6B8275B
:104C3C0003685146BB43036000204023E05420002E
:104C4C00FFF742FDE4E6B822036851469343036044
:104C5C0000224023E2546246434620001A40FFF7EC
:104C6C0033FDD5E6B039C9E621200139A1542063C2
:104C7C00A25CD1301140282905D01A6882431A60F1
:104C8C00C0E6B0380EE7B038F7E7C0460000FFFFCB
:104C9C008023406A1B02026810B551680B435360B5
:104CAC000023826B5363C26B53634133C25C602A33
:104CBC0002D0FFF70DFD10BD403AC254FFF70AFDBC
:104CCC00F9E7C0468021036849009A6970B5040071
:104CDC0018680A4216D0050652D50125606C284387
:104CEC006064D961510559D50820616C0143616438
:104CFC008021C900D961920548D40B21626C114204
:104D0C0008D170BD51053DD50106EDD40B21626C67
:104D1C001142F6D000214220626C21544848E062D6
:104D2C006185616C0A4362644122A15C282938D0F8
:104D3C00A15C292935D0A15C2A2932D0FE20A15CA6
:104D4C00A15C196881431960A15C602901D0202104
:104D5C00A15400228021226362631A68C9010A40AF
:104D6C003ED180201968000201404CD14123E25C05
:104D7C00602A5AD040232000E154FFF7A9FCC0E779
:104D8C005105BAD49205B8D50206B6D50221626C8B
:104D9C000A43626480229200DA61AEE79205F5D490
:104DAC00ABE74122A15C193A0A40282A45D0F720EA
:104DBC00404241222821A25C1140282901D0F72031
:104DCC0040421A68282102401A604122A154002254
:104DDC00802122631B4AC90162631A680A40C0D051
:104DEC001A681949A06B0A401A60184B00224363D9
:104DFC004023E254FEF76CFD002800D181E7A06B44
:104E0C00436B98477DE71968114801401960E06BC6
:104E1C000E4B43634023E254FEF75AFD002800D1A9
:104E2C006FE7E06B436B98476BE7403AE254013B0A
:104E3C00E1542000FFF74EFC63E747204042B8E7FF
:104E4C000000FFFF85490008FFBFFFFF9D4C0008D5
:104E5C00FF7FFFFF7047C04670B5041E49D0036842
:104E6C00DA68D20706D5DA68920703D5DA6801202A
:104E7C0052072FD4627CD2B2002A34D002220721EE
:104E8C0062741D4A1A605A688A4361680A435A6000
:104E9C009A68A168120B12030A439A601749E268D8
:104EAC008A4218D00CF07EF8FA250600AD0004E01A
:104EBC000CF078F8801BA84211D82368DA68002A15
:104ECC00F6D11A69E168120B12030A431A61012325
:104EDC000020637470BD1B699342E3D1F7E7032391
:104EEC0003206374F6E722742000FFF7B3FF2368F6
:104EFC00C4E70120EEE7C04655550000FF0F000047
:104F0C00F0B5C64600B5037C04000220012B27D067
:104F1C000123E2682374194B60749A4223D02368EE
:104F2C00174A01251A600CF03DF80226804604272A
:104F3C000DE0DA6816420ED0DB681F420BD00CF085
:104F4C0031F84346C01AFA239B0098420FD82368C5
:104F5C00DA681542EDD10123637400230020237419
:104F6C0004BC9046F0BD2368064A1A60D8E70323B8
:104F7C006374002303202374F2E7C046FF0F000084
:104F8C00CCCC0000AAAA0000F8B5037C04000220D7
:104F9C00012B00D1F8BD0123607423740CF002F8CE
:104FAC00FA2607000225B60004E00BF0FBFFC01B3D
:104FBC00B0420AD82268D3682B40F6D106490020AB
:104FCC001160012223746274E4E7032363740023E9
:104FDC0003202374DEE7C046AAAA00008023034AFC
:104FEC005B0011680B4313607047C04600700040B3
:104FFC000420064A136983431361012903D040BF7F
:10500C0020BF20BF704730BFFCE7C04600ED00E07A
:10501C0010B503240B4A1368A343184310600420F3
:10502C00094A136903431361012908D040BF20BF0B
:10503C0020BF0421044A13698B43136110BD30BF98
:10504C00F7E7C0460070004000ED00E0F0B5CE463A
:10505C00474680B5036883B00400DA072FD50C22CD
:10506C00C34841681140042900D11AE141680A4043
:10507C00082A00D10CE16368012B00D170E1002BF0
:10508C0000D118E1052B00D1E5E1B94BB9491A68FB
:10509C000A401A601A68B8490A401A600BF082FF7D
:1050AC0080250700B24EAD0205E00BF07BFFC01B64
:1050BC00642800D939E133682B42F6D023689A076B
:1050CC0029D50C22AA494868024200D1C4E048689C
:1050DC000240082A00D1B6E0E368A54D002B00D1B0
:1050EC0052E101222B68022613432B600BF05AFF6E
:1050FC00070005E00BF056FFC01B022800D914E195
:10510C002B681E42F6D0F8212A6823698A43DB00FB
:10511C0013432B6023681A0700D57DE05A0740D54E
:10512C0080220020924B5205D9698046114208D149
:10513C00D9691143D961DB691A400192019B0123A2
:10514C00984680278D4E7F0033683B4200D1D7E0D4
:10515C00A368012B00D1E3E0002B00D1E7E0052B85
:10516C0000D1A2E10121824B1A6A8A431A621A6A9F
:10517C0003318A431A620BF015FF7D4F81460226DC
:10518C007F4D06E00BF00EFF4B46C01AA84200D92B
:10519C00CBE03B6A1E42F5D04346012B00D11DE10A
:1051AC002368DB0612D56369012B00D15FE105335F
:1051BC0000D0FCE00421F8206D4A536B8B43536301
:1051CC00516BA3698143DB000B435363236A002BB0
:1051DC001CD00C22664D69680A40082A43D0022B69
:1051EC0000D102E12B68674A2C0013402B600BF0B6
:1051FC00D9FE80250600AD0405E00BF0D3FE801B24
:10520C00022800D991E023682B42F6D1002003B08C
:10521C000CBC90469946F0BDE369554D002B24D04B
:10522C0001226B6A022613436B620BF0BBFE070074
:10523C0004E00BF0B7FEC01B022876D86B6A1E4246
:10524C00F7D023686AE74A68C02149020A408021E6
:10525C0009028A4200D03FE7454A1268920743D5BB
:10526C00E268012A40D00120D1E701226B6A0226B4
:10527C0093436B620BF096FE070004E00BF092FE7A
:10528C00C01B022851D86B6A1E42F7D1236845E730
:10529C00C021426849020A40802149028A4200D05A
:1052AC00E9E6334A1268920300D408E76268002AE0
:1052BC0000D004E7D7E72E4D2E4A2B6880261340EA
:1052CC002B602B682C4AB60213402B600BF06AFE45
:1052DC00070004E00BF066FEC01B642825D82B6881
:1052EC003342F7D12368EAE6F825214822690168A0
:1052FC00D200A9430A4302601A0700D40EE78BE7D9
:10530C0033683B4333600BF04DFE050004E00BF0BB
:10531C0049FE401B642808D833683B42F7D017E796
:10532C0013490A6A13430B6225E703206FE7012236
:10533C000F4E0227336A124D93433362336A0332A2
:10534C00934333620BF02EFE814605E00BF02AFEF0
:10535C004B46C01AA842E8D8336A1F42F6D11BE765
:10536C008023034A5B0211680B43136096E6C04628
:10537C0000100240FFFFFEFFFFFFFBFF007000402C
:10538C0088130000FFFFFFFE01222B6802269343C7
:10539C002B600BF007FE070004E00BF003FEC01BB4
:1053AC000228C2D82B681E42F7D12368B3E6042228
:1053BC00434D02266B6B13436B636B6B033A934346
:1053CC006B630BF0EFFD070004E00BF0EBFDC01B73
:1053DC000228AAD86B6B1E42F7D1F7E6384A394936
:1053EC00D3690B40D3612368DBE62B68364A8026F1
:1053FC0013402B600BF0D6FDB604070004E00BF055
:10540C00D1FDC01B022890D82B683342F7D10F2254
:10541C00EB6A9343E26A1343EB62616AA36A6A68BC
:10542C000B432A4980240A4013436B6080232A686B
:10543C005B0413432B600BF0B5FD214D0600A40457
:10544C0005E00BF0AFFD801B022800D96DE72B683F
:10545C002342F6D0DAE68022194BD20219680A43AD
:10546C001A608022196852020A431A6016E6042157
:10547C00134D02266A6B0A436A636A6B13436B63B0
:10548C000BF090FD070005E00BF08CFDC01B022813
:10549C0000D94AE76B6B1E42F6D0F8216A6BA36900
:1054AC008A43DB0013436B6390E60421044B1A6AB6
:1054BC000A431A621A6A03390A431A625BE6C04647
:1054CC0000100240FFFFFFEFFFFFFFFEFF7FC2FF58
:1054DC00F0B5CE464746012280B50C00594989B03B
:1054EC000B6805001340A3420DD20B689343234372
:1054FC000B600B681A40944205D0012009B00CBC1B
:10550C0090469946F0BD2B689A0706D5F0204E4977
:10551C004A688243A86802434A60DB0724D54A4B99
:10552C006A681B68012A6AD0022A63D09B07E4D5FB
:10553C000321454E73688B43134373600BF032FDAC
:10554C006B680700012B5DD0022B6BD00C239846A7
:10555C003E4B994604E00BF025FDC01B48454CD84A
:10556C00424673681A42F6D10121364A13680B4041
:10557C009C4205D213688B43136013681942BCD14B
:10558C002B685B0706D5304A314953680B40E968F4
:10559C000B4353602F4B6A46180070C870C20068EA
:1055AC001033106004AA100070CB70C01B68264C1E
:1055BC0003600C23606869460340082B0ED0264814
:1055CC00214B264A5B681B061B0FD35CD840244B2F
:1055DC00186000200BF0CCFC00208FE7E56A073345
:1055EC00800C18402B400C5CD15C1B48FAF784FDF6
:1055FC006043E5E79B019BD47FE703207EE79B0399
:10560C0096D47AE70B339846104B994604E00BF08E
:10561C00C9FCC01B4845F0D8424673681340042BA4
:10562C00F5D1A1E70A339846084B994604E00BF0F4
:10563C00B9FCC01B4845E0D8424673681340082BA0
:10564C00F5D191E7002002400010024088130000C1
:10565C00FFF8FFFF7410010800127A00D411010842
:10566C0000000020014B18687047C0460000002065
:10567C00F0B5CE46474680B5036883B00400DA0324
:10568C0039D5802200203D4B5205D9698046114204
:10569C0008D1D9691143D961DB691A400192019B88
:1056AC00012398468026364D76002B6833424CD029
:1056BC00C021324D89002A6A0A4044D060680140FA
:1056CC008A420ED08022296A2E6A520232432A6202
:1056DC002A6A2C4B2C4E0B4032402A622B62CB0791
:1056EC0022D4264A2749136A0B40034313624346CC
:1056FC00012B3AD02368DA070ED400209B0606D57E
:10570C0010211E4A136B8B43E1680B43136303B0E8
:10571C000CBC90469946F0BD032018490A6B824395
:10572C00A06802430A63E8E70BF03CFC174B070048
:10573C000226994604E00BF035FCC01B48451AD8EC
:10574C002B6A1E42F7D06068CBE72B6833432B6083
:10575C000BF028FC070004E00BF024FCC01B6428B1
:10576C0009D82B683342F7D0A2E7D36908490B401C
:10577C00D3612368BFE70320C9E7C046001002408D
:10578C0000700040FFFCFFFFFFFFFEFF88130000CE
:10579C00FFFFFFEFF8B5041E49D0437FDBB2002BAF
:1057AC0047D00223CA22637723685A62773A5A6237
:1057BC00DA68520624D59A68204920690A409A6012
:1057CC00626899680243606902430A439A60E2681E
:1057DC0000201A61A268196912040A4380211A6117
:1057EC00DA688A43DA601A6C15490A401A641A6C32
:1057FC00A1690A431A64FF225A6201236377F8BD38
:10580C0001225242DA600BF0CDFBFA26070040254C
:10581C00B6002368DA681542CDD10BF0C3FBC01B70
:10582C00B042F6D9FF2223685A6204236377012021
:10583C00E5E703770BF0C4F9B3E7C046BFFF8FFF72
:10584C00FFFFFBFFF8B54546DE4657464E46E0B532
:10585C00037F04000D000220012B58D00123276880
:10586C00607723774026BB68002A56D11E4000D0B3
:10587C0084E0CE7028780023092806D90A38C0B2F3
:10588C0001330928FAD81B01DBB218436B780004EA
:10589C000021092B06D90A3BDBB20131092BFAD8BE
:1058AC000901C9B20B43A9781B02092900D888E069
:1058BC000A39C9B201320929FAD81201D2B2064307
:1058CC00334311430B439846CA237B62773B7B627D
:1058DC00FB685B0634D543463B493C4A0B403B6076
:1058EC00BB6829691340BB60EB68BA680B43134370
:1058FC008022BB60FB689343FB60BB689B0643D56F
:10590C00FF237B62FE3B63770023002023773CBCA4
:10591C0090469946A246AB46F8BD334031D1CB7088
:10592C002E786978360409020E43A978314319435D
:10593C00CA237B62773B7B62FB6888465B06CAD4D2
:10594C0001235B42FB600BF02DFB40239946FA23AD
:10595C009B0083469A464B462768FE681E40BAD188
:10596C000BF020FB5B46C01A5045F4D9FF2223688C
:10597C0001205A62042326776377C8E7CE78360471
:10598C0078E7CB781B04CBE7A022FB682026934357
:10599C00FB600BF007FBFA239B00814698462768B7
:1059AC00FD683540ACD10BF0FDFA4B46C01A4045B2
:1059BC00F5D9FF22236801205A62042325776377E7
:1059CC00A5E700227BE7C0467F7F7F00FFFFFBFF40
:1059DC000068F0B5836A4B60036904685B045B0C78
:1059EC008B60174B3F201C407F231E00250AEDB215
:1059FC002E40B4464E704026270CE4B2384023406B
:105A0C003E4008708B70CE70002A16D10F2600090C
:105A1C0082001018624640003740C0190870100907
:105A2C00820012185200354055191A0993009B1820
:105A3C005B0034401C194D708C700020F0BDC046CA
:105A4C007F7F7F00F8B5CE46474680B5037F0500C3
:105A5C000220012B29D0012368772B77002A28D02C
:105A6C00CA23CC784878240400022A680443887836
:105A7C00044308785362773B53624003D368044372
:105A8C00A0465B064BD544468021444804405460F4
:105A9C00D3688B43D36093689B0660D5FF23536216
:105AAC00FE3B6B77002300202B770CBC904699466D
:105ABC00F8BD4B780E3018424CD1C8780024092818
:105ACC0006D90A38C0B201340928FAD82401E4B244
