:020000040800F2
:10000000008000207D140108011301080513010878
:1000100000000000000000000000000000000000E0
:1000200000000000000000000000000009130108AB
:1000300000000000000000000D130108111301086A
:10004000CD140108000000008D130108CD14010833
:10005000CD140108D9130108E5130108B5130108EF
:10006000000000007D1301084D130108651301080D
:10007000A5130108CD140108CD14010800000000EB
:10008000CD140108CD140108CD140108CD140108C8
:10009000CD140108CD140108CD1401081D13010869
:1000A00035130108CD140108CD140108CD14010841
:0C00B000CD140108CD1401080000000070
:1000BC0010B5064C2378002B07D1054B002B02D032
:1000CC00044800E000BF0123237010BDB80B0020D2
:1000DC000000000028150108044B10B5002B03D0BC
:1000EC000349044800E000BF10BDC04600000000FA
:1000FC00BC0B002028150108002243088B4274D346
:10010C0003098B425FD3030A8B4244D3030B8B420C
:10011C0028D3030C8B420DD3FF22090212BA030C15
:10012C008B4202D31212090265D0030B8B4219D3F6
:10013C0000E0090AC30B8B4201D3CB03C01A524116
:10014C00830B8B4201D38B03C01A5241430B8B425E
:10015C0001D34B03C01A5241030B8B4201D30B0347
:10016C00C01A5241C30A8B4201D3CB02C01A52416E
:10017C00830A8B4201D38B02C01A5241430A8B4231
:10018C0001D34B02C01A5241030A8B4201D30B021A
:10019C00C01A5241CDD2C3098B4201D3CB01C01A34
:1001AC00524183098B4201D38B01C01A524143093E
:1001BC008B4201D34B01C01A524103098B4201D32C
:1001CC000B01C01A5241C3088B4201D3CB00C01A99
:1001DC00524183088B4201D38B00C01A5241430811
:1001EC008B4201D34B00C01A5241411A00D2014636
:1001FC00524110467047FFE701B5002000F0F0F8BF
:10020C0002BDC0460029F7D076E7704703460B4382
:10021C007FD4002243088B4274D303098B425FD3F3
:10022C00030A8B4244D3030B8B4228D3030C8B421F
:10023C000DD3FF22090212BA030C8B4202D3121205
:10024C00090265D0030B8B4219D300E0090AC30BDA
:10025C008B4201D3CB03C01A5241830B8B4201D387
:10026C008B03C01A5241430B8B4201D34B03C01A70
:10027C005241030B8B4201D30B03C01A5241C30AE8
:10028C008B4201D3CB02C01A5241830A8B4201D359
:10029C008B02C01A5241430A8B4201D34B02C01A43
:1002AC005241030A8B4201D30B02C01A5241CDD2E8
:1002BC00C3098B4201D3CB01C01A524183098B4233
:1002CC0001D38B01C01A524143098B4201D34B011C
:1002DC00C01A524103098B4201D30B01C01A52417F
:1002EC00C3088B4201D3CB00C01A524183088B4206
:1002FC0001D38B00C01A524143088B4201D34B00EF
:10030C00C01A5241411A00D2014652411046704760
:10031C005DE0CA0F00D04942031000D34042534065
:10032C0000229C4603098B422DD3030A8B4212D325
:10033C00FC22890112BA030A8B420CD38901921157
:10034C008B4208D3890192118B4204D389013AD094
:10035C00921100E08909C3098B4201D3CB01C01A69
:10036C00524183098B4201D38B01C01A524143097C
:10037C008B4201D34B01C01A524103098B4201D36A
:10038C000B01C01A5241C3088B4201D3CB00C01AD7
:10039C00524183088B4201D38B00C01A5241D9D2EF
:1003AC0043088B4201D34B00C01A5241411A00D270
:1003BC000146634652415B10104601D34042002B6C
:1003CC0000D54942704763465B1000D3404201B5EB
:1003DC00002000F005F802BD0029F8D016E77047A0
:1003EC007047C0468446081C6146FFE71FB500F005
:1003FC0073FB002801D40021C8421FBD10B500F0CA
:10040C00F5FA4042013010BD10B500F065FB002834
:10041C0001DB002010BD012010BDC04610B500F05E
:10042C005BFB002801DD002010BD012010BDC04683
:10043C0010B500F003FB002801DC002010BD0120EA
:10044C0010BDC04610B500F0F9FA002801DA002002
:10045C0010BD012010BDC04670B500220C4B04002D
:10046C000D0002F057FA002804D12000290002F0F8
:10047C00D7F870BD064B00222000290001F088FD42
:10048C0002F0CEF880231B069C466044F1E7C04680
:10049C000000E041F8B54746CE4643025B0A4400F3
:1004AC00C20F9C464800DD004B02240E5B0A000E76
:1004BC0080B5984626009146C90FDB00271A8A4260
:1004CC0029D0002F15DD00284AD1002B00D095E053
:1004DC00ED08FF2C00D188E06B025B0AE6B25B02F0
:1004EC00F605580A3043D20710430CBC9046994687
:1004FC00F8BD002F00D087E0601CC0B2012800DCE2
:10050C00B6E0EE1A720100D5C5E0002E3DD10022F6
:10051C0000260023E3E7002F00DC96E000285DD0E6
:10052C00FF2C60D08022D20413431B2F00DDECE0A3
:10053C002022D21B18009340F8405A1E93410343CB
:10054C00ED186B017BD50134FF2C00D1B7E00122F3
:10055C0007262A406B089A4D1D4015432E4029E072
:10056C00FF2CB5D08022D20413431B2F00DDB2E048
:10057C002022D21B19009340F9405A1E93410B4381
:10058C00ED1A6B015BD5AD01AE09300002F0CCF970
:10059C0005388640844265DC041B3300202001347E
:1005AC00E340041BA640751EAE41334307261D00D5
:1005BC0000241E4001224B461A40002E04D00F236B
:1005CC002B40042B00D004356B0100D480E70134A0
:1005DC00E6B2FF2C2FD1FF26002380E7002B52D14F
:1005EC00FF2C00D074E70A00ED08002DF3D0802317
:1005FC00DB032B435B025B0AFF2670E7013F002FF6
:10060C00BED0FF2CB1D163E7002C47D0FF2869D0B6
:10061C008024E4047A4225431B2A00DDC5E02C002B
:10062C002026D440B21A95406A1E954125435D1B85
:10063C0004008946A5E7AB015B0A50E700240122C0
:10064C004B461A406B07BAD142E7002F3BD101341D
:10065C00E0B201284ADDFF2CBDD00726ED186D084D
:10066C002E40A7E70723574D241A35401E40A1E71B
:10067C00002C1BD1002D6ED1002B00D19AE00A006A
:10068C001D003C0024E7013F002F00D158E7FF2C50
:10069C0000D04AE7A7E75E1B894676E7002D1CD100
:1006AC000A00FF281FD004001D0011E7002D5DD1AA
:1006BC00002B17D180230022DB03FF260FE70A0053
:1006CC00FF2600230BE7002C21D1002D66D1FF283B
:1006DC00E9D11D0087E7012352E77A1CA7D0FA4322
:1006EC00FF2899D10A001D00FF24F1E6002E21D12C
:1006FC00002D4FD0002B4CD0ED186B019ED5314BFB
:10070C0007362E4001241D4054E7012318E7FF282B
:10071C00DFD08024E4047F4225431B2F4DDC2026B0
:10072C00F61B2C00B540FC406A1E95412543ED1884
:10073C00040006E7002DCCD0002B00D153E780211C
:10074C006046C903084203D04046084200D11D0050
:10075C000121114047E7002B00D1B9E6EA1A5001FC
:10076C0025D507265D1B2E40894623E7FF24002B49
:10077C0000D1ADE680226046D203104204D0404640
:10078C00104201D11D00894601224B46FF241A401C
:10079C009EE62B00DD080A0000249DE67A1CC6D0DC
:1007AC00FF43FF28B9D11D001DE701253FE7151EAA
:1007BC0000D044E70022002391E60125B7E7C046AC
:1007CC00FFFFFF7DFFFFFFFBF8B557464E46454642
:1007DC00DE464402E0B546008846640A360EC70F72
:1007EC00002E63D0FF2E24D08023E400DB041C43B6
:1007FC00002399469B467F3E434642465D02D20FFC
:10080C005B006D0A1B0E9046924665D0FF2B55D0AF
:10081C0080220021ED00D2047F3B1543F61A43469B
:10082C004A467B400F2A00D98DE06D4892008258D1
:10083C009746002C54D108239946063BFF269B462D
:10084C00DAE70025534602291BD0032900D1BFE06B
:10085C00012928D030007F30002820DD6A0704D021
:10086C000F222A40042A00D004352A0103D5300077
:10087C005C4A80301540FE2803DCAC01640AC2B22D
:10088C0001E0FF2200246402D205600ADB0710435A
:10089C0018433CBC90469946A246AB46F8BD012293
:1008AC00101A1B287CDD00220024ECE7002C1DD143
:1008BC0004239946033B00269B469DE7FF3E002DF3
:1008CC0020D1022143464A467B400A430F2AD8D8FE
:1008DC004548920082589746002D19D10121F1E725
:1008EC000C239946093BFF269B4685E7200002F026
:1008FC001BF87626431F9C4000237642361A9946F5
:10090C009B4679E74A4603231A439146032186E71F
:10091C00280002F009F8431F36189D407636002156
:10092C007DE780240023E403FF22ACE7002580232D
:10093C00DB031C4228D01D4226D12B435C02640AE7
:10094C004346FF229FE762016C01A24224D21B2185
:10095C000025013E012710006D005200002801DB2C
:10096C00944201D8121B3D4301390029F3D11400E4
:10097C00621E944125436DE7BA46594625005346FD
:10098C00022900D061E77CE78023DB031C4364026F
:10099C00640A3B00FF2276E7121B1A210125D9E7D6
:1009AC009E362A00B5402C00C240651EAC41144353
:1009BC00620704D00F222240042A00D004346201C2
:1009CC0003D4A401640A00225DE7012200245AE743
:1009DC008024E4032C436402640AFF2253E7C046DC
:1009EC0060150108FFFFFFF7A015010870B5420064
:1009FC004E024C0045026D0A120EC30F760A240EED
:100A0C00C90FFF2A0FD0FF2C11D00120A24200D019
:100A1C0070BDB542FCD18B420DD0002AF8D1280014
:100A2C00451EA841F4E70120002DF1D1EBE7012090
:100A3C00002EEDD1E9E70020EAE7C04670B54A0088
:100A4C004E02450244006D0A240EC30F760A120EA4
:100A5C00C90FFF2C15D0FF2A0ED0002C15D1002A5F
:100A6C0001D1002E1CD0002D14D08B4227D0022097
:100A7C00013B1840013870BD002EEED002204042E0
:100A8C00F9E7002DFAD1FF2A0ED0002A0ED1002E44
:100A9C00EDD00BE001230139994308000130EAE75E
:100AAC000020002DE7D0E2E7002EE7D18B42DED10B
:100ABC00944205DD0221581E08400138DBE7002472
:100ACC00A24204DCB542D2D80020B542D3D2581E83
:100ADC00012398430130CEE730B5420044024D0269
:100AEC00C30F4800640A120E6D0A000EC90FFF2ACC
:100AFC0012D0FF280CD0002A12D1002819D1002DB9
:100B0C0017D1002C2BD00220013B1840013826E0D5
:100B1C00002DF0D0022022E0002CFBD1FF281FD0AA
:100B2C0000281FD1002D1DD10220013B1840013897
:100B3C0015E0002C0ED08B42E5D10022904204DC53
:100B4C00AC42E0D80020AC4209D2581E0123984395
:100B5C00013004E00123013999430800013030BD14
:100B6C00002DD7D18B42CED18242E7DD0221581E17
:100B7C0008400138F3E7C046F0B54E4657464546A7
:100B8C00DE46E0B543025B0A450083B00F1C994674
:100B9C002D0EC60F002D57D0FF2D24D08020DB004A
:100BAC00C0041843002381469A469B467F3D7C0235
:100BBC007A00FB0F640A120E984623D0FF2A4BD002
:100BCC00E30080240020E4047F3A1C43AD186B1C26
:100BDC0047460193534677403A000F2B48D87D493E
:100BEC009B00CB589F46002B00D085E008339A46DB
:100BFC00063B9B467C027A00FB0FFF25640A120E13
:100C0C009846DBD1002C00D090E0524601231A43C9
:100C1C0092460120DBE74C4658461700022824D0A8
:100C2C00032800D1CFE00022002301284DD1580227
:100C3C00D205400AFF071043384303B03CBC904632
:100C4C009946A246AB46F0BD002B5BD104239A46D5
:100C5C00033B00259B46AAE7FF35002C60D152468A
:100C6C0002231A4392460220B1E7FF220023DEE75B
:100C7C004B461B0C9C464B462604360C180461460E
:100C8C003300220C6446000C43434E435043544300
:100C9C0080191A0C1218964203D9802149028C46ED
:100CAC0064441B041B0C1004C01883015E1EB3416A
:100CBC00800E1843130C1B199B0103431C002301CA
:100CCC0079D5012362081C401443019A7F32002A13
:100CDC004DDD630704D00F232340042B00D00434D4
:100CEC00230103D53C4B019A1C408032FE2ABCDC0C
:100CFC00A3015B0AD2B29AE70C239A46093BFF2563
:100D0C009B4654E7180001F00FFE4A46431F762518
:100D1C009A4000236D4291462D1A9A469B4646E70F
:100D2C00524603231A439246032050E7200001F059
:100D3C00FBFD431F2D1A9C40763D002047E7802386
:100D4C000027DB03FF2272E7424666E74C4632007F
:100D5C00584662E780234A46DB031A4222D01C42E3
:100D6C0020D123435B025B0A4746FF225FE7012346
:100D7C009A1A1B2A21DC23000199D3409E318C4006
:100D8C001A0023005C1EA34113435A0704D00F2200
:100D9C001A40042A00D004335A0111D49B015B0A77
:100DAC00002244E780234A46DB0313435B025B0AC1
:100DBC003700FF223BE7019587E70022002336E747
:100DCC000122002333E78023DB0323435B025B0A0E
:100DDC00FF222CE7E0150108FFFFFFF770B5002894
:100DEC003DD0C317C5185D40C40F280001F09CFD11
:100DFC009E22121A962A07DCD2B2082833DD083854
:100E0C0085406802400A23E0992A0BDD052329005E
:100E1C001B1AD94003001B339D402B005D1EAB41B8
:100E2C0019430D00052801DD431F9D402B000F4980
:100E3C000B406E0709D00F263540042D05D0043326
:100E4C005D0102D59F220B40121A9B01580AD2B2A7
:100E5C004002D205400AE4071043204370BD002431
:100E6C0000220020F4E76802400AF1E7FFFFFFFBD5
:100E7C00F0B54F464646D6460C000903C0B5490AA4
:100E8C00470F5E0039431F03DB0F9C4665007B0A4E
:100E9C00570F1F436D0DE40F760DA146C000B846E9
:100EAC00D200AB1B64457BD0002B5FDD002E00D045
:100EBC00A4E03E00164300D112E15E1E002E00D0CD
:100ECC009EE1871A4346B84280410125C91A404227
:100EDC00091A0B0200D431E149024E0A002E00D14E
:100EEC006EE1300001F020FD0300083B1F2B00DDFC
:100EFC0061E120223900D21A9E40D1409F400E431E
:100F0C009D4200DD51E15D1B6B1C1F2B00DD7CE164
:100F1C002021C91A3D0030008F408840DD40791EE9
:100F2C008F41310007222843D940002507433A401E
:100F3C00002A09D00F233B40042B05D03B1DBB429C
:100F4C00BF417F42C9191F000B0200D426E26A1C64
:100F5C00C64B55056D0D9A4200D106E1C44AFF08F7
:100F6C000A40530752023B43120B8EE0002B00D079
:100F7C00B8E06B1C5B055B0D012B00DC30E1871AC4
:100F8C004346B842B641CB1A76429E1B330200D57B
:100F9C004CE13B003343A1D100220024002570E03A
:100FAC00002B00DCE5E0002E00D183E0AF4EB54213
:100FBC0060D0802636043743B846382B00DC3EE13F
:100FCC00434613431F007A1E97413F1887428041C6
:100FDC00404209180B0200D4B0E0A44B01359D42ED
:100FEC0000D1C3E0A24A7B080A4001210F401F43F5
:100FFC005108D30707221F433A4099E79B4EB5424D
:10100C0038D0802636043743B846382B00DDDCE078
:10101C001F2B00DC30E11E004746203EF740BC464B
:10102C00202B04D04026F31A46469E40324317002C
:10103C0063467A1E97411F43CCE0002B00D104E29B
:10104C004346134300D159E14B07C0081843802392
:10105C00C9081B03194208D04546ED081D4204D1AE
:10106C004346D008590708432900420FC9007F4D59
:10107C001143C0004B07CA087C49C00803438D428A
:10108C0068D012036D05120B6D0D002112031800B0
:10109C00130B0A0D12051A43764B2D0513402B43E7
:1010AC005B00E4075B08234319001CBC904699467F
:1010BC00A246F0BD3E00164312D05E1E002E00D09C
:1010CC0000E18718874280414144404209180125BC
:1010DC000B0233D5022585E76446330041461000E8
:1010EC001D00C7E7002D00D0DAE00C000443F3D05C
:1010FC005C1C00D19FE15D4CA64200D12FE1DB438B
:10110C00382B00DD66E11F2B00DD83E12024050078
:10111C00E41A0F00DD40D940A0404346A7405B1ABB
:10112C00441EA04198462F433843171ABA429241A5
:10113C0043465242991A64463500CAE607223A40A1
:10114C00002A00D0F6E64B07CA084849FF083B4383
:10115C008D4296D11900114300D19EE180210903E3
:10116C000A431203120B414D8FE715000022002396
:10117C008BE7002B00D0C7E06B1C5F057F0D012FA8
:10118C0000DCF1E0394DAB4200D1B9E085180A0022
:10119C00854289414244494251180722CF076D08C4
:1011AC002F4349083A401D00C2E607223049ED1A88
:1011BC0031403A40BCE63E002838864000279FE686
:1011CC00380001F0B1FB20308EE6434613431F007C
:1011DC007A1E9741C71BB84280414042091A78E6F3
:1011EC000E003B0006431343002D61D1002E00D0AE
:1011FC00F4E0002B00D11BE164463900100039E704
:10120C001A4FBB427AD03300FFE630001F3DE84056
:10121C00202B03D04021CB1A9E4037437B1E9F418D
:10122C00072207433A400021002589E7171A434655
:10123C00BA42B641591A76428E1B64464EE61F2BB3
:10124C0000DDADE020264746F61AB740B946170038
:10125C00B246DF404E463E4337005646B240561E1D
:10126C00B24117434246DA408918AEE6FF07000048
:10127C00FFFF7FFFFFFF0F8020264746F61AB7407F
:10128C00B9461700B246DF404E463E43370056463D
:10129C00B240561EB24117434246DA40891A99E7CA
:1012AC007F4CA6425BD0802424045B42214327E779
:1012BC00002E0CD1002B00D1CBE06446390010007D
:1012CC00774DD7E6764FBB4218D0330075E6002B2E
:1012DC0014D04B07C00818438023C9081B031942BC
:1012EC0007D0FC081C4204D17907D0080843E1461A
:1012FC0021004C46420FC9001143C000684DB9E6AD
:10130C001D0000220023C0E6002D5BD10D0005431B
:10131C0000D1E2E65D1C00D1B0E0614DAE421FD0C1
:10132C00DB43382B71DC1F2B00DD96E020250F00F2
:10133C00ED1AAF40B9460700AA46DF404D463D4383
:10134C002F005546A840D940451EA8418844074364
:10135C00BF18974292415142414435003AE66446E7
:10136C0035004146100085E60B000343002D00D0EC
:10137C0063E6002BF5D04346134300D17AE6871879
:10138C008742804107224144404209183A400B02EF
:10139C0000D4D5E6434B01351940C9E5380069E660
:1013AC001E004746203EF740BC46202B04D040266A
:1013BC00F31A46469E403243170063467A1E974105
:1013CC001F4302E6364DAE42CAD080252D045B4247
:1013DC002943A6E70843411E8841A6E6002B00D10D
:1013EC0048E6871A4346B842B641CB1A76429E1B52
:1013FC0033024BD5171A4346BA429241591A5242FC
:10140C00891A072264463A4092E501430F00791E7F
:10141C008F419DE71C000F00203CE740202B03D0A0
:10142C004024E31A99400843411E884138437CE626
:10143C000022002425E6171A4346BA429241591A53
:10144C005242891A6446350043E541461000144D5A
:10145C0010E680220024120380E61D000F00203DC0
:10146C00EF40BC46202B03D04025EB1A9940084393
:10147C0007006346781E87411F4369E78718974228
:10148C009B4141445B42C9183500A3E53B00334303
:10149C00CED0072231003A4052E600231A00F4E580
:1014AC00FF070000FFFF7FFFF0B55746DE464E46B4
:1014BC004546E0B5834607000E03480085B09246CA
:1014CC001C00360B400DCD0F002800D19DE0954B34
:1014DC00984239D08023F6001B041E43924A7B0F9E
:1014EC00334399469446030063440093002300263B
:1014FC00FF00029323031B0B98466300E40F524634
:10150C005B0D019400D1B3E086498B4200D19EE083
:10151C004246D100802212040A435146490F11431E
:10152C008B46814952468C4600996344CB1A002164
:10153C00D20000932B0063409A460F2E00D905E190
:10154C007A4BB6009B599F465B463343994600D075
:10155C00B8E002230826002700900293CAE7CB4686
:10156C003A0002990195019B9A46022927D003293A
:10157C0000D180E2012944D06D49009B8C46634424
:10158C001C00002C38DD530700D013E2D2085B4658
:10159C00DB0109D55946674B19408B468021C900A0
:1015AC008C46009B63441C00634B9C4207DC5B46EF
:1015BC0064055F075B0217431B0B620D02E00023FF
:1015CC000027584A00211B031C0B0B0D1B05234342
:1015DC0014055A4A380013401C4353466400DB0779
:1015EC0064081C43210005B03CBC90469946A246B9
:1015FC00AB46F0BD0122524201231B1B382B00DCF1
:10160C00ADE1002200230027DCE75B46334399461B
:10161C005ED0002E00D18AE1300001F085F9030084
:10162C000B3B1C2B00DD7BE11D22D31A5A4601001B
:10163C00DA4008398E4013005F46334399468F4099
:10164C003F4B00261B1A00930023029352E741469E
:10165C0053460B433B499B468C46009B634400938B
:10166C005B46002B3BD1022300221E43022161E783
:10167C00434613439B4637D04346002B00D162E1CF
:10168C00404601F051F903000B3B1C2B00DD53E1EC
:10169C0002004146083A914088461D21CB1A51461A
:1016AC00D9400B0041460B439B46534693401A00CE
:1016BC00009B25499C46604403008C466344009380
:1016CC00002137E70323B14600900C26029311E763
:1016DC000023009301330426002702930AE7032317
:1016EC00C3461E43032125E701331E43002201217B
:1016FC0020E700239A46802300271B03094A61E751
:10170C00802349461B03194200D1E2E05946194295
:10171C0000D0DEE00B431B0317001B0BA246014A53
:10172C0050E7C046FF07000001FCFFFF2016010830
:10173C00FF030000FFFFFFFEFE070000FFFF0F800E
:10174C000DFCFFFF01F8FFFFF3030000D94500D9A2
:10175C00CBE000D1C6E03C0048460027009B013B93
:10176C0000935B46160E1B021E431302984633046D
:10177C001B0C9946310C0191FEF744FD4A4642433D
:10178C000B04210C050019438A4207D98919013D24
:10179C008E4203D88A4201D9851E8919881A01996B
:1017AC00FEF730FD09048C464A4621046446424348
:1017BC00090C030021438A4204D98919013B8E424A
:1017CC0000D8F1E02D041D43AB464346891A42462E
:1017DC00280C12041D0C5B46140C22001B041B0C61
:1017EC005A4303946B434443029568431B19150CED
:1017FC00EB189C4203D980246402A44660441C0C60
:10180C0015041B042D0C20185D19814277D373D05D
:10181C000C1AA24A7D1BAF42BF419446009B7F42EB
:10182C006344E01B1C00864200D1DBE00199FEF70B
:10183C00E9FC4A4642430B04290C070019438A422F
:10184C0007D98919013F8E4203D88A4201D9871ED4
:10185C008919881A0199FEF7D5FC09044A4689466C
:10186C0029044D464243090C030029438A4207D9F7
:10187C008919013B8E4203D88A4201D9831E8919EA
:10188C003F04891A3A00039F1A43380013041B0CB7
:10189C00584381460298150C6F43434345434846D1
:1018AC00000C8446DB1963449F4203D9802040021C
:1018BC008446654448461F0C00041B04000C7D192B
:1018CC001818A94200D284E000D17FE001231A430A
:1018DC0057E680234A461B0313431B031B0BAA46E4
:1018EC006F4A6FE6BA4200D935E74B46DC07580819
:1018FC007B081C43FF0734E70024AF4289D24744DE
:10190C004745A4415B466442A4196418013BA642B6
:10191C001ED2A0426DD800D1B6E0241A9B4678E7BF
:10192C0003005A46283B9A400027914688E65846C1
:10193C0000F0FAFF203072E603005246283B9A4032
:10194C0093460022B4E6504600F0EEFF20309AE6B3
:10195C00A642E2D1B845DCD9341A9B4659E71F2B75
:10196C0065DC504C0099A4465C46614408008C40F0
:10197C0011008240D940501E82410C4314435A46F8
:10198C00DA401300620709D00F222240042A05D046
:10199C002200141D9442894149425B181A0262D5F7
:1019AC000122002300270DE68A4200D80AE7831E95
:1019BC00891907E70F231340042B00D1E6E5171D07
:1019CC009742924153429B44FA08E0E5002800D12B
:1019DC00D7E57118531EB14227D3A94215D358D05D
:1019EC001A0073E7002B00DC04E6012300229B4461
:1019FC00CDE502234744474589415B429C46494219
:101A0C0089190C19E344241A03E743465F00474540
:101A1C009B41B8465B429E19023A8919A94200D0F3
:101A2C0054E7404500D051E7ABE51A00F6E71F211B
:101A3C005F4649420C1BE740202B07D01A49009BFC
:101A4C008C46634418005B4683401A43501E824107
:101A5C003A4307270023174009D00F2100231140D8
:101A6C001400042995D122005F075B021B0BD208DE
:101A7C0017430022A6E5802359461B030B431B0387
:101A8C0017001B0B064A9DE5BD42B2D89B460024AD
:101A9C00BFE68045B9D31A00C3E7C046FF03000078
:101AAC00FF0700001E0400003E040000F0B557467E
:101ABC00DE464E464546E0B5834606000F03480019
:101ACC0087B092461D003F0B400DCC0F002800D173
:101ADC006FE0DE4B984238D08023FF001B041F437D
:101AEC00730F3B430193DA4B0027994600239B4627
:101AFC00F60081442B0369001B0B52469846490D96
:101B0C00ED0F002900D185E0D04B994200D173E054
:101B1C004346DA0080231B0413435246CC48520F31
:101B2C0084461343524600206144D200894421006C
:101B3C00694000918C46012149448A460F2F00D9F7
:101B4C0090E0C449BF00CF59BF465B463B4301936D
:101B5C0000D06AE102230827002681469B46C9E78C
:101B6C0032005846019B61460091022800D175E075
:101B7C00032800D1FEE1012800D02CE1002300272E
:101B8C00002600253F032A0D3F0BB34812053A43AC
:101B9C0002401B051343009A5B00D1075B080B4303
:101BAC003000190007B03CBC90469946A246AB46A3
:101BBC00F0BD5B463B43019300D12FE1002F00D1D8
:101BCC00A5E1380000F0B0FE03000B3B1C2B00DD40
:101BDC0096E11D22D31A5A460100DA405E460839B6
:101BEC008F4013008E403B4301939C4B00271B1AE4
:101BFC00994600239B467DE7414653460B43934948
:101C0C008C46E144002B00D01AE10222022017433B
:101C1C0000228CE7134300D10DE14346002B00D189
:101C2C0081E1404600F080FE02000B3A1C2A00DDE8
:101C3C0072E10100434608398B4098461D239A1ADD
:101C4C005346D3401A004346134352468A404946F2
:101C5C00081A824989468144002068E77B4B00279B
:101C6C0000268EE7140C1204120C1100370C3604EB
:101C7C00350C794328008C462E0060436044834623
:101C8C0056432100300C804658467943404402911B
:101C9C00844506D98846802149028C46E044414659
:101CAC0002913604010C360C00048B4681191E0C73
:101CBC001B041B0C0391190079438C4628007543B7
:101CCC006544A8465843050C45447743A94203D9BB
:101CDC00802149028C466744290C8C46390000044B
:101CEC00000C2D042D186144AB4405915946049108
:101CFC0001990F043F0C080C3900514342439046A4
:101D0C0002008C46090C8B4662437C4344445C4481
:101D1C00A04503D98021490288464244210C8846BB
:101D2C0061460904090C8C463900594343437043FE
:101D3C007E430F0CF6182404BE19644442448C46AE
:101D4C00B34203D980235B0298464044029B614610
:101D5C009846049B370443449B46AB45AD416B42CC
:101D6C000D0405992D0C8C467F196744FD18A84667
:101D7C005D462D19A542A44193466442A446C34432
:101D8C00DC448F42BF4198459B4193459241A44509
:101D9C00A4415B427F421F43360C52426442BF193E
:101DAC002243BF18624638184302D20D03991343DD
:101DBC006A020A43501E82416146ED0D2A434E02CF
:101DCC003243D90100D4B3E001265008324002431B
:101DDC00DE0732435B08224C5444002C62DD510771
:101DEC0009D00F201040042805D0101D90429241BC
:101DFC0052429B180200D90104D580241948E400F2
:101E0C00034054441848844200DD27E75E075B0218
:101E1C00D2081F0B630516435B0DB2E600239946EF
:101E2C000133042700269B4664E603230197814671
:101E3C000C279B465EE6012201201743002276E622
:101E4C00032303201F43434671E6C046FF070000EF
:101E5C0001FCFFFF60160108FFFF0F800DFCFFFF68
:101E6C00FF030000FFFFFFFEFE070000002380279A
:101E7C0000933F030026434B83E6019B3200A446AC
:101E8C00584670E6AC466EE6802701993F0339420E
:101E9C002DD03B422BD11F433F033F0B0095160027
:101EAC00384B6EE601252D1B382D00DD66E61F2D07
:101EBC0040DC35481C005044160082408440EE4003
:101ECC00501E824134431443EB40620709D00F2269
:101EDC002240042A05D02200141D94428041404225
:101EEC001B181A023ED501230027002649E680273D
:101EFC00019B3F031F433F033F0B0094214B40E6E4
:101F0C0003005A46283B9A40002601926DE658463B
:101F1C0000F00AFD203057E603005246283B9A4059
:101F2C001300002293E6504600F0FEFC20307BE6C6
:101F3C00CA4650E71F201E004042041BE640202DDD
:101F4C0003D0124C5444A3401A43501E82413243D6
:101F5C0007260027164009D00F200023104014003C
:101F6C000428B9D122005E075B021F0BD20816436E
:101F7C00002306E680273F031F433F033F0B160059
:101F8C00004BFEE5FF0700001E0400003E040000AD
:101F9C00F8B557464E464546DE460C000903E0B5FB
:101FAC00490A460F5F0031431E03DB0F760A9B463E
:101FBC00530F3343C84E6500C000E40FD2006D0DC3
:101FCC00A24681467F0D9C469046B74200D1B9E0AF
:101FDC005B46012673409B46EE1BA34500D183E074
:101FEC00002E63DD002F00D0B1E06346134300D117
:101FFC0023E1731E002B00D0BAE1861A6346B0426F
:10200C0080410125C91A4042091A0B0200D447E14C
:10201C0049024B0A98464346002B00D189E14046C1
:10202C0000F082FC0300083B1F2B00DD7CE120222A
:10203C003000D21A4146D040994002009E400A43DB
:10204C009D4200DD6AE15D1B6B1C1F2B00DD94E1E2
:10205C00202110003500C91A8E40DA408840DD403E
:10206C00711E8E4111000722284300250643324081
:10207C00002A09D00F233340042B05D0331DB34263
:10208C00B641764289191E000B0200D43DE26A1C4F
:10209C00914B55056D0D9A4200D119E18F4AF60806
:1020AC000A40570752023743120B9BE0002E00D018
:1020BC00C5E06E1C7605760D012E00DC48E1674606
:1020CC00861ACB1BB042BF417F42B8461F00434625
:1020DC00FF1A3B00B8461B0200D55FE137439AD18B
:1020EC0000220024002579E0002E00DCFAE0002F0D
:1020FC0000D18DE0784B9D4267D0802367461B044E
:10210C001F43BC46382E00DC52E1634613435A1E73
:10211C0093411E1886428041404209180B0200D49C
:10212C00BEE06D4B01359D4200D1D2E06B4A730885
:10213C000A4001210E401E435108D30707221E43BB
:10214C00324095E71E00164300D045E740E7624B4E
:10215C009D423AD0802367461B041F43BC46382E51
:10216C0000DDEBE01F2E00DC3AE133006746203B3C
:10217C00DF403B00202E05D04027BF1B6646BE40EB
:10218C00324390464646721E96413343DAE0002BAA
:10219C0000D114E26346134300D168E180234E075B
:1021AC00C008C9081B030643194208D06046C00882
:1021BC00184204D163460100D2085E071643F300AF
:1021CC009946C900720F444D11434B46DE08424BF1
:1021DC004F073743CA089D4200D16EE012036D05CC
:1021EC00120B6D0D00211203130B0A0D12051A436D
:1021FC003B4B2D0513402B435B00E4075B0823434B
:10220C00380019003CBC90469946A246AB46F8BD36
:10221C006346134311D0731E002B00D007E18618C0
:10222C008642804161444042091801250B0237D592
:10223C0002257BE73E00614691463500C5E75C46CA
:10224C00002D00D0E1E00B000343F3D0731C00D150
:10225C00ACE1214B9F4200D13AE1F343382B00DD36
:10226C006FE11F2B00DD8CE120250E00ED1AAE4036
:10227C00B0460600AA46DE40454635432E0055467C
:10228C00D940A8406346451EA8415B1A9C46304382
:10229C00161AB242924163465242991A3D00B4E674
:1022AC0007223240002A00D0E4E60B4BF6084F0719
:1022BC003743CA089D4200D090E73B00134300D13E
:1022CC00A6E180231B031A431203120B024D89E76C
:1022DC0015000022002785E7FF070000FFFF7FFFA6
:1022EC00FFFF0F80002E00D0C7E06B1C5E05760D43
:1022FC00012E00DCF0E0C84DAB4200D1B9E08518EE
:10230C000A00854289416244494251180722CE078E
:10231C006D082E43490832401D00A9E6BF49ED1A4D
:10232C00114007223240A3E63200283882400026B2
:10233C0086E6300000F0F8FA203073E6634613436B
:10234C005A1E9341C61AB04280414042091A5CE6BB
:10235C000E00674606431743002D5ED1002E00D0B9
:10236C00F3E0002F00D11EE15C46614691462CE75C
:10237C00A94FBE427BD01E00F1E610001F3DE84085
:10238C00202B03D04021CB1A9A401643731E9E413A
:10239C000722064332400021002583E7161A6346C4
:1023AC00B2428041591A40420B1A98465C4632E6BA
:1023BC001F2E00DDABE02027BB1B9A466346574619
:1023CC00BB40994613004F46F3401F433B00574612
:1023DC00BA40571EBA4113436246F240891898E638
:1023EC002027BB1B9A4663465746BB4099461300B1
:1023FC004F46F3401F433B005746BA40571EBA4165
:10240C0013436246F240891A9CE7834B9F425FD08C
:10241C0080252D047342294320E7002E0CD1002F78
:10242C0000D1D0E05C46614691467B4DCDE67A4FBB
:10243C00BE421CD01E0065E6002F18D0C0084E0707
:10244C0006438020C9080003014208D06346DC081B
:10245C00044204D12100DA46D2085E071643F30089
:10246C00994601245346C900720F11431C406A4D12
:10247C00ABE61D0000220027B4E6002D59D10B005D
:10248C00034300D1D6E6731C00D1B2E0624B9F42ED
:10249C001ED0F343382B6FDC1F2B00DD97E020257B
:1024AC000E00ED1AAE40B0460600AA46DE40454688
:1024BC0035432E005546A840D940451EA8418C44B2
:1024CC000643B61896429241514261443D0025E6BE
:1024DC003D006146914678E60B000343002D00D089
:1024EC0055E6002BF5D06346134300D16DE68618F4
:1024FC008642804161444042091800220B0200D4FC
:10250C00D0E6464B01351940B2E5B1465DE63300E5
:10251C006746203BDF403B00202E05D04027BF1BE9
:10252C006646BE40324390464646721E9641334341
:10253C00EFE5394B9F42CBD080252D0473422943C4
:10254C00A8E70843411E8841A2E6002F00D13CE6D3
:10255C006346861ACF1AB0429B415B42FB1A9846DF
:10256C001B024ED5161A6346B2429241591A524278
:10257C00891A5C4600227BE501430E00711E8E41D8
:10258C009FE71D000E00203DEE40B046202B04D0EE
:10259C004025EB1A99400843814648464346411E64
:1025AC008841184374E60022002417E6161A634685
:1025BC00B2429241591A5242891A3D0025E56146B0
:1025CC009146154D01E680220024120379E61D0088
:1025DC000E00203DEE40B046202B04D04025EB1AD7
:1025EC009940084381464E464346711E8E411E4318
:1025FC0067E7861896429B4161445B42C9183D00CF
:10260C008CE547463743CED007224146324049E657
:10261C0000273A00E6E5C046FF070000FFFF7FFFFA
:10262C0030B5144D0A034B00120B5B0DC90F00247F
:10263C00AB4211DD104CA34210DC80246403224316
:10264C000E4CE41A1F2C0CDD0D48C31ADA40130093
:10265C005C42002900D11C00200030BD094BCC1875
:10266C00FAE7094DE040AC4663449A40130003433B
:10267C00EEE7C046FE0300001D040000330400001A
:10268C0013040000FFFFFF7FEDFBFFFF70B5002878
:10269C002DD0C317C5185D40C40F280000F044F9B5
:1026AC00154B1B1A5B055B0D0A2815DD0B38854095
:1026BC0000222D032D0B002110002D030A0D2D0BD4
:1026CC0012052A430D4D1B052A4013435B00E407FA
:1026DC005B082343190070BD02002900153291409C
:1026EC000A000B21081AC5402D032D0BE3E700242B
:1026FC00002300250022DEE71E040000FFFF0F80F0
:10270C004100090E4B1C70B5DBB24602750AC40FB2
:10271C00012B14DDE0239B006D07360BCB18002139
:10272C000A0D280012051C4D32435B052A405B083C
:10273C0013435B00E4075B082343190070BD0029B9
:10274C0014D1002D1ED0280000F0EEF80A281CDC55
:10275C000B232A001B1ADA40030015339D400F4B44
:10276C0012031B1A5B05160B5B0DD8E7002D06D068
:10277C00320B802636036D071643094BCFE7084B07
:10278C000026CCE700230026C9E703002A000B3BF8
:10279C009A400025E3E7C046FFFF0F808903000045
:1027AC00FF070000F0B54C00640D0B03621C5B0AC4
:1027BC00460F5205C90F1E43C500520D012A29DDD3
:1027CC00374BE718FE2F1CDC002F3BDD8001431E2E
:1027DC0098410722F3006D0F03432B431A40002A44
:1027EC0004D00F221A40042A00D004338022D204D1
:1027FC001A4024D00137FAB2FF2F02D09B01580A9D
:10280C0001E0FF2200204002D205400AC907104314
:10281C000843F0BD3543002C04D1002D0AD1002211
:10282C000020F0E7002DECD08020C0033043FF22C5
:10283C00E9E7002400235B02580AE2B2E3E7DB0875
:10284C003C00F8E73B001733F3DB80231B043343D6
:10285C001E26F61B1F2E14DD02225242D71B1A0015
:10286C00FA401700202E04D00E4A94466444A3402C
:10287C001D432B005D1EAB4107223B431A40002732
:10288C00ADE7094A2800A218954093406C1EA5415B
:10289C00F04007222B4303431A4000279FE7C04612
:1028AC0080FCFFFFA2FCFFFF82FCFFFF8446101C94
:1028BC0062468C46191C634600E0C0461FB500F00A
:1028CC00F1F8002801D40021C8421FBD10B500F05A
:1028DC0049F84042013010BD10B500F0E3F8002873
:1028EC0001DB002010BD012010BDC04610B500F06A
:1028FC00D9F8002801DD002010BD012010BDC04614
:10290C0010B500F06BF8002801DC002010BD012090
:10291C0010BDC04610B500F061F8002801DA0020A7
:10292C0010BD012010BDC0461C2101231B04984280
:10293C0001D3000C10391B0A984201D3000A083944
:10294C001B09984201D30009043902A2105C4018FB
:10295C007047C0460403020201010101000000009F
:10296C0000000000F0B54F464646D6468446C0B53A
:10297C008046194E18030F034D00000B5C00824675
:10298C003F0B6D0DC90F9146640DDB0F0120B54255
:10299C000AD0B44203D0A54201D157450CD01CBC7F
:1029AC0090469946A246F0BD66463E43F7D1AC42EE
:1029BC00F5D154461443F2D10120C845EFD19942C8
:1029CC0007D0002DEBD163461F433800471EB8419A
:1029DC00E5E70020E3E7C046FF070000F0B54F46EF
:1029EC004646D6464D00C0B50E03C90F8A462C4943
:1029FC001F035C008046360B6D0D91463F0B640D3A
:102A0C00DB0F8D421ED08C4216D0002D1ED13043D0
:102A1C008446002C01D13A4323D06246002A1AD0B6
:102A2C009A4529D0514602200139084001381CBC76
:102A3C0090469946A246F0BD39001143E5D00220DC
:102A4C004042F4E73043FAD1AC420FD0002C0FD106
:102A5C003A43E7D00CE00122013B934318000130CC
:102A6C00E5E763460020002BE1D0DBE73A43E6D1F3
:102A7C009A45D7D1A542D5DCA54205DBBE42D1D8BB
:102A8C0008D00020BE42D2D25046012301389843D0
:102A9C000130CCE7C845C5D80020C845F4D3C6E7FB
:102AAC00FF070000F0B54F464646D6464D00C0B570
:102ABC000E03C90F8A462E491F035C008046360B55
:102ACC006D0D91463F0B640DDB0F8D4218D08C427F
:102ADC0011D0002D18D130438446002C1ED13A431E
:102AEC001CD163460020002B30D051460220013906
:102AFC00084001382AE039001143EAD0022025E0D1
:102B0C003043FBD1AC4226D0002C26D13A4324D101
:102B1C005146022001390840013817E06246002A6C
:102B2C000FD09A45E1D1A54205DBBE42DDD819D0C4
:102B3C000020BE420AD2504601230138984301308E
:102B4C0004E00122013B9343180001301CBC904669
:102B5C009946A246F0BD3A43D0D19A45C5D1A5427B
:102B6C00C3DCE0E7C845C0D80020C845E3D3EDE797
:102B7C00FF0700007047C0460221024A13688B43CE
:102B8C001360704710E000E00221024A13680B4307
:102B9C001360704710E000E0F8B5041E00D176E039
:102BAC00836B002B69D0A36BDB0605D510220120AB
:102BBC00A36B1343A363F8BD042023689A681040E9
:102BCC00F4D1A26B47490A400631FF310A43A26394
:102BDC00032299680A40012A74D01821DA688A43C2
:102BEC00A1680A43DA601A696168920092080A4384
:102BFC001A61DA683C490A40DA60217E627E8903F8
:102C0C00D2031143A26AA67E013A551EAA411503AE
:102C1C00E2687703114322693943022A00D1042068
:102C2C002422A25C52000A43E17E2A43024301297A
:102C3C0042D0C220E169FF30814202D0206A0143B8
:102C4C000A43D968E56A1143D960802149058D4250
:102C5C001FD0691E06291CD9DB6824490B409342FE
:102C6C0020D01222A36B01209343023A1343A36397
:102C7C00E36B0F3A1343E3639DE73422C36383543E
:102C8C000EF044F8A36BDB0600D58FE794E7012028
:102C9C0091E70721586988435861586929400143D5
:102CAC005961D9E700230322E363A36B002093430C
:102CBC00023A1343A3637EE7002E0AD18021490216
:102CCC000A43B6E719680A4293D1DA68120490D421
:102CDC0083E72025A06B2843A063E06B0143E163ED
:102CEC00A7E7C046FDFEFFFF1902FEFFE7FF3F838B
:102CFC00042270B5036882B0996804000A4048D178
:102D0C003421405C012844D001206054617E0129AB
:102D1C0013D1A26B2D4900201140802252000A438E
:102D2C00A26334210022E26362541C321A609A6856
:102D3C0030390A439A6002B070BD0192996803322F
:102D4C000A40012A31D09968214A114223D101212C
:102D5C009A680A439A601F4B1F491868FDF7CCF913
:102D6C000190019B002B05D0019B013B0193019B22
:102D7C00002BF9D10EF050FB0125060004E00EF0FB
:102D8C004BFB801B022817D823681A681542F6D013
:102D9C00BFE70220CFE71022A36B01201343A363EC
:102DAC00E36B0F3A1343E363C5E719680A42B0D1EA
:102DBC00DA681204C7D5ACE71022A36B01201343C9
:102DCC00A363E36B1D43E563B5E7C046FEF0FFFF6D
:102DDC00170000800000002040420F00342370B523
:102DEC00C25C0400012A25D00122C25403680332BC
:102DFC0099680A4210D099680A4235D10EF00CFB42
:102E0C000425060004E00EF007FB801B02281ED8E8
:102E1C0023689A681542F6D1032299680A40012A60
:102E2C000AD0A36B234A002013400432FF32134311
:102E3C00A36315E0022070BD19680A4202D1DA685A
:102E4C001204EED5052299680A40012A14D01022EA
:102E5C000120A36B1343A363E36B0F3A1343E363A8
:102E6C0034230022E254E6E79A689207C6D4102174
:102E7C009A680A439A60C1E702219A6801250A43BD
:102E8C009A6003221A600EF0C7FA060004E00EF0F6
:102E9C00C3FA801B022804D823689B681D42F6D114
:102EAC00BFE71022A36B01201343A363E36B1D4305
:102EBC00E563D5E7FEFEFFFFF8B5436905000E009C
:102ECC00082B4ED003680C24DB68DB0740D40EF0D3
:102EDC00A3FA07002A68731C27D113681C42FCD084
:102EEC008023A96B9B000B43AB63C023D1681B01F0
:102EFC00194213D1AB7E002B10D113681B070DD5D3
:102F0C0093685B072FD40C2153688B435360AB6BD6
:102F1C0019490B400431FF310B43AB632B7E00206E
:102F2C00002B01D10C331360F8BD13681C42D7D1B0
:102F3C00002E04D00EF070FAC01BB042CAD9042285
:102F4C00AB6B03201343AB6300223423EA54EBE74F
:102F5C002022836B1343836300223423C254012049
:102F6C00E2E70824B3E72021AB6B0B43AB63EB6BBD
:102F7C001F390B43EB63D1E7FEFEFFFFF0B5C646EE
:102F8C00042300B50D00016816008A6882B00400A5
:102F9C0013405FD13422805C01285BD00120A05407
:102FAC00627E012A2BD001938A6803331340012BD4
:102FBC005CD08A68354B1A424ED101228B68134380
:102FCC008B60334B33491868FDF796F80190019BE1
:102FDC00002B05D0019B013B0193019B002BF9D1E8
:102FEC000EF01AFA0127804605E00EF015FA43465A
:102FFC00C01A022841D821680B681F42F5D0A36B78
:10300C00254A206B1A4080235B001343A3633422B0
:10301C000023E363A354214B243A8362204BC36205
:10302C00204B03631C230B604B6813434B60CB6832
:10303C000F3A1343CB602A004031330000F0B8FB49
:10304C0004210020226893680B43936002B004BCF7
:10305C009046F0BD0220F9E71022A36B0120134328
:10306C00A363E36B0F3A1343E363EFE70A6813427E
:10307C00C5D1CB681B049CD5C1E71022A36B0120E2
:10308C001343A363E36B1F43E763DFE71700008081
:10309C000000002040420F00FEF0FFFF313200081C
:1030AC00A5320008B5320008F8B53423C25C040020
:1030BC00012A32D00122C2540368033299680A42B1
:1030CC0010D099680A4238D10EF0A6F904250600F2
:1030DC0004E00EF0A1F9801B022821D823689A681D
:1030EC001542F6D10121DA68206B8A43DA6000F0D0
:1030FC009FFB051E29D1102123685A688A435A6008
:10310C00032299680A40012A41D0A36B414A13401B
:10311C000432FF321343A3630BE002252800F8BDF1
:10312C0010220125A36B1343A363E36B0F3A1343E4
:10313C00E36334230022E254F0E79A689207C3D485
:10314C0010219A680A439A60BEE740221021A36BB3
:10315C001343A36323685A688A435A60032299680D
:10316C000A40012AE5D119680A4202D1DA68120430
:10317C00DFD5052299680A40012A2FD01022A36BB3
:10318C001343A363E36B0F3A1343E363D1E719686B
:10319C000A4202D1DA681204B7D5052299680A40AE
:1031AC00012ABDD102219A6801260A439A600322A2
:1031BC001A600EF031F9070023689B681E42A4D0F8
:1031CC000EF02AF9C01B0228F6D91022A36B012598
:1031DC001343A363E36B1E43E663AAE702219A68D9
:1031EC0001260A439A6003221A600EF015F90700B3
:1031FC0023689B681E429CD00EF00EF9C01B02285F
:10320C00F6D91022A36B1343A363E36B1E43E6634F
:10321C008FE7C046FEFEFFFF0368186C7047C04680
:10322C007047C0465021436A10B59A6B114203D0C7
:10323C001B6B1B6B984710BD8022996B92000A4345
:10324C00C0219A631A680901D068084213D1997E8B
:10325C00002910D1116809070DD5916849070ED4C2
:10326C000C205168814351609A6B09490A40043122
:10327C00FF310A439A631800FFF7D2FFDBE72021E6
:10328C009A6B0A439A63DA6B1F390A43DA63F2E7E3
:10329C00FEFEFFFF7047C04610B5406AFFF7FAFF0D
:1032AC0010BDC0467047C0464022406A10B5836BC3
:1032BC0013438363C36B3C3A1343C363FFF7F2FFBF
:1032CC0010BDC0460422036870B5196804000A4298
:1032DC004AD059680A4247D0A26BD20604D4802245
:1032EC00A16B92000A43A263C022D9681201114259
:1032FC0013D1A27E002A10D11A6812070DD59A6834
:10330C00520744D40C215A688A435A60A36B244A4E
:10331C0013400432FF321343A3632000FFF780FFF6
:10332C000C2223681A6080251A68154202D05A684C
:10333C00154221D1102219680A4214D059680A4248
:10334C0011D0A26A012A02D0DA68D20709D502216B
:10335C00E26B20000A43E26310221A60FFF7A2FF1F
:10336C00236810221A6070BD082219680A42DAD04C
:10337C0059680A42D7D0AFE78023A26B5B02134394
:10338C00A36320000CF0DEF823681D60D2E7202236
:10339C00A36B1343A363E36B1F3A1343E363BCE7D1
:1033AC00FEFEFFFF00233422F0B583B00193835C53
:1033BC000400012B3ED00123C56A83540268906837
:1033CC00400709D520220120A36B1343A3633423A8
:1033DC000022E25403B0F0BD0E682D4F3000BC4605
:1033EC004F68B3401038674526D0976A3B439362C9
:1033FC0080235B059D420FD0013D062D0CD9072380
:10340C008D68516919408D4206D0516999435161BB
:10341C0051692B400B435361012801D90020D6E799
:10342C001C4B80221968102E1AD0D2030A431A6042
:10343C000020CCE70220CDE7916A994391620128E4
:10344C00ECD8411E884180214042C90308401249F2
:10345C00104B8C461A686044104018600020B6E788
:10346C0012040A431A600D4B0D491868FCF744FE10
:10347C008300181840000190019B002BCED0019BBB
:10348C00013B0193019B002BF9D100209FE7C04623
:10349C000110000008270140FFFF7FFF0000002003
:1034AC0040420F00342370B50200C05C01283AD0B2
:1034BC0001200C68D05413689868400708D5202167
:1034CC000120936B0B43936334230021D15470BDC3
:1034DC00D868184D184E2840D860DD6848682C43D1
:1034EC00800620430324D860D868CD68C0082040EB
:1034FC00400085402800DD680004ED082C400D6973
:10350C006400A5401C6A34401C621C6A2C43204396
:10351C00186280201860097A012906D05968814305
:10352C0059600020D0E70220D1E759680843586061
:10353C000020C9E7FFFF3F8300F000F0342370B593
:10354C00C25C0400012A4BD00122C254036802322F
:10355C0099680A40012A05D119680A422FD1DA6804
:10356C0012042CD4A26B1F490A400631FF310A43C6
:10357C00A263DE68DA6801318A43DA6080229968D6
:10358C0012060A439A600DF047FF050004E00DF0A7
:10359C0043FF401B022818D823689A68002AF6DBE0
:1035AC0003220020D96816400E43DE60A36B9343C0
:1035BC00023A1343A36334230022E25470BD202249
:1035CC00A36B01201343A363F5E71222A36B012025
:1035DC009343023A1343A36300223423E254EDE7EE
:1035EC000220EBE7FDFEFFFFFF22032330B51400A2
:1035FC00C5B22B40DB009C4089010A40E4439A4051
:10360C0000280BDB0C4B80089C46C02380006044D8
:10361C009B00C1580C402243C25030BD0F230749B8
:10362C002B408C46083B9B089B006344D9690C409B
:10363C002243DA61F1E7C04600E100E000ED00E072
:10364C00002805DB1F2318401E3B8340014A1360F2
:10365C007047C04600E100E000280ADB1F23184039
:10366C001E3B8340802203498B50BFF34F8FBFF327
:10367C006F8F704700E100E00A4A431E012093421D
:10368C000ED8C021084A09485360036A09061B0278
:10369C001B0A0B4303620023002093600733136063
:1036AC007047C046FFFFFF0010E000E000ED00E0B7
:1036BC00002807DB1F23C02218401E3B8340024911
:1036CC0052008B507047C04600E100E0054A136879
:1036DC00042803D004218B431360704718431060F7
:1036EC00FBE7C04610E000E07047C04610B5FFF79E
:1036FC00FBFF10BD70B5041E27D0212502234355B6
:10370C000068134A0368A1681A4063680B43E168B8
:10371C000B4321690B4361690B43A1690B43E169BD
:10372C000B43134303600B4B14219C466044FCF782
:10373C00E3FC094B0122E36300238000206400209A
:10374C00A36362551F32A35470BD0120FCE7C04631
:10375C000FC0FFFFF8FFFDBF0000024070B5041E54
:10376C0020D001260068002503681421B3430360B0
:10377C000D4B05609C4645608560C5606044FCF758
:10378C00BBFC80008640094B2064E3635E60212310
:10379C000020A562E56225636563A563E554013BE2
:1037AC00E55470BD0120FCE7F8FFFDBF00000240AE
:1037BC00F0B52025445D012C29D001242126445547
:1037CC00845DE4B2012C1ED11E3D85550025856318
:1037DC000568076C2E68A643BC402E60C66B7460EF
:1037EC006B604368102B14D0C36AA960EA60002B8D
:1037FC0014D00E222B6813432B60012200202B685F
:10380C0013432B60F0BD002343550220FAE702203E
:10381C00F8E7C36AAA60E960002BEAD10A222B6898
:10382C0013432B602B68063A93432B60E5E7C046A5
:10383C00212330B5C25C022A06D000221D3B8363D3
:10384C001C33C254012030BD0E240268056C116873
:10385C00A1431160012114688C4314600C00AC402E
:10386C00C26B5460C15400222023C2540020EAE7EA
:10387C00212370B5C25C022A03D01D3B8363012057
:10388C0070BD0E240268056C1168A1431160012102
:10389C0014688C4314600C00AC40C26B5460C1546F
:1038AC0000222023C254436B002B02D098470020E7
:1038BC00E6E70020E4E7C046F8B504242600036CD4
:1038CC00C56B9E402A6801680F6832420DD03C429D
:1038DC000BD00B689B0602D40B68A3430B60C36A26
:1038EC006E60002B00D09847F8BD022426009E4045
:1038FC00324214D03C4212D00B689B0606D40A22EA
:10390C000B6893430B602123093AC25420230022F5
:10391C006E60C254836A002BE6D09847E4E7082413
:10392C0026009E403242DFD03C42DDD00A6806348D
:10393C00A2430A600122110099402123696082632D
:10394C00C2540022013BC254036B002BCCD09847CD
:10395C00CAE7C0462123C05CC0B27047F8B504006A
:10396C000DF05AFD012507001F4E631C25D10122C5
:10397C001D49CB681A42FCD120221B4BD9680A4244
:10398C0027D1194BDA68D20603D4DB6800205B0719
:10399C0012D5154BDB68DB061DD404210023124A1B
:1039AC00D268520705D50120104AD3690343D3616D
:1039BC000B0001200C4AD360F8BDF3681D42DBD02C
:1039CC00002C04D00DF028FDC01BA042CDD9032043
:1039DC00F2E7DA60D5E70221044AD3690B43D361DD
:1039EC0012311023DBE7C04600200240801000207B
:1039FC00F0B55746DE464E464546E0B50B6885B0F9
:103A0C008A46002B75D0654A00240192644A9C4674
:103A1C00914601256346A5402B40984665D05346F8
:103A2C005A681023170061009F430D3B8B40DB430A
:103A3C009B4653469E680097013F8E40012F5FD9ED
:103A4C005B46C5681D402E43C6605B4605682B402F
:103A5C00032515408D402B43036080235B051A42E0
:103A6C0043D00121019D0F26AB690B43AB61AB69C0
:103A7C0003250B404B4925408B46AD00AE400393CC
:103A8C00039BA3089B005B449968B1439026F60501
:103A9C00B0420ED0444EB04200D177E0434EB0421B
:103AAC0000D16FE0424EB04200D173E00526AE402B
:103ABC00314399604B4641461B68CD43D10348D4F2
:103ACC0049462B400B604968930349D44B46294027
:103ADC0059609968D3024AD44B4629409960DB68F7
:103AEC0092024BD42B404A46D36063460134E340E8
:103AFC008FD105B03CBC90469946A246AB46F0BD72
:103B0C005B4687681F405346DB688B401F4301238D
:103B1C0087604768AF4315091D40A5405B463D4390
:103B2C004560C5681D40009B2E43C660022B00D02B
:103B3C008BE707262640B6000D33B340E508AD00F1
:103B4C0045192F6A9F4353461B69B3401F432F628D
:103B5C007BE741460B4349460B6049689303B5D557
:103B6C00434619434B4659609968D302B4D5434632
:103B7C0019434B469960DB689202B3D542461A430F
:103B8C001300B0E70226AE40314392E70126AE4067
:103B9C0031438EE70326AE4031438AE700100240E2
:103BAC0000040140000001400004004800080048E7
:103BBC00000C0048F0B5DE4657464E464546E0B58B
:103BCC0083B000295FD00122914602329246374AD7
:103BDC000023944601913EE0354988425AD035493C
:103BEC0088425BD0344988425CD00521A1400C004E
:103BFC00A64211D16146FF430C683C400C604C68F6
:103C0C003C404C608C683C408C60CC682740CF605A
:103C1C00414694688C43946051465C00A140072750
:103C2C00CC430F211F40BF00B94002682240026004
:103C3C00DA0892008218166A8E431662C268224015
:103C4C00C2604268AA434260826814408460019A50
:103C5C000133DA4017D04D469D40019F2F40F6D0DE
:103C6C001649544688460F211C40A400A1409A08CE
:103C7C0092004244966888460E409021C9058842BD
:103C8C00AAD10024B4E703B03CBC90469946A246A6
:103C9C00AB46F0BD4946A1400C00A9E70221A1406A
:103CAC000C00A5E75146A1400C00A1E7000401401F
:103CBC000004004800080048000C004800000140C7
:103CCC0000690840411E8841C0B27047002A01D1EA
:103CDC00816270478161FCE7044B10B55A69104250
:103CEC0002D058610AF0C4F910BDC046000401406E
:103CFC001023F0B5C64604000D00160002279846A6
:103D0C0000B523686A1C31D1022110209A69114236
:103D1C002AD19A691042F9D020219A691142FCD01B
:103D2C001022DA611032DA619A69920701D5002209
:103D3C009A62012299690A4202D199690A439A61ED
:103D4C005A681B490A405A600422636C134363642B
:103D5C0041231C32E254002301202232A354023AA4
:103D6C00A35404BC9046F0BD0020FAE79A691742B0
:103D7C00FAD141469A6911420CD10DF04DFB801BD2
:103D8C00A84201D8002DBCD12022636C134363647C
:103D9C004123DFE7202707E00DF03EFB801B854227
:103DAC00F2D3002DF0D023689A691742F4D0B7E70C
:103DBC0000E800FEF0B5C646040000B50D00160084
:103DCC0000294CD010232027984623689A69174263
:103DDC0054D141469A6911422AD020276A1C32D10B
:103DEC0020219A691142FCD01022DA611032DA617A
:103DFC009A69920701D500229A62012299690A42B6
:103E0C0002D199690A439A615A681D490A405A605D
:103E1C000422636C1343636441231C32E254002379
:103E2C0001202232A354023AA35404BC9046F0BDA4
:103E3C000DF0F2FA801B8542C7D22022636C13432B
:103E4C0063644123EAE79A691742CDD10DF0E4FA95
:103E5C00801B8542F1D3002DEFD02368BEE70368A9
:103E6C009A6992060AD49A69D206B6D40DF0D4FA9D
:103E7C002022636C134363644123CFE70020D4E713
:103E8C0000E800FE10B5041E4CD04123C35CDBB22D
:103E9C00002B42D0412324220121E2542368A06844
:103EAC001A688A431A6061681F4A0A401A619A6844
:103EBC001E490A409A60E268012A29D0842109022D
:103ECC0001439960022A02D1802212015A6059687A
:103EDC00174A00200A435A60DA6814490A40DA602B
:103EEC00616922690A43A16909020A43DA60216AFD
:103EFC00E2690A4301211A601A680A431A60002316
:103F0C0041221F316364A15401322363A35410BDB9
:103F1C008021090201439960D9E7402283540CF0B7
:103F2C007BFFB7E70120F2E7FFFFFFF0FF7FFFFF0A
:103F3C000080000270B504000120002C12D0412535
:103F4C0024232268635513688343136020000DF00B
:103F5C002BF8002342220020636463552363A3548F
:103F6C00023AA35470BDC046F8B55746DE464E46DD
:103F7C004546E0B59A460AAB40CB04001B880F00BF
:103F8C0098464123C35C93460220202B00D0B2E01C
:103F9C00002E00D1B5E04346002B00D1B1E0402308
:103FAC00E25C012A00D1A6E00122E2540DF034FAC1
:103FBC0080231B020500994605E00DF02DFA401BED
:103FCC00192800D9A2E04946226893690B40F4D124
:103FDC0041212120605401311F30605463646363BC
:103FEC0053464146D8B2724B618500045168034375
:103FFC00BF057048BF0D01403B430B4366620C99F3
:10400C00536020002A00FFF773FE002800D093E0D5
:10401C0053462268012B0BD05B461B0A93620C990A
:10402C002A002000FFF764FE002800D084E02268FC
:10403C005B468026DBB293620C9B013300D08DE093
:10404C00802193691942FCD0638DFF2B00D8A0E02E
:10405C00FF235949238553680B40584939430B4377
:10406C00536080239B043B438026984602E0638D7B
:10407C00002B2CD02A000C992000FFF739FE0028C9
:10408C004FD1636A22681978013391626362638D40
:10409C00013B9BB26385238D618D013B9BB22385D4
:1040AC000029E4D0002BE2D10C9B013349D1936958
:1040BC001E42FCD0638DFF2B5ED9FF233E49238526
:1040CC0053680B403D4939430B435360CFE72A00FB
:1040DC000C992000FFF76EFE002822D120212368C6
:1040EC00374DD9615A682A405A604123E154013353
:1040FC00E054023BE0543CBC90469946A246AB4689
:10410C00F8BD80239B0063640120F4E72022636CDC
:10411C00134363644123E25400232232A354023A32
:10412C00A3540120E7E72022636C1343636441230B
:10413C00E25400220133E254402300220120E254D5
:10414C00D9E793691E42B5D10DF066F90C9B401B63
:10415C008342DBD3002BD9D02268A6E793691E4299
:10416C0000D071E70DF058F90C9B401B8342DAD359
:10417C00002BD8D0226860E74046638D51689BB213
:10418C002385DBB21B0403430B4801400B435360F4
:10419C006DE78021638D89049BB22385DBB23943A3
:1041AC001B0450680B43044901400B43536058E710
:1041BC0000200081009800FC009C00FC0000FF0126
:1041CC0000E800FEF8B55746DE464E464546E0B5DB
:1041DC009A460AAB40CB04001B880F00984641233B
:1041EC00C35C93460220202B00D0A1E0002E00D10E
:1041FC00A4E04346002B00D1A0E04023E25C012A5E
:10420C0000D195E00122E2540DF006F980231B0247
:10421C000500994605E00DF0FFF8401B192800D960
:10422C009CE04946226893690B40F4D1412122203D
:10423C00BF05605401311E30605463646363BB0D71
:10424C00414698465346D8B27B4B00040343404644
:10425C006185516803437948666201400B435360A2
:10426C000C992A002000FFF743FD002800D08BE0BA
:10427C0053462268012B0BD05B461B0A93620C99A8
:10428C002A002000FFF734FD002800D07CE02268D3
:10429C005B464026DBB293620C9B013300D09AE064
:1042AC00402193691942FCD0638DFF2B00D8B2E0FA
:1042BC00FF2340462385614953680B406049014305
:1042CC000B435360042680270C9B013361D1936907
:1042DC001E42FCD0536A626A1370628D636A013AA3
:1042EC00013392B26362238D6285013B628D9BB276
:1042FC002385002A01D0002B58D0638D002B02D0CF
:10430C0022680C9BE1E72A000C992000FFF752FD74
:10431C00002800D08EE0202123684A4DD9615A68CC
:10432C002A405A604123E1540133E054023BE054EB
:10433C003CBC90469946A246AB46F8BD80239B00F8
:10434C0063640120F4E793691F4236D10DF064F8E1
:10435C000C9B401B834201D3002B28D12022636C81
:10436C000120134363644123E25400232232A354FB
:10437C00023AA354DCE72022636C134363644123A9
:10438C00E25400220133E254402300220120E25483
:10439C00CEE793691E429DD10DF03EF80C9B401B5D
:1043AC008342DBD3002BD9D022688EE70C9B22688A
:1043BC000133C8D193691F42FCD0638DFF2B18D9F0
:1043CC00FF2340462385204953680B401F49014376
:1043DC000B43536091E793691E4200D064E70DF0E4
:1043EC001BF80C9B401B8342C5D3002BC3D0226807
:1043FC0053E7638D80209BB22385DBB21B049C4664
:10440C004346800418436346516803430E480140F9
:10441C000B43536071E74646638D0D489BB2238571
:10442C00DBB230431B0451680343044801400B4387
:10443C00536047E701207BE700200080009800FCD8
:10444C000024FF8100E800FE009C00FC0000FF013E
:10445C0000240082F0B5D64646464F460D00412159
:10446C00C0B5160028229A46435C04001340012074
:10447C00282B04D01CBC90469946A246F0BD002DBA
:10448C003ED0002E3CD0625C226817689146BC4638
:10449C00FA27B8466746424697433A004F463A6079
:1044AC0040229446A25C012A51D06246A054605C22
:1044BC002A282AD041232921E15401330939E15416
:1044CC00002363644B464A465B6822490B405360A9
:1044DC006685638D656223855346E3621E4B636379
:1044EC009369DB0301D50823D36140230021E154F8
:1044FC004B464A461B68FA310B4313600020B9E760
:10450C0080239B0063640120B4E7615C0B40283B73
:10451C00591E8B41AF215B428B433968453B0B40A5
:10452C003B603B681B04C5D53B680A49E06B0B40FC
:10453C003B600028BED0094B4363FFF799F9002874
:10454C0002D0E06B436B984723689946B2E7022090
:10455C0090E7C046FF7FFFFF094B0008D5470008D6
:10456C00F0B5D64646464F460D004121C0B5160063
:10457C0028229A46435C040013400120282B04D0C7
:10458C001CBC90469946A246F0BD002D3ED0002E94
:10459C003CD0625C226817689146BC46FC27B84642
:1045AC006746424697433A004F463A60402294464B
:1045BC00A25C012A51D06246A054605C29282AD002
:1045CC0041232A21E15401330A39E1540023636465
:1045DC004B464A465B6822490B4053606685638DA7
:1045EC00656223855346E3621E4B63639369DB0369
:1045FC0001D40823D36140230021E1544B464A46A1
:10460C001B68FC310B4313600020B9E780239B002F
:10461C0063640120B4E7615C0B40283B591E8B415D
:10462C00AF215B428B433968433B0B403B603B689B
:10463C005B04C5D53B680C49A06B0B403B60002864
:10464C00BED00A4B4363FFF713F9002802D0A06BCE
:10465C00436B984723689946B2E7022090E7C0461F
:10466C00FF7FFFFF094B0008FFBFFFFFD547000886
:10467C004122815C03000220202909D1002008314D
:10468C009954044A90315A631A6813680B431360A7
:10469C007047C046094B0008036810B599691A6841
:1046AC00436B002B00D0984710BDC046422110B57B
:1046BC00002402681368445441395C040BD5136818
:1046CC0020490B4013604121435C292B0ED0435CE5
:1046DC002A2B21D010BDDB0B1942F4D013681A49D8
:1046EC000B4041211360435C292BF0D12124013B69
:1046FC0043540463415C0B40283B591E8B41AF2152
:10470C005B428B431168433B0B40136040230022F8
:10471C00C25409F0CFFCDDE72224023B435404636E
:10472C00415C0B40283B591E8B41AF215B428B43B4
:10473C001168453B0B40136040230022C25409F022
:10474C00EDFCC7E7FFBFFFFFFF7FFFFFF8B5FE25BE
:10475C000368C66899699A69C903120C9C68C90FE9
:10476C002A40DF68022E0DD1A405A40DE60956409F
:10477C000622324010D1856C01358564856C022D82
:10478C0016D0F8BDB8251C68AC431C60402300242F
:10479C00C45409F0E1FCF4E7B8241A68A2431A6087
:1047AC0040230022C2542A003A4009F0D5FCE8E725
:1047BC0006358264DD614023C254220009F0CCFC32
:1047CC00DFE7C0467047C046406A10B5836B002BCC
:1047DC0001D000225A63C36B002B01D000225A6314
:1047EC004123C25C602A06D0002340220363835419
:1047FC0009F086FD10BD403AC254002320320363F9
:10480C008354FFF7DFFFF5E7412270B50400835CAA
:10481C00422500206055444D283BE5626085606C64
:10482C00014361642168022B33D82820A35CA25C6D
:10483C000340283B5D1EAB41AF255B42AB43473B7E
:10484C001040282801D0F7235B420A6813400B6004
:10485C0028224123E254354B6363A06B236B002861
:10486C0004D01A001025113AAA4320D0E06B00287E
:10487C0003D01022123B93432ED04123E25C602ADA
:10488C0048D00023402223632000A35409F038FDB4
:10489C0070BDFE20A35CA35C0B6883430B60A35C20
:1048AC00602B01D02023A35400236363D5E70B684E
:1048BC005B042AD4FFF74EF80128DED0A06B1C4B0A
:1048CC00002243634023E254FEF7D2FF0028DFD0DE
:1048DC00A06B436B9847DBE70B681B0403D50B6895
:1048EC00144A13400B60FFF735F80128C5D0E06B74
:1048FC000F4B002243634023E254FEF7B9FF00281C
:10490C00C6D0E06B436B9847C2E70B680A4A13406A
:10491C000B60CFE7403AE25400232032236320009F
:10492C00A354FFF74FFFB3E70000FFFF094B00084C
:10493C00D5470008FF7FFFFFFFBFFFFFF0B50368FF
:10494C00040041202026C6460D001968225C00B5E3
:10495C00DE61183EB243212A57D0222A00D17DE0D5
:10496C0080225868120202435A605A685F4802401B
:10497C005A609A69920701D500229A6201229869BD
:10498C00024202D1986902439A610122480443D53C
:10499C001A6857490A401A60A26B002A03D01268A1
:1049AC00526892B262856A070AD504225B6A954303
:1049BC00626A1370636A01336362238D002B46D1E4
:1049CC00638D002B03D00422636C134363640026B5
:1049DC004227E655636C66639846002B45D1E36A23
:1049EC00444DAB4223D14123E25C222A00D172E038
:1049FC002022E25443464246236340232000E254E3
:104A0C0009F058FB04BC9046F0BD205C1868F236E7
:104A1C00B04318602263A3E7C90B0A42C3D01A68DB
:104A2C0035490A401A60E26B002AB8D1BBE7200076
:104A3C00FFF73CFE41232022E562E2544346424606
:104A4C00236340232000E25409F000FCDAE7013B29
:104A5C002385638D013B9BB26385B1E7FC26205C0B
:104A6C001868B043186022637AE7616C2000FFF786
:104A7C00CBFE4123E25C282AC4D11E4AE2622022EA
:104A8C002663E254E655236866636A0713D55B6AAE
:104A9C00626A1370636A01336362238D002B09D041
:104AAC000422013B2385638D013B9BB26385636CC0
:104ABC001343636423684122A15CFE21A25C1A6843
:104ACC0020008A431A601022DA6140230022E2544B
:104ADC0009F0BCFB96E7023AE25443464246236394
:104AEC0040232000E25409F019FB8BE700E800FE9C
:104AFC00FFBFFFFF0000FFFFFF7FFFFFF8B51600B1
:104B0C004022835C04000D00C76A012B00D181E0B8
:104B1C00012383544A09134203D07209134200D073
:104B2C0064E00123EA0618D53209134215D0628DD0
:104B3C00216892B2002A5FD14120265C282E00D138
:104B4C006EE04123E35C292B00D19DE01023CB6167
:104B5C00402300220020E254F8BD01236A0710D440
:104B6C0001232A072BD5F208134228D04033E25CEC
:104B7C00193B1340282B00D199E008222368DA61F5
:104B8C00E6E7B2081342EBD0638D002B0DD02368FF
:104B9C00626A5B6A1370636A01336362238D013B43
:104BAC002385638D013B9BB26385638D002BCFD135
:104BBC00414B9F42CCD02000FFF778FDC8E7012382
:104BCC00AA07C5D576083342C2D0638D002B23D0FB
:104BDC00636A22681978013391626362638D013BC9
:104BEC009BB26385238D013B2385B1E7FFF7A6FEBE
:104BFC000123EA06B1D597E710230422CB61636C3D
:104C0C00134363642D4B1F42A2D1616C2000FFF74C
:104C1C00FBFD9DE702209FE7284B1F42CBD097E777
:104C2C008026B604B74200D08BE7234EAD08E6626F
:104C3C002026226326540130225462632B4213D067
:104C4C004B6A626A1370636A01336362238D002BB3
:104C5C0009D00422013B2385638D013B9BB2638504
:104C6C00636C1343636421684123E25CFE22E35CC2
:104C7C000B68200093430B6010230022CB61303370
:104C8C00E25409F0E3FA63E70B4B9F4200D15DE776
:104C9C001023CB618B699B0701D500238B62012309
:104CAC008A69134287D18A6913438B6183E7200099
:104CBC00FFF74CFD4CE7C0460000FFFFFFFFFFFE77
:104CCC000122016870B58B6904005E0A980A1B0A00
:104CDC000D68104016401A4219D0EB091A4256D0F2
:104CEC00636C1A4380235B006264CB61002800D1A3
:104CFC0073E00822636C134363648023DB00CB6195
:104D0C00002E4AD10B22636C1A4209D170BD0028C7
:104D1C003FD0ED092A42ECD10B22636C1A42F5D03C
:104D2C00002542263632A05CA5554C4E2838E6624A
:104D3C006585656C2B436364A35C022835D9FE2022
:104D4C00A35C0B6883430B60A35C602B01D0202316
:104D5C00A35400236363A06B236B002804D01A00B8
:104D6C001025113AAA433BD0E06B002803D0102247
:104D7C00123B93434ED04123E25C602A64D0002363
:104D8C00402223632000A35409F0BAFABEE700289E
:104D9C00B8D1002EB6D02B06B4D50222636C1343C7
:104DAC00636480239B00CB61ACE728200340283B45
:104DBC005D1EAB41AF255B42A25CAB43473B104051
:104DCC00282801D0F7235B420A6813400B60282285
:104DDC004123E254224B6363BDE7002EDDD191E702
:104DEC000B685B0403D50B681E4A13400B60FEF77F
:104DFC00B1FD0128BFD0A06B1B4B002243634023A5
:104E0C00E254FEF735FD002800D17FE7A06B436B21
:104E1C0098477BE70B681B0403D50B68134A1340B8
:104E2C000B60FEF797FD0128A5D0E06B0E4B00221E
:104E3C0043634023E254FEF71BFD002800D165E7D5
:104E4C00E06B436B984761E7403AE2540023203211
:104E5C0023632000A354FFF7B5FC57E70000FFFFC6
:104E6C00094B0008FFBFFFFFD5470008FF7FFFFF7E
:104E7C0070B504000120002C1BD02368104A1A6066
:104E8C00104A1A6062685A60A2689A600CF0C4FA00
:104E9C00050004E00CF0C0FA401B30280AD8236847
:104EAC00DA68002AF6D11969E268914204D0002030
:104EBC001A6170BD0320FCE7034A00201A60F8E772
:104ECC00CCCC000055550000AAAA00000368024A89
:104EDC0000201A607047C046AAAA00008023034A2B
:104EEC005B0011680B4313607047C04600700040B4
:104EFC000420064A136983431361012903D040BF80
:104F0C0020BF20BF704730BFFCE7C04600ED00E07B
:104F1C0010B503240B4A1368A343184310600420F4
:104F2C00094A136903431361012908D040BF20BF0C
:104F3C0020BF0421044A13698B43136110BD30BF99
:104F4C00F7E7C0460070004000ED00E0F0B5CE463B
:104F5C00474680B5040083B0002800D1BAE003684E
:104F6C00DA0735D50C21C64842680A40042A00D11C
:104F7C0025E142681140082900D117E16368012B33
:104F8C000FD0002B00D13FE1052B00D1A7E1BC4B8A
:104F9C00BC491A680A401A601A68BB490A401A6070
:104FAC0005E08023B64A5B0211680B4313600CF0DA
:104FBC0033FA80250700B24EAD0205E00CF02CFA56
:104FCC00C01B642800D91DE133682B42F6D023683E
:104FDC009A0745D41A0717D5E369A94D002B00D1C0
:104FEC00D1E001226B6A022613436B620CF014FAB7
:104FFC00070005E00CF010FAC01B022800D901E1F3
:10500C006B6A1E42F6D023685A0700D485E08022D2
:10501C009B4B5205D9690025114207D1D96901353D
:10502C001143D961DB691A400192019B8026974F8D
:10503C0076003B68334200D1D4E0A368012B4FD0FB
:10504C00002B00D1F9E0052B00D154E101218C4B50
:10505C001A6A8A431A621A6A03318A431A6243E053
:10506C000C228749486802422BD048680240082A23
:10507C001FD0E368824D002B00D1F8E001222B6891
:10508C00022613432B600CF0C7F9070005E00CF067
:10509C00C3F9C01B022800D9B4E02B681E42F6D01D
:1050AC00F8212A6823698A43DB0013432B602368A9
:1050BC0090E74A68C02149020A40802109028A42CD
:1050CC00D7D16F4A1268920700D482E0E268012AB5
:1050DC0000D17EE0012003B00CBC90469946F0BD97
:1050EC0067490A6A13430B620CF096F9684B8146C8
:1050FC00634F0226984605E00CF08EF94B46C01A19
:10510C0040457FD83B6A1E42F6D0012D04D15C4A43
:10511C006049D3690B40D3612368DB0612D5636900
:10512C00012B00D145E1053300D0C1E00421F8206A
:10513C00534A536B8B435363516BA3698143DB001D
:10514C000B435363236A002B1BD00C224C4D696814
:10515C000A40082A00D1D8E0022B00D1F1E02B68DC
:10516C004D4A802413402B600CF056F9A404060021
:10517C0004E00CF051F9801B022843D82B68234221
:10518C00F7D10020A7E701226B6A022693436B62DA
:10519C000CF042F9070004E00CF03EF9C01B0228A9
:1051AC0030D86B6A1E42F7D123682DE7C0214268C4
:1051BC0049020A40802149028A4200D0DEE6304A88
:1051CC001268920300D403E76268002A00D0FFE65D
:1051DC0080E7F8252A4822690168D200A9430A43CE
:1051EC000260F7E63B6833433B600CF015F98046F0
:1051FC003B68334200D020E70CF00EF94346C01A4E
:10520C006428F5D9032066E71D4D1E4A2B688026BD
:10521C0013402B602B681C4AB60213402B600CF019
:10522C00FBF8070004E00CF0F7F8C01B6428E9D881
:10523C002B683342F7D12368CAE60122104E0227AD
:10524C00336A93433362336A0332934333620CF011
:10525C00E3F80F4B8146984605E00CF0DDF84B4621
:10526C00C01A4045CED8336A1F42F6D14DE7012211
:10527C002B68022693432B600CF0CEF8070012E04B
:10528C0000100240FFFFFEFFFFFFFBFF007000401D
:10529C0088130000FFFFFFEFFFFFFFFE0CF0BCF8D0
:1052AC00C01B0228AED82B681E42F7D1236891E6AA
:1052BC0004224F4D02266B6B13436B636B6B033AEB
:1052CC0093436B630CF0A8F8070004E00CF0A4F80F
:1052DC00C01B022896D86B6B1E42F7D132E7802296
:1052EC00434BD20219680A431A6080221968520291
:1052FC000A431A605BE604213D4B1A6A0A431A62A0
:10530C001A6A03390A431A62EEE6012B00D1E1E670
:10531C00C0236A68E96A656A5B0213400120AB42EC
:10532C0000D0D8E60F230B40E16A8B4200D0D2E6C6
:10533C00F02080030240A06A101A421E9041C0B2B5
:10534C00C9E62B682B4A802613402B600CF064F8BE
:10535C00B604070005E00CF05FF8C01B022800D96A
:10536C0050E72B683342F6D10F22EB6A9343E26A83
:10537C001343EB62616AA36A6A680B431E4980247B
:10538C000A4013436B6080232A685B0413432B6031
:10539C000CF042F8164D0600A40405E00CF03CF8A5
:1053AC00801B022800D92DE72B682342F6D0002061
:1053BC0091E604210E4D02266A6B0A436A636A6BFE
:1053CC0013436B630CF028F8070005E00CF024F88D
:1053DC00C01B022800D915E76B6B1E42F6D0F821D2
:1053EC006A6BA3698A43DB0013436B63AAE6C0466E
:1053FC0000100240FFFFFFFEFF7FC2FFF0B5CE465C
:10540C00474680B5040089B00D0000280DD001235B
:10541C004B490A681A40AA420DD20A689A432A4399
:10542C000A600A681340AB4205D0012009B00CBCDD
:10543C0090469946F0BD23689A070ED55A0705D5B4
:10544C00E0224049D200486802434A60F0203D49BE
:10545C004A688243A06802434A60DB0721D5394B76
:10546C0062681B68012A62D0022A65D09B07DCD5D2
:10547C000321344E0C2773688B43134373600BF07A
:10548C00CBFF314B8146984605E00BF0C5FF4B46F0
:10549C00C01A40454ED8726863683A409B009A42E5
:1054AC00F3D10121264A13680B40AB4205D913688E
:1054BC008B43136013681942B7D123685B0706D579
:1054CC00204A224953680B40E1680B4353606946FC
:1054DC001F4B0A00180070C870C2006810331060AF
:1054EC0004AA100070CB70C01B68164C03600C2013
:1054FC0063681840082818D1E56A07309B0C0340F4
:10550C002840CC5C115C1348FAF7F6FD60430D4B58
:10551C00114A5B681B061B0FD35CD8400F4B1860FD
:10552C0000200BF05FFF002080E70A48EFE79B03A9
:10553C009ED47AE7032079E79B0199D475E7C0469E
:10554C00002002400010024088130000FFF8FFFF0B
:10555C004015010800127A00A01601080000002076
:10556C00014B18687047C04600000020F0B5CE46CD
:10557C00474680B5036883B00400DA0336D5802231
:10558C003C4B5205D9690027114207D1D969013723
:10559C001143D961DB691A400192019B8026364D7B
:1055AC0076002B68334239D0C021324D89002A6AEB
:1055BC0060680A4011D0014091420ED08022296AC5
:1055CC002E6A520232432A622A6A2C4B2C4E0B4012
:1055DC0032402A622B62CB0739D4264A2749136AF8
:1055EC000B4003431362012F29D02368DA0706D539
:1055FC00032020490A6B8243A06802430A630020FF
:10560C009B0606D510211B4A136B8B43E1680B4399
:10561C00136303B00CBC90469946F0BD2B68334322
:10562C002B600BF0F9FE804605E00BF0F5FE4346CF
:10563C00C01A642809D82B683342F6D0B4E7D36972
:10564C0010490B40D3612368D0E70320E1E70BF04E
:10565C00E3FE0D4B80460226994605E00BF0DCFE7E
:10566C004346C01A4845F0D82B6A1E42F6D06068F3
:10567C00B3E7C0460010024000700040FFFCFFFF83
:10568C00FFFFFEFFFFFFFFEF88130000F8B5041EBD
:10569C004DD0437FDBB2002B5FD00223CA2263774D
:1056AC0023685A62773A5A62DA68520641D59A6888
:1056BC002C4920690A409A606268996802436069C3
:1056CC0002430A439A60E2681A61A26819691204DB
:1056DC000A4380211A61DA688A43DA609A68920672
:1056EC000DD51A6C204900200A401A641A6CA16965
:1056FC000A431A64FF225A620123637718E0DA68BE
:10570C0020318A43DA600BF087FEFA260700202549
:10571C00B6002368DA681542E3D10BF07DFEC01B9E
:10572C00B042F6D9FF2223685A6204236377012022
:10573C00F8BD01225242DA600BF06EFEFA26070029
:10574C004025B60004E00BF067FEC01BB042E9D860
:10575C002368DA681542F6D0A9E703770BF06AFCE8
:10576C009BE7C046BFFF8FFFFFFFFBFFF8B5454629
:10577C00DE4657464E46E0B5037F04000D00012B74
:10578C0000D197E001230377013343770668002AA1
:10579C0038D04023B1680B4000D187E0EB781B0474
:1057AC0029786878090400020143A8780143194359
:1057BC00CA237362773B7362F36888465B0657D5DE
:1057CC0043464D494D4A0B403360B3682969134039
:1057DC00B360EB68B2680B4313438022B360F36889
:1057EC009343F360B3689B0666D5FF237362FE3B5D
:1057FC0063770023002023773CBC90469946A24651
:10580C00AB46F8BD4027B3681F4051D0CF783F045A
:10581C0028780023092806D90A38C0B20133092890
:10582C00FAD81B01DBB218436B7800040021092B5A
:10583C0006D90A3BDBB20131092BFAD80901C9B2EE
:10584C000B43A9781B02092954D90A39C9B2013270
:10585C000929FAD81201D2B23843034311430B433E
:10586C009846CA237362773B7362F3685B06A7D4CE
:10587C0001235B42F3600BF0CFFD40239946FA23E2
:10588C009B0083469A464B462668F7681F4097D183
:10589C000BF0C2FD5B46C01A5045F4D9FF222368B9
:1058AC0001205A62042327776377A5E7EB7077E72B
:1058BC00CF70ADE702209FE7F36820329343F3608B
:1058CC000BF0AAFDFA239B008146202798462668F8
:1058DC00F5683D4000D088E70BF09EFD4B46C01AA2
:1058EC004045F4D9FF22236801205A62042325770E
:1058FC00637781E70022AFE77F7F7F00FFFFFBFF2D
:10590C00006870B5836A40264B60036904683F20C9
:10591C005B045B0C8B60134B1C40250C230A28404A
:10592C00DBB2E4B22E4008704B708C70CE70002A43
:10593C0015D10F260009820010184000354045197A
:10594C0018098200121852003340D31822094B70E8
:10595C0093009B185B0034401C190D708C70002058
:10596C0070BDC0467F7F7F00F8B5CE46474680B5F8
:10597C00037F0500012B00D17CE001230F78037716
:10598C0001334377CB7848788C787F03002A21D079
:10599C001B043B431C43CA232A6800025362773B17
:1059AC005362D36804435B0648D5802141482040AC
:1059BC005060D3688B43D36093689B065CD5FF2300
:1059CC005362FE3B6B77002300202B770CBC904678
:1059DC009946F8BD1026064203D0B0430A30C0B237
:1059EC0048700026092B06D90A3BDBB20136092B7D
:1059FC00FAD83601F6B233431B040021092806D924
:105A0C000A38C0B201310928FAD80901C9B20143D8
:105A1C000902092C4CD90A3CE4B20132092CFAD8FF
:105A2C001201D2B23B431943CA2314432A680C43D4
:105A3C005362773B5362D3685B06B6D401235B4257
:105A4C00D3600BF0E9FCFA239B0081464027984673
:105A5C002A68D6683E40A8D10BF0DEFC4B46C01A33
:105A6C004045F5D9FF222B6801205A6204232E777A
:105A7C006B77ABE70220A9E7D36820318B43D36067
:105A8C000BF0CAFCFA2780462026BF002A68D4688F
:105A9C00344094D10BF0C0FC4346C01AB842F5D93F
:105AAC00FF222B6801205A6204232C776B778DE739
:105ABC000022B7E73FFFFF00036815485B68F0B5AD
:105ACC0003401F201C0A1F0CDDB2E4B21B04204053
