:020000040800F2
:10000000008000205125000869F400086DF4000804
:1000100000000000000000000000000000000000E0
:1000200000000000000000000000000071F4000863
:10003000000000000000000075F4000879F40008DA
:10004000A125000800000000F5F40008A125000823
:10005000A125000839F5000845F500081DF5000840
:1000600000000000E5F40008B5F40008CDF4000835
:100070000DF50008A1250008A125000800000000DA
:10008000A1250008A1250008A1250008A125000838
:10009000A1250008A1250008A125000885F4000875
:1000A0009DF40008A1250008A1250008A12500084D
:0C00B000A1250008A125000800000000A8
:1000BC0010B5064C2378002B07D1054B002B02D032
:1000CC00044800E000BF0123237010BD3806002057
:1000DC000000000048F60008044B10B5002B03D0BC
:1000EC000349044800E000BF10BDC04600000000FA
:1000FC003C06002048F60008002243088B4274D3CB
:10010C0003098B425FD3030A8B4244D3030B8B420C
:10011C0028D3030C8B420DD3FF22090212BA030C15
:10012C008B4202D31212090265D0030B8B4219D3F6
:10013C0000E0090AC30B8B4201D3CB03C01A524116
:10014C00830B8B4201D38B03C01A5241430B8B425E
:10015C0001D34B03C01A5241030B8B4201D30B0347
:10016C00C01A5241C30A8B4201D3CB02C01A52416E
:10017C00830A8B4201D38B02C01A5241430A8B4231
:10018C0001D34B02C01A5241030A8B4201D30B021A
:10019C00C01A5241CDD2C3098B4201D3CB01C01A34
:1001AC00524183098B4201D38B01C01A524143093E
:1001BC008B4201D34B01C01A524103098B4201D32C
:1001CC000B01C01A5241C3088B4201D3CB00C01A99
:1001DC00524183088B4201D38B00C01A5241430811
:1001EC008B4201D34B00C01A5241411A00D2014636
:1001FC00524110467047FFE701B5002000F0F0F8BF
:10020C0002BDC0460029F7D076E7704703460B4382
:10021C007FD4002243088B4274D303098B425FD3F3
:10022C00030A8B4244D3030B8B4228D3030C8B421F
:10023C000DD3FF22090212BA030C8B4202D3121205
:10024C00090265D0030B8B4219D300E0090AC30BDA
:10025C008B4201D3CB03C01A5241830B8B4201D387
:10026C008B03C01A5241430B8B4201D34B03C01A70
:10027C005241030B8B4201D30B03C01A5241C30AE8
:10028C008B4201D3CB02C01A5241830A8B4201D359
:10029C008B02C01A5241430A8B4201D34B02C01A43
:1002AC005241030A8B4201D30B02C01A5241CDD2E8
:1002BC00C3098B4201D3CB01C01A524183098B4233
:1002CC0001D38B01C01A524143098B4201D34B011C
:1002DC00C01A524103098B4201D30B01C01A52417F
:1002EC00C3088B4201D3CB00C01A524183088B4206
:1002FC0001D38B00C01A524143088B4201D34B00EF
:10030C00C01A5241411A00D2014652411046704760
:10031C005DE0CA0F00D04942031000D34042534065
:10032C0000229C4603098B422DD3030A8B4212D325
:10033C00FC22890112BA030A8B420CD38901921157
:10034C008B4208D3890192118B4204D389013AD094
:10035C00921100E08909C3098B4201D3CB01C01A69
:10036C00524183098B4201D38B01C01A524143097C
:10037C008B4201D34B01C01A524103098B4201D36A
:10038C000B01C01A5241C3088B4201D3CB00C01AD7
:10039C00524183088B4201D38B00C01A5241D9D2EF
:1003AC0043088B4201D34B00C01A5241411A00D270
:1003BC000146634652415B10104601D34042002B6C
:1003CC0000D54942704763465B1000D3404201B5EB
:1003DC00002000F005F802BD0029F8D016E77047A0
:1003EC007047C0468446081C6146FFE71FB500F005
:1003FC004DFB002801D40021C8421FBD10B500F0F0
:10040C00D9FA4042013010BD10B500F03FFB002876
:10041C0001DB002010BD012010BDC04610B500F05E
:10042C0035FB002801DD002010BD012010BDC046A9
:10043C0010B500F0E7FA002801DC002010BD012007
:10044C0010BDC04610B500F0DDFA002801DA00201E
:10045C0010BD012010BDC04670B500220C4B04002D
:10046C000D0001F039FF002804D12000290001F013
:10047C00A7FD70BD064B00222000290001F04CFAAC
:10048C0001F09EFD80231B069C466044F1E7C046AC
:10049C000000E041F8B54A02430244004E00C50F8B
:1004AC00240E28009B09360EC90F92098D4259D093
:1004BC00A01B002800DC8DE0002E1AD1002A00D0F1
:1004CC0079E05A0704D00F221A40042A00D00433D2
:1004DC005A0138D50134FF2C00D189E028009B014A
:1004EC005B0AE4B25B02E4055B0A2343C0071843D2
:1004FC00F8BDFF2CE5D08021C9040A431B2800DD80
:10050C0089E016002021C640081A8240511E8A41FB
:10051C0032439B1A5A0114D59B019E09300001F0FD
:10052C00E5FE05388640844265DC041B3300202040
:10053C000134E340041BA640721E96410024334351
:10054C00BFE75A07BFD1DF082800FF2C2FD1002F9F
:10055C0000D187E08022D20313003B435B025B0A8D
:10056C00FF24BFE7A11B002949DD002E29D0FF2C59
:10057C00A7D08026F60432431B2900DD8DE017003E
:10058C002026CF40711A8A40511E8A413A439B184B
:10059C005A01D6D50134FF2C64D0012276491A4079
:1005AC005B080B4013438CE7031ECAD100207B026F
:1005BC005B0AE4B296E701380028AAD0FF2C9DD143
:1005CC007FE7002A00D17CE701390029DFD0FF2C1E
:1005DC00D2D176E7002820D1601CC0B2012853DDAF
:1005EC0080279E1AFF0437402FD0D61A0D0095E7AE
:1005FC002800002376E7614B241A334061E7002979
:10060C004DD1611CCEB2012E2FDDFF292AD09B18B3
:10061C005B080C0055E701227BE7002C1BD1002B5B
:10062C005BD0C04300280CD0FF2E7ED01B2800DDF1
:10063C0092E01D002024C540201A8340581E83419F
:10064C002B43D31A34000D0064E7002E00D065E76D
:10065C0000200024ABE7FF2E67D08024E404404246
:10066C002343E3E7FF2400233CE7002C61D1002B5C
:10067C007ED0002A00D124E79B185A0100D460E7F1
:10068C003E4A0C0013401CE7002C1ED1002B2FD12E
:10069C00002A66D013000D0013E7012277E7002C27
:1006AC001FD1002B5AD0C94300290BD0FF2E50D09C
:1006BC001B295FDC1F002024CF40611A8B40591E80
:1006CC008B413B439B18340062E7002B1CD1002A62
:1006DC004AD013000D00FF24F3E6130034000D0084
:1006EC00EFE6FF2E35D08024E40449422343DFE7B4
:1006FC00002A00D1E5E68027981AFF04074000D1B4
:10070C0052E7D31A0D00DCE6FF24002A00D1D8E60C
:10071C008020DB08C003034204D0D208024201D17E
:10072C0013000D00DB00FF24CBE61300FF240D00AB
:10073C00C7E6002B0DD0FF24002A00D1C1E6802192
:10074C00DB08C9030B42EDD0D2080A42EAD11300F0
:10075C00E8E71300FF24B4E6012372E7130034002A
:10076C00AFE60027002022E780270020FF03F1E6F8
:10077C001300A6E60123A5E7FFFFFF7DFFFFFFFBAC
:10078C00F0B5564644465F464D46F0B4440246002A
:10079C00C70F83B08846650A360EBA463DD0FF2E89
:1007AC0022D00023EC00802599469B46ED0425437E
:1007BC007F3E43465C025800DB0F640A000E9846ED
:1007CC0036D0FF2830D080230021E400DB041C430A
:1007DC007F38301A0190484642460843724E8000DA
:1007EC0030587A4013008746002D44D1082399468F
:1007FC00063B9B46DDE70122FF2000241A406402E1
:10080C00C305640AD2071C431443200003B03CBC4C
:10081C0090469946A246AB46F0BD002D20D104234C
:10082C009946033B9B46C4E7002C17D1022102E0FA
:10083C00002C0AD10121321A01924A4643460A433E
:10084C005A48920082587B409746200001F04EFD9A
:10085C00431F76309C4040420021BAE70321B8E7A1
:10086C00280001F043FD431F9D4000237630464293
:10087C0099469B469DE70C239946093B9B4698E776
:10088C0080240022E403FF20B9E70024C2468B46F3
:10089C005A465346022AAED0032A7DD0012A31D1C2
:1008AC00012200201A400024A9E70122101A1B285B
:1008BC0056DD1A4000200024A1E78023DB031D42F3
:1008CC004BD18023DB032B435C02640A3A00FF20EC
:1008DC0095E76D016001854230D2019A0024013AFE
:1008EC0001921B220127290064006D00002901DB05
:1008FC00A84201D82D1A3C43013A002AF3D16A1EB2
:10090C0095412C4301987F300028CEDD620704D03E
:10091C000F222240042A00D00434220103D5244A99
:10092C00019814408030FE2800DD64E70122A40108
:10093C00640AC0B21A4062E72C00A9E72D1A1A22E9
:10094C000124CFE76B02BCD500248023DB031C43BE
:10095C006402640A4246FF2051E71C42B3D1F4E71B
:10096C0021002022C140101A8440621E94410C4385
:10097C00620704D00F222240042A00D00434620102
:10098C0004D5012201201A40002438E70122A401D9
:10099C00640A1A40002032E78023DB031C43640204
:1009AC00640A5246FF202AE780F60008C0F60008C9
:1009BC00FFFFFFF7430270B542004C005D0AC30F06
:1009CC004802120E460A240EC90FFF2A0FD0FF2C24
:1009DC0011D00120A24200D070BDB542FCD18B4297
:1009EC000DD0002AF8D12800431E9841F4E70120CD
:1009FC00002DF1D1EBE70120002EEDD1E9E700202D
:100A0C00EAE7C0464302F0B542005D0AC30F480254
:100A1C00440A4800120E000EC90FFF2A1FD0FF28EF
:100A2C0022D0002A09D16E426E4100280FD1002C31
:100A3C000DD10020002D09D005E0002801D1002C9B
:100A4C0001D08B4213D0584201231843F0BD002E25
:100A5C00F7D048424141012049420843F6E7002DB6
:100A6C00DDD002204042F1E7002CDAD0F9E78242D7
:100A7C00E9DC04DBA542E6D80020A542E6D25842C8
:100A8C00434101205B421843E0E7C0464302F0B506
:100A9C0042004C005E0AC30F4802120E450A240E97
:100AAC00C90FFF2A17D0FF2C19D0002A0BD1704286
:100ABC007041002C17D0002807D04842414101203A
:100ACC0049420843F0BD002C13D08B4214D058423D
:100ADC0001231843F6E70220002EF3D1E3E70220AE
:100AEC00002DEFD1E1E7002DE5D10020002EE9D05B
:100AFC00EDE7002DE9D1EAE7A242E8DC04DBAE42E7
:100B0C00E5D80020AE42DDD25842434101205B4281
:100B1C001843D7E7F0B557464E4645464300E0B478
:100B2C0046028846760A1F0EC40F002F47D0FF2FAF
:100B3C0025D0002380259A469946F600ED042E43D5
:100B4C007F3F434642465D02D20F5B006D0A1B0E8F
:100B5C00904640D0FF2B39D080220020ED00D204EB
:100B6C0015437F3BFB1842465746591C62408C4646
:100B7C0007430F2F5CD86F49BF00C9598F46002E11
:100B8C0045D108239A46063B9946DAE742460228A5
:100B9C002DD0032800D1C3E0012800D0A2E000250D
:100BAC0000260240D4B27602ED05760A2E43E40705
:100BBC00264330001CBC90469946A246F0BD002E40
:100BCC001AD104239A46033B9946BAE72A00511ED0
:100BDC008A41901CC6E70120002DC3D0280001F0EB
:100BEC0085FB431F76309D4043420020BAE7012429
:100BFC00FF2514400026D6E7300001F077FB431F99
:100C0C009E400023763047429A46994699E70C233A
:100C1C009A46093B994694E780260024F603FF2563
:100C2C00C1E735004846B2E7350022004846AEE73A
:100C3C002904090C0800370C3604360C2C0C7943AB
:100C4C00704367437443060C64183619B14203D9D8
:100C5C0080214902884647440004000C31040918DD
:100C6C008D01681E8541890E2943350CED19AD01A6
:100C7C000D43290104D5012369081D4063460D432A
:100C8C0019007F31002925DD680704D00F2028408A
:100C9C00042800D00435280103D5274980330D40A2
:100CAC001900FE29A3DC0124AD016E0A1440CDB25B
:100CBC0079E78020C003064207D0054205D12843BE
:100CCC004602760A4446FF256DE706437602760A0D
:100CDC00FF2568E70124611A1B2905DD1440002556
:100CEC00002660E76346CBE72E002023CE40591A3E
:100CFC008D406B1E9D412E43730704D00F23334050
:100D0C00042B00D00436730104D5012401251440B2
:100D1C00002648E70124B601760A1440002542E774
:100D2C0080260124F6032E437602760A1440FF2512
:100D3C0039E7C04600F70008FFFFFFF770B5002841
:100D4C0030D0C317C5185D40C40F280001F0CEFA8F
:100D5C009E231B1A962B0DDC9622D21A95406A0202
:100D6C00520AD8B25202C005520AE4070243224387
:100D7C00100070BD992B19DC9922D21A9540124A99
:100D8C002A40690704D00F210D40042D00D00432F5
:100D9C00510103D50C4B1A409F231B1A9201520A86
:100DAC00D8B2DFE7002400200022DBE705222E006A
:100DBC00121AB921D6402A00C91A8A40551EAA41D6
:100DCC0035001543DBE7C046FFFFFFFBF8B5564681
:100DDC005F464D464446F0B40F00FD0FAA4609038A
:100DEC007C002E005F00450F490A7F0D2943C5008A
:100DFC001803BC46400A570F640DDB0F3843D20072
:100E0C009A4500D1AAE06646A61B002E00DCFFE046
:100E1C006346002B39D10300134300D0D9E06B0794
:100E2C0009D00F232B40042B05D02B1DAB42AD4119
:100E3C006D4249191D000B0200D482E0CA4B0134EB
:100E4C009C4200D1FEE00A005646C84BED081A4001
:100E5C005007640552020543120B640D0021120366
:100E6C000B0D1B056405120B1A436308C04CF607E7
:100E7C0014401C43640064083443280021003CBC2B
:100E8C0090469946A246AB46F8BDB74B9C42C6D09D
:100E9C0080231B041843382E00DDEBE01F2E00DDF1
:100EAC001EE120239B1B9C4603006746BB409846D3
:100EBC0013004746F3403B436746BA40571EBA41BE
:100ECC0013430200F240EB1A9D42B6411D008A1AF0
:100EDC007642911B0B0231D54A02560A002E00D1E4
:100EEC00B4E0300001F002FA0300083B1F2B00DDD8
:100EFC00B5E020222900D21AD1409E400A009D4024
:100F0C0032439C4200DDB1E01C1B631C1F2B00DD37
:100F1C00D5E0202114002800C91A8C40D8408D40FF
:100F2C000443DA40681E854111002543002476E70E
:100F3C004146314300D134E2310045466B0700D0C5
:100F4C006FE756464807ED08C9080543864B9C4297
:100F5C0035D00A036405120B640D7FE76346E31A70
:100F6C009B46002B00DC8BE06746002F3CD07E4F6D
:100F7C00BC4200D153E780273F0438435B46382BF3
:100F8C0000DCF7E00243501E82410020D2B253191C
:100F9C004218AB4289411D00494289180B02CDD53C
:100FAC00714B01349C4200D13DE101206F4A6B082A
:100FBC000A4028401843D507054351082FE72B005A
:100FCC000B4300D1CBE180231B030B431A03120B01
:100FDC0044E7013E002E6DD1AE1AB5429B41091A71
:100FEC005B42C91A350075E70700174300D116E7B5
:100FFC0001235B429C46E3445B46002B00D0E0E0BF
:10100C00AA18AA429B4109185B4259181500C5E75A
:10101C00002E75D1661C7605760D012E00DCF3E0F2
:10102C00AE1AB0464545BF410E1A7F42F61B370239
:10103C0000D48FE0551BAA42B641411A76428E1B52
:10104C009A464BE756460022002507E7280001F098
:10105C004DF920300300083B1F2B00DC49E72A0028
:10106C002838824000259C4200DC4DE73F49E41AB9
:10107C001140D4E60243501E8241D3B2002222E733
:10108C00002B00D0F3E0631C9C465B055B0D012B31
:10109C0000DC9FE0344B9C4500D1C3E0AA18091832
:1010AC00AA42804140424118CD07520815434908D5
:1010BC006446B4E62C4B9C4200D0ECE6AFE6110043
:1010CC001F3CE1400C00202B00D17FE04021CB1ACB
:1010DC009A4015436A1E95410021254300242DE7B3
:1010EC0033000700203BDF403B00202E70D0402710
:1010FC00BE1BB0400243501E824113430022E2E665
:10110C00002C4FD0184CA44500D1ABE08024240413
:10111C0076422143382E00DDDFE01F2E00DD43E157
:10112C002027BC1BA1460C004F46BC40A0462C00FF
:10113C004746F4403C434F46BD406F1EBD41F14015
:10114C002C43151BAA429241411A5242891A6446F9
:10115C009A46BFE641464546314300D0BEE60026DE
:10116C0000240025F2E6C046FF070000FFFF7FFFCA
:10117C00FFFF0F801F2B59DC2027FF1ABC460700EE
:10118C0063469F405B46B9461700DF40B8464F4662
:10119C0043461F4363469A40531E9A415B463A436B
:1011AC00D840F4E60C002C435CD0F643002E55D10D
:1011BC00551BAA42A441411A6442091B9A46644633
:1011CC0088E6964FBC4200D0D8E628E6002280E79D
:1011DC0000208FE70B002B43002C00D0C2E0002B2B
:1011EC0000D101E10300134300D118E6AB18AB4268
:1011FC00B6410918764271180A0200D409E1884AEE
:10120C001D00114064460AE6002C5BD10E002E43F3
:10121C0000D08AE00100114300D1C2E001001500AA
:10122C009A46FCE56446002100258FE620235B42AC
:10123C009C46DC4463460700DF405B46BC46202BE3
:10124C0000D1ACE040235F46DB1B98400243501EAC
:10125C008241634613431A00002098E66F4CA44564
:10126C0000D057E70100150064469A46D7E5002CDC
:10127C0039D10C002C436ED0DB43002B1AD0674CB9
:10128C00A44568D0382B00DDA4E01F2B00DDAEE0B8
:10129C0020240F00E41AA740B9462F00DF40B846BF
:1012AC00A3464F46444627435C46A5406C1EA541C9
:1012BC00D9403D43AD1895429B4109185B425918E2
:1012CC0064466BE60C002C4315D1010011437BD016
:1012DC00010015009A46514CA1E50D43691E8D4144
:1012EC000021ECB22DE74D4CA44534D080242404CD
:1012FC005B422143C6E7040014434ED0ED084C0773
:10130C002C438025C9082D03294208D0C6082E423B
:10131C0005D1D208410711430C009A463100620FE7
:10132C00C900E50011433D4C79E50600164300D198
:10133C0075E5AE1AB0464545BF410E1A7F42F61B05
:10134C00370200D4F4E5551BAA42B641411A764245
:10135C00891B9A4663E50100150064465FE500228F
:10136C0000257BE5002B3BD00300134315D0ED0883
:10137C004B072B438025C9082D03294207D0C408ED
:10138C002C4204D141070B002100D2081343C900A1
:10139C005A0F1143DD00214C41E5204C3FE5002064
:1013AC0054E700260025D1E534000F00203CE7402F
:1013BC003C00202E2BD04027BE1BB1400D43691E94
:1013CC008D4100212C43BCE6802100260903134CDF
:1013DC000025BBE50D43691E8D410021EDB269E787
:1013EC00010015000D4C1AE50100150017E51C0055
:1013FC000F00203CE7403C00202B0CD04027FB1A70
:10140C0099400D43691E8D410021254352E700216F
:10141C00D4E71D0092E50021F3E7C046FF0700006A
:10142C00FFFF7FFFF0B55F4656464D464446F0B48D
:10143C000D0399464E002B0B87B007009246804651
:10144C009B46760DCC0F002E69D06D4B9E4235D04D
:10145C005B468022DD001204430F13432B439B4653
:10146C00C3009846674B00279C46002366440193B3
:10147C004A4615035000D20F53462D0B400D914692
:10148C0000D176E05E4A90426CD080225B0F120451
:10149C0013435C4AED0094461D4353460022DB0087
:1014AC00604449463618701C6140029017430F2F58
:1014BC0000D9AFE05448BF00C759BF465B461F4335
:1014CC0000D088E000239B469846023308270193FE
:1014DC00CEE74946022A6AD0032A00D109E2012A42
:1014EC0000D0BBE111400022002300259046CCB275
:1014FC0000212D030A0D12052D0B1543434A1B0524
:10150C0015401D436D00E4076D0825434046290036
:10151C0007B03CBC90469946A246AB46F0BD03438F
:10152C0052D05B46002B00D18AE1584600F0DEFE1B
:10153C0003000B3B1C2B00DD7BE11D22D31A3A0070
:10154C0001005D46DA4008398D4013008F402B4373
:10155C009B46B8462E4B00279C46002360444642CF
:10156C00019385E752462A432CD100250023022201
:10157C0097E752462A4321D0002D00D154E1280090
:10158C0000F0B4FE03000B3B1C2B00DD46E11D21DB
:10159C00CB1A51460200D9405346083A9540934025
:1015AC000D431B4A944660444042002279E70124D3
:1015BC0000220C40124B0025904699E70025002391
:1015CC0001226EE703226CE700239B469846013309
:1015DC00042701934CE703230C27019348E70023CE
:1015EC008025984600242D03054B81E75D46434634
:1015FC00019A6FE75D4643462100019A6AE7C046AF
:10160C00FF07000001FCFFFF40F70008FFFF0F8001
:10161C00F30300004246120C91461A0C94464246C3
:10162C0017044A461B041B0C5A43604690464A4614
:10163C0042431000039262461C003F0C7A437C43E9
:10164C0042440192220C9246019A5244904506D98A
:10165C008246802040028046C24450460390100CC3
:10166C00049048462404240C1204121905922A0CE6
:10167C002D042D0C68432C00824648467C43504375
:10168C008146200C8046574357444744BA4503D9FA
:10169C00802040028046C144380C3F04B846484480
:1016AC002404240C01900498A0444044049058460F
:1016BC00000C814658460404200C8246070048461C
:1016CC005F434C4643436046604364468346504602
:1016DC004443380C8446E4186444A34203D9802361
:1016EC005B029C46E34448463F04230C3F0C240415
:1016FC00E419574668436F4384464D46504655435C
:10170C004243380C814662444A445B44944503D9B5
:10171C00802040028446654403983F048346049825
:10172C003F0C8446E344C34580414042824610044A
:10173C0084460198674484466744A344BC46A34549
:10174C00A4419946D44464428742BF41D445804168
:10175C00E144A04699459B417F424042C84407431F
:10176C00120CBA18A045A4415F423B0064422343CB
:10177C00D71843467D19DB0D6D021D435B465A029B
:10178C00059B1A43531E9A415B46DB0D1A43434695
:10179C005B021343EA0107D501225C081340234383
:1017AC00EA07029E13436D08574AB218002A4BDD14
:1017BC00580709D00F201840042805D0181D98424E
:1017CC009B415B42ED180300E80104D54F4A1540DC
:1017DC008022D200B2184E48824200DDE7E6012496
:1017EC00DB08680718436D02530580462D0B5B0D13
:1017FC000C407DE6802259461203114208D0154256
:10180C0006D115432D0398462D0B4C46414B6FE6E4
:10181C005D4615432D032D0B3E4B69E603005546E3
:10182C00283B9D400023BCE6504600F05FFD203075
:10183C00A8E60300283B9F400023BB46984689E658
:10184C0000F054FD203073E60124A61A382E07DD73
:10185C0000220C4000230025904649E6029EA3E797
:10186C001F2E20DC20222C001800921BF0409440EC
:10187C0093400443581E83411C43F540630709D031
:10188C000F232340042B05D023001C1D9C429241A6
:10189C005242AD182B021FD5012400220C4001230B
:1018AC000025904624E61F202C004042821AD4408A
:1018BC00202E1CD04022961BB5402B43581E834132
:1018CC000720234318400025002809D00F220025AB
:1018DC001A401C00042AD8D1230068076D022D0B76
:1018EC000124DB08034398460C40002300E6002546
:1018FC00E3E780220124120315432D0398462D0B98
:10190C000C40044BF4E5C046FF030000FFFFFFFE54
:10191C00FE070000FF070000F0B557464E4645464F
:10192C00E0B40E001100F20F9246C500420F1803EE
:10193C0037037400400A4E0F7F0A3043CF4E1743D3
:10194C005A00640D520DDB0FC900B24200D1E5E024
:10195C0001267340A61AB446534500D1AFE0002EC1
:10196C0000DC0DE1002A3AD103000B4300D0E4E087
:10197C006B0709D00F232B40042B05D02B1DAB423A
:10198C00AD416D427F191D003B0200D488E0BB4B7A
:10199C0001349C4200D110E13A00B94B51461A4037
:1019AC0001235007ED08520264050543120B640D28
:1019BC000B400021280012030D0D120B64052D05A0
:1019CC0015436208AF4CDB072C40144364006408D9
:1019DC001C4321001CBC90469946A246F0BDA74B67
:1019EC009C42C5D080231B0418436346382B00DD72
:1019FC00FDE01F2B00DD30E1624620239B1A020024
:101A0C009A40664690460A009940F24046464B1E64
:101A1C0099413243114363460200DA40691A8D4200
:101A2C009B410D00BA1A5B42D71A3B0235D57A029C
:101A3C00530A98464346002B00D1C4E0404600F0C0
:101A4C0055FC0300083B1F2B00DDC5E020222900BC
:101A5C00D21A4746D1409F400A009D403A439C42CF
:101A6C0000DDC0E01C1B631C1F2B00DDE4E020210B
:101A7C0014002800C91AD8408C408D400443DA4029
:101A8C00681E854117002543002471E742466346D2
:101A9C001A4300D14CE2674645466B0700D069E714
:101AAC00012351467807ED08FA080B4005437349AA
:101ABC008C4238D012036405120B640D79E7002EAA
:101ACC0000DC9AE0002A47D06C4A944200D14FE7E0
:101ADC008022120410436246382A00DC08E10143DC
:101AEC00481E81410022C9B24919D219A942BF41ED
:101AFC000D007F42BF183A0200D442E15F4A013424
:101B0C00944200D14EE101205D4A69083A402840D8
:101B1C000843D507054357089A4629E706000E43A4
:101B2C0000D017E714E72900114300D1F9E1802117
:101B3C0009030A431203120B3BE701235B4298464D
:101B4C00C4446346002B72D1691A8D429B413F1AE3
:101B5C005B42FF1A0D0068E702000A4300D107E759
:101B6C00012252429046C4446246002A00D0E6E06C
:101B7C006918A942B6413F187642F7190D00BAE729
:101B8C00002E00D080E0621C5205520D012A00DCB0
:101B9C00F9E06A1A91464D45B6413A1A7642921BC3
:101BAC009046120200D499E04D1BA9428941C71BF3
:101BBC0049427A1A90469A463CE752460123002540
:101BCC0013400022F5E6280000F090FB20300300C3
:101BDC00083B1F2B00DC39E72A00283882400025FF
:101BEC009C4200DC3EE7264FE41A1740C0E6014356
:101BFC00481E81410022C9B210E7002E00D0F1E04E
:101C0C00621C94465205520D012A00DCA0E01B4ACE
:101C1C00944500D1C5E06918A94292413F1852423F
:101C2C00D2194908D5070D4357086446A0E6134B53
:101C3C009C4200D0D9E69BE611001F3CE1400C0011
:101C4C00202B00D180E04021CB1A9A4015436A1E0C
:101C5C0095410027254300241FE763460200203BE3
:101C6C00DA406346202B71D0402366469B1B98407C
:101C7C000143481E814111430022CFE6FF070000BB
:101C8C00FFFF7FFFFFFF0F80002C48D0CA4CA24201
:101C9C0000D1A2E07442A1468024240427434C4680
:101CAC00382C00DDDBE01F2C00DD44E14E46202407
:101CBC00A41B3E00A640A246B0464C462E00E64071
:101CCC00B4464646644626435446A5406C1EA54180
:101CDC0034002C434D46EF400D1B28E04A4643464A
:101CEC004D461A4300D0A5E6002300240025DEE66D
:101CFC001F2A5ADC66462022921B0600964091460B
:101D0C00B04662460E00D640424616434A469140C3
:101D1C004A1E9141020060463143C240E4E63C0059
:101D2C002C435AD0F443A146002C52D14D1BA9424E
:101D3C008941C71B49427F1A14009A4675E69E4A90
:101D4C00944200D0C7E613E600227FE700208FE71D
:101D5C00002C00D0C8E03B002B4300D10FE1030066
:101D6C000B4300D104E66918A9429B413F185B4222
:101D7C00DF193B0200D41AE1904B0D001F40644662
:101D8C00F6E59A4689E63A002A43002C5CD1002AF3
:101D9C0075D102000A4300D1CAE007000D009A4633
:101DAC00E6E564460022002581E662460600203AFC
:101DBC00D6406246B046202A00D1B7E040226646A3
:101DCC00921B904001434246481E81411143002220
:101DDC008AE6794CA24200D061E707000D0014009E
:101DEC009A46C5E5002C41D13C002C4378D0F443F5
:101DFC00A146002C20D0704CA24271D04C46382CFD
:101E0C0000DDB2E01F2C00DDBCE02026341BA24616
:101E1C003C005646B4404E46A0462C00F440A44626
:101E2C00444666463443A4465446A54064466E1E5A
:101E3C00B54125434C46E7406D188D4289413F180A
:101E4C004942CF19140056E6002A2FD102000A434A
:101E5C0000D184E007000D009A46574C88E53D43BD
:101E6C006F1EBD41ECB200270D1B60E7524CA24225
:101E7C0036D0744280263604A1463743BEE70200B2
:101E8C000A4300D174E56A1A90464545B6413A1AA0
:101E9C007642921B9446120200D4F7E54D1BA942E0
:101EAC008941C71B49427F1A9A4661E502000A43E1
:101EBC003AD0ED087C072C438025FA082D032A42E2
:101ECC0008D0C7082F4205D145072C003A009A4686
:101EDC00C9080C43670FD200E5001743364C47E5A1
:101EEC0007000D00140043E53A002A4343D00200DA
:101EFC000A4319D0ED087C072C438025FA082D03E2
:101F0C002A4207D0C6082E4204D147073C003200B3
:101F1C00C9080C43D700620FE50017439A46264CBC
:101F2C0026E50022002544E5234C21E5002049E765
:101F3C0000230025BBE54C463E00203CE6404C46C9
:101F4C00B446202C31D040244E46A61BB7403D430E
:101F5C006C1EA54164462C4300270D1BE7E680222E
:101F6C0000231203144C0025A1E53D436F1EBD4117
:101F7C000027EDB260E707000D000F4CF8E40700F6
:101F8C000D00F5E44E463C00203EF440A0464C4685
:101F9C00202C0ED040244E46A41BA7403D436F1E60
:101FAC00BD4144460027254346E70027CFE70D00F7
:101FBC0073E50027F2E7C046FF070000FFFF7FFF35
:101FCC000B0330B5134D1A0B4B005B0DC90F0024DE
:101FDC00AB4211DD104CA34210DC8024640322437D
:101FEC000E4CE41A1F2C0CDD0D48C31ADA401300FA
:101FFC005C42002900D11C00200030BD094BCC18DC
:10200C00FAE7E040084CA44663449A4013000343AB
:10201C00EEE7C046FE0300001D0400003304000080
:10202C0013040000FFFFFF7FEDFBFFFF70B50028DE
:10203C0030D0C317C4185C40C50F200000F056F90F
:10204C00174B184A1B1AD21A1F2A18DD164AD21A15
:10205C009440002224035B05240B5B0D002110002F
:10206C0024030A0D1205240B1443104A1B051440BB
:10207C001C436400ED0764082C43210070BD210053
:10208C0091400A000B21081AC4405B052403240B61
:10209C005B0DE3E70025002300240022DEE7C046A9
:1020AC001E0400003304000013040000FFFF0F8027
:1020BC004200120E511C4302C9B270B55D0AC40F26
:1020CC00012915DDE02189008C466D071B0B62444C
:1020DC00002128000D0D2D052B431C4D52052B40C6
:1020EC00520813435B00E4075B082343190070BDDF
:1020FC00002A15D1002D1FD0280000F0F7F80A286F
:10210C001DDC0B232A001B1ADA40130002001532C7
:10211C0095400F4A1B03121A52051B0B520DD7E7A1
:10212C00002D06D080221B0B120313436D07094AA6
:10213C00CEE7084A0023CBE700220023C8E70300C0
:10214C000B3B9D402B000025E3E7C046FFFF0F80B3
:10215C0089030000FF0700004B0070B55E0D0C03F7
:10216C00751C640A420F6D052243C90FC4006D0D26
:10217C00012D2ADD3B4BF318FE2B1ADC002B42DD24
:10218C008001451EA841D2001043620F0243500744
:10219C0004D00F201040042800D004328020C0044A
:1021AC00104021D00133FF2B03D09201520ADBB235
:1021BC0001E0FF2300225202520ADB0513435B00AD
:1021CC00C9075B080B43180070BD002E07D01443E1
:1021DC00EFD08020D20080040243FF23D7E72243B4
:1021EC000023002A03D00522D208FF2B03D0520271
:1021FC00520ADBB2DFE7002A32D08020C003024350
:10220C005202520AD7E71800173014DB8020000462
:10221C0002431E20C01A1F280FDC2500124BF31896
:10222C009D406E1EB5419A402B0013432200C240C4
:10223C001A430023ABE70023D5E702256D42EB1AC6
:10224C001500DD40202809D0084BF3189A401443A0
:10225C00621E9441220000232A4398E70022F6E7ED
:10226C000022A8E780FCFFFF82FCFFFFA2FCFFFF1F
:10227C008446101C62468C46191C634600E0C0461E
:10228C001FB500F0F5F8002801D40021C8421FBD8D
:10229C0010B500F049F84042013010BD10B500F007
:1022AC00E7F8002801DB002010BD012010BDC0465E
:1022BC0010B500F0DDF8002801DD002010BD012074
:1022CC0010BDC04610B500F06FF8002801DC0020EE
:1022DC0010BD012010BDC04610B500F065F80028F7
:1022EC0001DA002010BD012010BDC0461C210123C5
:1022FC001B04984201D3000C10391B0A984201D3DD
:10230C00000A08391B09984201D30009043902A2BA
:10231C00105C40187047C046040302020101010121
:10232C000000000000000000F0B55F4656464D4628
:10233C004446F0B41F035C00DB0F9A46194B0E03A6
:10234C004D00C90F8046360B6D0D8B4691463F0BE9
:10235C00640D9D4219D0134B9C421BD00123A54206
:10236C0006D018003CBC90469946A246AB46F0BD40
:10237C00BE42F6D1C845F4D1D34510D0002DF0D1D2
:10238C00304303005A1E9341EBE731000123014314
:10239C00E7D1E0E73A430123002AE2D1DEE700234C
:1023AC00DFE7C046FF070000F0B55F4644465646DF
:1023BC004D46F0B41F033C0B2C4F0E034D00A346AF
:1023CC005C008446360B6D0DC90F9046640DDB0F17
:1023DC00BD422BD0254FBC422ED0002D0ED1304308
:1023EC000700814678427841002C17D15F463A436A
:1023FC0014D14B460020002B0AD006E0002C02D151
:10240C005846024301D099421AD00123484218433E
:10241C003CBC90469946A246AB46F0BD0028F2D093
:10242C0058425841012240421043F1E7370007431C
:10243C00D0D002204042EBE75F461743CDD0F8E7FF
:10244C00A542E2DC05DB5E45DFD808D000205E4506
:10245C00DED248424841012340421843D8E7C445E4
:10246C00D3D80020C445F4D3D2E7C046FF07000000
:10247C00F0B55F464D4644465646F0B41C03240B5B
:10248C00A4462F4C0F034D005E00C90F80463F0B36
:10249C006D0D8B469146760DDB0FA54220D0284C56
:1024AC00A64222D0002D12D1384344424441002E82
:1024BC0020D0002C0DD05C42634101245B421C43B4
:1024CC0020003CBC90469946A246AB46F0BD002E7F
:1024DC0017D05B4519D05B465C4201231C43EFE7E8
:1024EC00390002240143EBD1D9E7614602241143A0
:1024FC00E6D1D7E761460A43DBD100240028DFD0C0
:10250C00E9E761460A43E4D1E5E7B54203DD012280
:10251C005C421443D4E7B542CDDB6745DBD809D028
:10252C0000246745CCD259464C42614101244942B2
:10253C000C43C5E7C845CED80024C845F3D3BFE744
:10254C00FF0700000D488546002103E00C4B5B584B
:10255C00435004310B480C4B42189A42F6D30B4AA9
:10256C0002E0002313600432094B9A42F9D300F0C5
:10257C0013F80DF02BF80AF0D1FCFEE700800020D8
:10258C0000FD000800000020B805002038060020DF
:10259C00A4440020FEE700000121114B1A680A43F5
:1025AC001A6058680F4A02405A6018680E4A024076
:1025BC001A6018680D4A02401A6058680C4A0240AA
:1025CC000F205A60DA6A8243DA62186B094A0240B9
:1025DC001A635A6B8A435A6300229A607047C0464A
:1025EC00001002400CB8FF08FFFFF6FEFFFFFBFFD8
:1025FC00FFFFC0FFECFEFFFF0221024A13688B4372
:10260C001360704710E000E00223024A11680B438C
:10261C001360704710E000E00023032170B50268DE
:10262C0082B00193936804000B40012B31D0916868
:10263C001C4B194222D1012391680B4393601A4B16
:10264C001A491868FDF758FD0190019B002B05D025
:10265C00019B013B0193019B002BF9D10CF08CFFEA
:10266C000125060004E00CF087FF801B022805D82A
:10267C0023681B681D42F6D0002008E01023626C12
:10268C000120134363640123A26C1343A36402B0BF
:10269C0070BD11680B42EFD1D3681B04C7D5002065
:1026AC00F5E7C046170000800000002040420F00F4
:1026BC00F8B5041E00D17FE0436C002B66D0636C30
:1026CC00DB065DD4042523689A68154058D1616CEB
:1026DC00474A0A4002210A4362649A6801310A405F
:1026EC00012A59D01821DA688A43A1680A43DA60B2
:1026FC001A696168920092080A431A61D9683D4AC6
:10270C00276A0A40DA60A2697E039103E269D20368
:10271C000A43616B0139481E81410803E1680A4391
:10272C0021693243022959D0216B49000A43616A5D
:10273C0002432A4301294BD0C220A16AFF308142B7
:10274C0002D0E06A01430A438020D9684005114356
:10275C00D960A16B814226D0481E062823D9D9689E
:10276C00254B0B409A4229D01222636C01209343D3
:10277C00023A134363640123A26C1343A36404E081
:10278C0010230120626C13436364F8BD4022836400
:10279C0083540CF05FFB92E719680A42AED1DA68F9
:1027AC0012049FD5AAE7072558692940A843586108
:1027BC00586901435961D2E70120E6E7002303225F
:1027CC00A364636C00209343023A13436364DCE715
:1027DC00002F05D1802149020A43ADE70425A3E768
:1027EC002020656C28436064A06C0143A164A3E7BE
:1027FC00FDFEFFFF1902FEFFE7FF3F83036810B5E4
:10280C009A6804000220520700D510BD4022A15C3A
:10281C000129FAD00121A154E269012A05D0200036
:10282C00FFF7FAFE0028F0D12368616C084A0020FB
:10283C000A40802149000A4362640022C039A26424
:10284C0062541C321A609968183A0A439A60DCE7A1
:10285C00FEF0FFFF402370B5C25C04000220012A89
:10286C0000D170BD0122E2542368033299680A42F8
:10287C0010D099680A421DD10CF07EFE042506008A
:10288C0004E00CF079FE801B02281BD823689A68A0
:10289C001542F6D103219A680A40012A1CD0626CB9
:1028AC00224B002013400122134363640022402377
:1028BC00E254D6E79A681042DED1102299680A4396
:1028CC009A60D9E71023626C0120134363640123DF
:1028DC00A26C1343A364E9E719680A4202D1DA68CF
:1028EC001204DCD505219A680A40012A09D010236C
:1028FC00626C0120134363640123A26C1343A36431
:10290C00D4E70222996801250A439A6003221A60CF
:10291C000CF032FE060004E00CF02EFE801B0228A8
:10292C00E5D823689B681D42F6D1B8E7FEFEFFFF91
:10293C00F8B5436905000E00082B4ED003680C2433
:10294C00DB68DB0740D40CF017FE07002A68731C09
:10295C0027D113682342FCD080216B6C89000B4378
:10296C006B64C023D1681B01194213D12B6A002B55
:10297C0010D113681B070DD593685B072FD40C215E
:10298C0053688B435360696C194B19400433FF3304
:10299C000B436B64AB690020002B01D10C3313602B
:1029AC00F8BD13682342D7D1002E04D00CF0E4FDFF
:1029BC00C01B8642CAD204236A6C032013436B6487
:1029CC0000224023EA54EBE72023426C1343436478
:1029DC0000224023C2540120E2E70824B3E720235D
:1029EC00696C0B436B640123A96C0B43AB64D1E79B
:1029FC00FEFEFFFF70B50D00016804008B68160029
:102A0C0002205B0700D570BD4023E25C012AFAD09E
:102A1C000122E254E369012B27D1626C164BE06B67
:102A2C00134080225200134363640023C03AA36412
:102A3C00A354124B8362124BC362124B03631C23CD
:102A4C000B604A680C3B13434B600123CA68134369
:102A5C00CB602A004031330000F0AEFB0423226827
:102A6C00002091680B439360CDE72000FFF7D4FD65
:102A7C000028C8D12168D0E7FEF0FFFFF12B000839
:102A8C00652C0008752C0008F8B54023C25C0400C6
:102A9C000220012A00D1F8BD0122E254236803323E
:102AAC0099680A4210D099680A4238D10CF064FD3A
:102ABC000425060004E00CF05FFD801B022854D8AE
:102ACC0023689A681542F6D10121DA68E06B8A43D3
:102ADC00DA6000F09BFB051E55D040231021626C80
:102AEC001343636423685A688A435A609A680D39A1
:102AFC000A40012A42D119680A4202D1DA6812044A
:102B0C003CD505219A680A40012A4DD01023626CED
:102B1C00134363640123A26C1343A3642EE09A68ED
:102B2C001042C3D1102299680A439A60BEE7196813
:102B3C000A4202D1DA6812042FD505219A680A409C
:102B4C00012A12D10222996801260A439A600322B3
:102B5C001A600CF011FD070023689B681E421CD004
:102B6C000CF00AFDC01B0228F6D91023626C01255B
:102B7C00134363640123A26C1343A3640022402318
:102B8C002800E25487E7102123685A688A435A6068
:102B9C009A680D390A40012AC9D0626C0D4B13405A
:102BAC00012213436364E9E70222996801260A4370
:102BBC009A6003221A600CF0DFFC070004E00CF0B2
:102BCC00DBFCC01B0228A1D823689B681E42F6D1EF
:102BDC00D4E7C046FEFEFFFF0368186C7047C04682
:102BEC007047C0465021436A10B55A6C114221D12E
:102BFC005A6CB131FF310A43C0215A641A68090179
:102C0C00D068084212D1196A00290FD1116809073E
:102C1C000CD59168490711D40C205168814351603F
:102C2C00596C0B4A0A4001210A435A641800FFF7F9
:102C3C00D7FF10BDDB6B1B6B9847FAE72022596C52
:102C4C000A435A640122996C0A439A64EEE7C0461F
:102C5C00FEFEFFFF7047C04610B5406AFFF7FAFF53
:102C6C0010BDC0467047C0464023406A10B5426C48
:102C7C00134343640423826C13438364FFF7F2FF12
:102C8C0010BDC0460422036870B5196804000A42DE
:102C9C0049D059680A4246D0626CD20604D48021CD
:102CAC00626C89000A436264C022D9681201114225
:102CBC0012D1226A002A0FD11A6812070CD59A6811
:102CCC00520743D40C215A688A435A60626C244BD5
:102CDC0013400122134363642000FFF781FF0C2291
:102CEC0023681A6080251A68154202D05A6815426A
:102CFC0021D1102219680A4214D059680A4211D005
:102D0C00626B012A02D0DA68D20709D50222A16CC3
:102D1C0020000A43A26410221A60FFF7A3FF236865
:102D2C0010221A6070BD082219680A42DAD059685C
:102D3C000A42D7D0B0E78022636C5202134363641B
:102D4C0020000AF059FF23681D60D2E72023626C33
:102D5C00134363640123A26C1343A364BCE7C04612
:102D6C00FEFEFFFF002370B582B001934033C25CBE
:102D7C0004000220012A2BD00122A06BE25423680C
:102D8C009D686D0726D4334D4E68AE4235D00E6823
:102D9C009D6AB2402A439A628022520590420FD01B
:102DAC00013806280CD907208A68596901408A42E3
:102DBC0006D0596902408143596159690A435A61E5
:102DCC003300103B012B0ED9002000224023E2548B
:102DDC0002B070BD20230120626C13436364002297
:102DEC004023E254F4E71C4A1368102E18D08021BB
:102DFC00C9030B4313600020F1E70968986A8A4005
:102E0C00904398620B00103B012BDDD8124B1A68D3
:102E1C0010291DD0114B13400F4A00201360D4E72A
:102E2C00802109040B4313600D4B0E491868FDF704
:102E3C0063F98300181840000190019B002BC3D04C
:102E4C00019B013B0193019B002BF9D10020BCE7B6
:102E5C00054BE0E70110000008270140FFFFBFFF12
:102E6C000000002040420F00FFFF7FFF402370B5A1
:102E7C00C45C02000220012C33D00138D0541368FA
:102E8C00986840072ED40326DC681D480D68204046
:102E9C00D860D8684C682843A4062043D860DC6806
:102EAC00D868E408CD6834406400C008A5403040C0
:102EBC000C694000844020001E6A124C2D043440E2
:102ECC001C621C6A896820432843186280201860A1
:102EDC00012910D0596881435960002140230020FA
:102EEC00D15470BD20230120516C0B43536400213D
:102EFC004023D154F5E75968084358600020F6E7A1
:102F0C00FFFF3F8300F000F0402370B5C25C04006B
:102F1C000220012A29D001220321E254226893685D
:102F2C000B40012B22D0616C1C4B0B4002210B433C
:102F3C0080216364936809060B4393600CF01CFBBF
:102F4C00050004E00CF018FB401B02281AD823687B
:102F5C009B68002BF6DB03220020636C9343023A40
:102F6C001343636400224023E25470BD11680B428A
:102F7C0002D1D3681B04D6D52023626C01201343E5
:102F8C006364EFE71222636C01209343023A13430C
:102F9C00636400224023E254E7E7C046FDFEFFFFD6
:102FAC0070B5002814DB032483082040FC34260071
:102FBC00134AC0259446C0008901864021408140B7
:102FCC009B006344AD005A59B2431143595170BD33
:102FDC0003240F23C0B203402040FC342500094ACF
:102FEC00C00094468901854021408140083B9B08E4
:102FFC009B006344DA69AA431143D961E7E7C046F1
:10300C0000E100E000ED00E01F2318401E3B834070
:10301C00014A13607047C04600E100E01F231840CE
:10302C001E3B8340802201498B50704700E100E039
:10303C000A4A431E012093420ED8C020084A09496F
:10304C0053600B6A00061B021B0A03430B6200232E
:10305C0000209360073313607047C046FFFFFF00EA
:10306C0010E000E000ED00E01F23C02218401E3BE2
:10307C008340024952008B507047C04600E100E08B
:10308C00042805D00421054A13688B43136070474C
:10309C00024B1A6810431860F9E7C04610E000E0D4
:1030AC007047C04610B5FFF7FBFF10BD30B50028C8
:1030BC0023D02123C35CDBB2002B1BD021210223A4
:1030CC000468435422680E4B85681A4043682B43AE
:1030DC00C5682B4305692B4345692B4385692B43F5
:1030EC00C5692B431343236000238363013343548B
:1030FC00002030BD20228354E0E70120F9E7C046D0
:10310C000FC0FFFF002840D0012103681A688A43D2
:10311C001A6000221A605A609A60DA60214A93425F
:10312C001BD0214A93421FD0204A934223D0204ADD
:10313C0093422CD080221F4B92025A6080221203A1
:10314C005A608022D2021B4B5A60002321228363D7
:10315C008354013A8354002070470222154B5A6065
:10316C0006325A60043AEEE72022124B5A60603263
:10317C005A60403AE7E780220E4B92005A60802258
:10318C0012015A608022D200DDE70120E4E78022A0
:10319C00084B92015A60802212025A608022D2019E
:1031AC00D1E7C046080002401C000240300002403B
:1031BC00440002400000024070B52025465D022408
:1031CC00012E1ED00126465501354455046825684C
:1031DC00B543256063604368102B14D0A160E26096
:1031EC0002232268134323600423226813432360C1
:1031FC0008232268134323600123226813432360AE
:10320C000024200070BDA260E160E9E701210268A2
:10321C00F8B5136804008B4313600CF0ADF9FA2673
:10322C0007000125B60004E00CF0A6F9C01BB04263
:10323C000AD823681B682B40F6D1212201210020DB
:10324C00A154013AA354F8BD2022A36B03211343CC
:10325C00A3632123E15400230320A354F3E7C046C6
:10326C00212310B5C35C022B03D0042383630120FC
:10327C0010BD0E2103681A688A431A601A680D394A
:10328C008A431A60134A93421AD0134A934215D0B8
:10329C00124A934218D0124A934218D080225202FA
:1032AC00104B5A6001222123C2540022013BC2540C
:1032BC00436B002B06D098470020D9E71022EFE78C
:1032CC000122EDE70020D3E780225200E8E78022BC
:1032DC005201E5E7080002401C00024030000240A9
:1032EC00440002400000024070B503680400B0497D
:1032FC00B0480D681A1E824241D0AF48834200D1BB
:10330C00ACE0AE48834200D1BCE0AD48834200D172
:10331C00FFE0280336D40968490300D5B7E0A44977
:10332C00086880218902084228D0022118680142CD
:10333C0024D01868800600D49BE09E4B9A4200D1A2
:10334C009EE09D4B9A4200D1AEE09C4B9A4200D13C
:10335C00EEE09B4B9A4200D1EFE080229202944B1C
:10336C005A60A36B0122A3632123E2540022013B88
:10337C00E254A36A002B01D02000984770BD2807A7
:10338C0000D4FEE008211868014227D01868884351
:10339C00884918608B4200D197E087498B4200D155
:1033AC00C9E086498B4200D1CAE0854980208B4216
:1033BC0000D1E4E000037E4948600121A06B014389
:1033CC00A163042021216054002001396054216B39
:1033DC00002903D02000884723681A0074497548D7
:1033EC00096883422BD104220A4258D019680A4238
:1033FC0055D01A68920600D590E06E4A04201968E0
:10340C00814319606B498A4200D187E06A498A423C
:10341C005DD06A498A4200D195E069498A4200D15F
:10342C009FE080216248C902416011252121655429
:10343C00E16A002954D180210068890273E75E4853
:10344C0083420ED05D48834230D14A0500D5A9E0B5
:10345C00574A1068594A8021890064E7280691D49C
:10346C0009684A0600D58EE0514A20211068524A5C
:10347C0059E71868884318604E4B9A4200D060E7B1
:10348C0002226CE7280500D57CE70968DDE719689E
:10349C00490700D443E719688906B3D4AEE7444A18
:1034AC0010680221434A3EE7202258E744488342F1
:1034BC0000D031E74A0402D51A68520770D43C4A4E
:1034CC0010683F4A802189012DE7082073E74021CD
:1034DC001125374841601F396554E16A00295CD0D9
:1034EC0020008847334D3249236808681A000221AE
:1034FC00AB4200D117E7304D1E31AB4200D112E781
:10350C002E498B42A7D02E498B42DBD080218902D9
:10351C0009E7280400D535E70968CBE70421112019
:10352C00234A51601D316054E16A0029D8D1B7E7B4
:10353C008022920013E780203DE7802292010EE763
:10354C008020000137E780211948C900416011250E
:10355C0021216554E16A0029C2D1802100688900CB
:10356C00E1E680211248C9014160112521216554F1
:10357C00E16A0029B4D1802100688901D3E60002F8
:10358C0019E709682FE71A68520700D46CE70A4A52
:10359C001968890600D431E738E700682021C2E6B3
:1035AC00074AF5E71A68520700D451E7034AEFE7D8
:1035BC0000000240080002401C00024030000240A3
:1035CC0044000240F8B504000BF0D6FF01250700BB
:1035DC001F4E631C25D101221D49CB681A42FCD118
:1035EC0020221B4BD9680A4227D1194BDA68D20624
:1035FC0003D4DB6800205B0712D5154BDB68DB06B8
:10360C001DD404210023124AD268520705D5012388
:10361C00104AD0690343D3610B0001200C4AD360DC
:10362C00F8BDF3681D42DBD0002C04D00BF0A4FFD6
:10363C00C01B8442CDD20320F2E7DA60D5E7022327
:10364C00044AD1690B43D36114211023DBE7C04634
:10365C0000200240D0080020F0B55F4656464D468B
:10366C004446F0B40B6885B08B469C460022002B78
:10367C0000D1B7E0644BE1469A46644B98466AE049
:10368C00016856008C460321B1406446C9430C4086
:10369C00A44603241C40B440674627430760019F9F
:1036AC00013F012F00D880E05C46C5682940A56821
:1036BC00B5402943C160802149050B4247D0514692
:1036CC0001248969032721435446A161A16901247E
:1036DC000F2621404E4C1740A446BF00BE409024FC
:1036EC00039103999108890061448D68E405B54301
:1036FC00A04200D17DE0474EB04200D17BE0464E67
:10370C00B04200D17AE0454EB04200D179E00526B6
:10371C00BE4035438D604146009C0968E543DC039F
:10372C005DD429404446216061689C0354D42940EF
:10373C0044466160A168DC024BD429404446A16038
:10374C00E1689B0242D429400C004346DC604B46A6
:10375C000132D34046D001254C4695402C40009474
:10376C00F5D05B465B6810211F008F43391E019713
:10377C00022985D10F240531114089008C40D708CE
:10378C00BF00C7193E6AA6435C4624698C402100E1
:10379C003143396203215600B1400324C9431C4014
:1037AC00B44007680F40274307605C46E4688768AD
:1037BC00B4400F402743012487604768AF433D0066
:1037CC001F09274097403D4345606DE7009C0C4323
:1037DC00BBE7009C2143B1E7009C2143A8E7009C78
:1037EC0021439FE705B03CBC90469946A246AB46A8
:1037FC00F0BD00268DE70126BE408AE70226BE40BA
:10380C0087E70326BE4084E7001002400004014015
:10381C00000001400004004800080048000C00486B
:10382C00F0B55F4656464D464446F0B4002383B08F
:10383C00002969D001229446023290460C329146FE
:10384C0003E00A000133DA405ED066469E40350044
:10385C000D40F6D047465A009740FA43046814408E
:10386C000460DC08A400071901973F6ABA460727D1
:10387C001F40BF00BB464F465C46A740BB46574661
:10388C005C46A7433C00019F3C6284684F46144051
:10389C0084604468B4434460C4682240254CC260D0
:1038AC00A24644461C40A400A7409A0892005244E9
:1038BC009668BA463E409027FF05B8422BD01E4F63
:1038CC00B8422AD01D4FB8422BD01D4FB8422CD035
:1038DC000527A7403C00A642B3D15646ED43946859
:1038EC000133B4439460174A164C12682A40226084
:1038FC0062682A406260A2682A40A260E2681540B1
:10390C000A00E560DA40A0D103B03CBC9046994671
:10391C00A246AB46F0BD0024DDE76746A7403C005D
:10392C00D9E70227A7403C00D5E74746A7403C0013
:10393C00D1E7C046000001400004004800080048E0
:10394C00000C00480004014000690840411E8841F9
:10395C00C0B27047002A01D1816270478161FCE7D7
:10396C00044B10B55A69104202D0586109F052F953
:10397C0010BDC04600040140F0B5102347460400BA
:10398C0080B40D0016000227984622686B1C2DD1BE
:10399C0002211020936919422BD193691842F9D056
:1039AC00202193691942FCD01023D3611033D361C9
:1039BC0093699B0701D500239362012391690B4204
:1039CC0002D191690B43936151681E4B0B405360BC
:1039DC000423636420224123E25400230120223279
:1039EC00A354023AA35404BC9046F0BD93691F4201
:1039FC0001D00020F7E741469369194213D1002DFD
:103A0C0004D00BF0B9FD801B8542BED22022636C22
:103A1C000320134363644123E25400232232A35452
:103A2C00023AA354DFE7202707E0002DD2D00BF099
:103A3C00A3FD801B8542CDD3226893691F42F4D02D
:103A4C00B2E7C04600E800FEF0B54746040080B47B
:103A5C000D001600002945D010232027984604E0BD
:103A6C000BF08AFD801B854243D3226893691F4269
:103A7C004CD1414693691942F2D020276B1C25D1B9
:103A8C00202193691942FCD01023D3611033D361E8
:103A9C0093699B0701D500239362012391690B4223
:103AAC0002D191690B4393615168194B0B405360E0
:103ABC000423636420224123E25400230120223298
:103ACC00A354023AA35404BC9046F0BD93691F4220
:103ADC00DAD1002DEED00BF04FFD801B8542E9D3DF
:103AEC002268CBE7026893699B060FD49369DB06C7
:103AFC00C3D42022636C0320134363644123E25438
:103B0C0000232232A354023AA354DCE70020DAE764
:103B1C0000E800FEF8B51E00040015000268254BF5
:103B2C005068890503402448890D03430B43F1B2C7
:103B3C000904194351602000079A0699FFF71CFFEE
:103B4C00071E17D1012E09D023682A0A9A620699FA
:103B5C00079A2000FFF710FF00280BD12168EDB267
:103B6C008D628025069B01330BD180228B691A4212
:103B7C00FCD004E0636C0127042B00D00327380031
:103B8C00F8BD8B691D42FAD1069B002B08D00BF0B7
:103B9C00F3FC079BC01A069B834201D32168E2E722
:103BAC0020224123E25400232232A354023AA3548C
:103BBC00E4E7C046009800FC00200001F8B51500B1
:103BCC00026804001E005068244B890503408020C5
:103BDC0080010343890D0B43F1B209041943516071
:103BEC002000079A0699FFF7C7FE071E17D1012E72
:103BFC0009D023682A0A9A620699079A2000FFF7CF
:103C0C00BBFE00280BD12168EDB28D624025069BCE
:103C1C0001330BD140228B691A42FCD004E0636C57
:103C2C000127042B00D003273800F8BD8B691D42F7
:103C3C00FAD1069B002B08D00BF09EFC079BC01AF8
:103C4C00069B834201D32168E2E720224123E25400
:103C5C0000232232A354023AA354E4E7009800FC58
:103C6C0010B5041E4DD04123C35CDBB2002B3ED0FB
:103C7C00242241230121E25423681A688A431A60E2
:103C8C006168214A0A401A619968204A0A409A6080
:103C9C00A268E168002A1ED1022924D05A681C4966
:103CAC0000200A435A60216962691143A269120219
:103CBC000A43DA60216AE2690A431A600122196830
:103CCC000A431A602021002341226364A15401326B
:103CDC002363A35410BD01290ED08420000202439B
:103CEC009A600229DAD1802212015A60D6E740226A
:103CFC0083540BF09DF9BBE7802109020A439A60BB
:103D0C00CCE70120E6E7C046FFFFFFF0FF7FFFFF97
:103D1C000080000270B5041E13D04125242301211C
:103D2C000268435513688B4313600BF049FA002368
:103D3C0042220020636463552363A354023AA354C4
:103D4C0070BD0120FCE7C046F0B54D4644465F46C9
:103D5C005646F0B483B099460CAB20CB04001E88B9
:103D6C004123C35C0F0090460220202B06D003B0E9
:103D7C003CBC90469946A246AB46F0BD002D3DD0CA
:103D8C00002E3BD04023E25C012AF0D00122E25409
:103D9C000BF0F2FB80231B0282469B4605E00BF0E6
:103DAC00EBFB5346C01A19282AD85A4623689B693C
:103DBC0013405B45F3D021224123E25401331F32DF
:103DCC00E254002363649B466363534601930E9B4A
:103DDC006562009366854B46424639002000FFF72A
:103DEC0099FE002816D0636C042B04D040235A464D
:103DFC000320E254BBE75A463C33E2540120B6E7B9
:103E0C0020224123E25400232232A354023AA35429
:103E1C000320ACE7638DFF2B63D9FF232268238536
:103E2C005168434BBF050B404249BF0D0B433B430D
:103E3C005360FF231B04802598463D4E02E0638DA2
:103E4C00002B60D052460E992000FFF795FD0028FC
:103E5C0042D1636A2268591C61621B789362638D3C
:103E6C00013B9BB26385238D013B9BB22385002BC9
:103E7C00E5D1638D002BE2D00E9B01330ED19369FB
:103E8C001D42FCD0638DFF2B17D9FF23238553686C
:103E9C00284933400B433B435360D0E793691D42A1
:103EAC00F0D10E9B002BABD00BF066FB5346C01A27
:103EBC000E9B8342A4D32268DFE74046638D516892
:103ECC009BB223851B041840802331409B040B4379
:103EDC0003433B435360B2E7636C042B8ED0032047
:103EEC0045E72068618D124A436889B21A408023E5
:103EFC0021859B04C9B2BF0509041343BF0D0B43B5
:103F0C003B43436095E752460E992000FFF79CFD1A
:103F1C000028E1D120212368074AD9615D682A4035
:103F2C005A604123E1540133E054023BE0541EE754
:103F3C00009800FC0000FF0100E800FEF0B54D46C3
:103F4C0044465F465646F0B483B099460CAB20CB42
:103F5C0004001E884123C35C0F0090460220202BD6
:103F6C0006D003B03CBC90469946A246AB46F0BD89
:103F7C00002D3DD0002E3BD04023E25C012AF0D036
:103F8C000122E2540BF0F8FA80231B0282469B4676
:103F9C0005E00BF0F1FA5346C01A192837D85A46E7
:103FAC0023689B6913405B45F3D022224123E254E2
:103FBC0001331E32E254002363649B466363534611
:103FCC0001930E9B6562009366854B464246390011
:103FDC002000FFF7F3FD002823D0636C042B04D0E2
:103FEC0040235A460320E254BBE75A463C33E25482
:103FFC000120B6E793691E425BD10E9B002B06D0C5
:10400C000BF0BAFA5346C01A0E9B83424BD22022B5
:10401C004123E25400232232A354023AA354032036
:10402C009FE7638DFF2B61D9FF232268238551689D
:10403C00444BBF050B404449BF0D0B433B435360FE
:10404C00FF23042580261B0498460E9B01331AD1AE
:10405C0093691D42FCD0636A526A591C61621A70E2
:10406C00238D628D013B013A9BB292B2238562850E
:10407C00002B02D1638D002B14D1638D002B46D005
:10408C0022680E9BE2E793691D42E4D10E9B002B44
:10409C00BDD00BF071FA5346C01A0E9B8342B6D3B7
:1040AC002268D3E70E9B22680133A3D193691E4289
:1040BC00FCD0638DFF2B09D9FF2351682385214B3D
:1040CC000B4022490B433B435360D6E74146608D7E
:1040DC00536880B22085000408401A491940802397
:1040EC009B040B4303433B435360C6E72268608D3C
:1040FC001449536880B21940154B2085C0B2BF05D6
:10410C0000040B43BF0D03433B43536098E75246F7
:10411C000E992000FFF798FC002805D0636C042B47
:10412C0000D165E703201CE720212368094AD961E7
:10413C005D682A405A604123E1540133E054023B4C
:10414C00E0540EE7009800FC0024FF010000FF0182
:10415C000024000200E800FE036810B599691A6893
:10416C00436B002B00D0984710BDC0467047C0462B
:10417C007047C0467047C0467047C0467047C0463F
:10418C007047C0460023422210B583543F4A0400B6
:10419C00C26241224385436C19434164835C282BE2
:1041AC0028D0835C292B25D0835C2A2B22D0835CDE
:1041BC00835C0368FE20196881431960A15C602947
:1041CC0001D02021A154002222636263802219684D
:1041DC00D2010A402FD180211868090201403CD13C
:1041EC004123E25C602A49D040232000E154FFF7D0
:1041FC00C5FF10BD41232822E35C13406F3A282BE6
:10420C0001D0F722524241232821E35C0B40282B9A
:10421C0001D0F7225242236819680A401A602821FB
:10422C004122A15400222263194A19686263802238
:10423C00D2010A40CFD01968164AA06B0A401A6006
:10424C00154B002243634023E254FFF709F8002882
:10425C00CFD0A06B436B9847CBE718680F49014050
:10426C001960E06B0C4B43634023E254FEF7F8FFFC
:10427C000028BED0E06B436B9847BAE7403AE25453
:10428C00013BE1542000FFF77BFFB2E70000FFFF8A
:10429C002D440008FFBFFFFF41470008FF7FFFFFD1
:1042AC002022F8B504000368DA61183ADA61393271
:1042BC00A05CFE20A25C1A68824380201A605A68B7
:1042CC00000202435A605868534A02405A609A6985
:1042DC00920701D500229A6201229869024202D10A
:1042EC00986902439A611A6852042DD41A68120410
:1042FC002AD4628D002A03D00422606C02436264CB
:10430C00042211400E1E07D0616A5B6A481C606271
:10431C000B70238D002B2BD1002542272563E555EF
:10432C00636C6563002B34D1E16A3C4A914215D130
:10433C004122A15C222967D02021A15440222000D7
:10434C00A354FFF713FFF8BD4122A25C212A55D0DC
:10435C00E26B1268526892B26285CAE7E26220216F
:10436C004122A154013AA3542000FFF705FFEAE7CC
:10437C0000254227013B2385638D013B9BB263855E
:10438C00636C1A4362642563E555636C6563002BAB
:10439C00CAD0616C2000FFF7F5FE4123E25C282AAD
:1043AC00D1D11E4AE26220222563E254E5556563B1
:1043BC00002E12D0636A5A1C62622268526A1A700A
:1043CC00238D002B09D0013B2385638D013B9BB2D0
:1043DC0063850423626C134363644123FE21E25C16
:1043EC00E35C236820001A688A431A601022DA61A1
:1043FC0000224023E254FFF7BFFEA4E7A26B126831
:10440C00526892B2628574E70239A154013AA354FE
:10441C002000FFF7ADFE96E700E800FE0000FFFF6E
:10442C00F0B54E46454657464023E0B41600C25CF4
:10443C0004000D000220012A48D00122E254303B36
:10444C000B4248D104232B4200D189E0334200D1E6
:10445C0086E0638D002B0CD0636A5A1C6262226862
:10446C00526A1A70238D013B2385638D013B9BB2ED
:10447C006385638D9BB2002B1ED1E16AAC4A9142DD
:10448C001AD04222A3544133E25C292A00D084E0A2
:10449C002121013AE2542163E35CD1311340282BF2
:1044AC0000D1EBE02268136820008B4313600022DC
:1044BC004023E254FFF75AFE20232B4202D0334212
:1044CC0000D07DE0002240230020E2541CBC90462A
:1044DC009946A246F0BD3342B4D0628D002A78D101
:1044EC008023E26A9B049A4200D193E0E26A9A42EA
:1044FC0000D18FE0E26A8E4B9A4266D04123E35C96
:10450C00292B62D12268193BD36193699B0701D592
:10451C0000239362012391690B4202D191690B43F1
:10452C00936100214223E154013BE15C292900D134
:10453C00EFE0E15C2A29BFD122200239E15420634B
:10454C00E35C0B40CC31282B00D1EEE013688B439D
:10455C001360002240232000E254FFF709FEABE772
:10456C0008232B4201D033423AD102232B42A3D051
:10457C003342A1D0638D002B3ED18023E26A5B04D1
:10458C009A4202D0E36A002B96D100224223E254D5
:10459C00013BE25C292A00D17AE7E25C2A2A00D0AE
:1045AC008AE72221023AE2542163E35C1340282B70
:1045BC0000D19DE0F5235B42226811680B40C7E7F0
:1045CC0029002000FFF76CFE7CE710222368DA61DB
:1045DC0072E72268D3610423626C134363646BE754
:1045EC0041222821A25C0A40282A49D02268D361A2
:1045FC0000224023E2545FE7636A2268591C61621F
:10460C001B789362638D013B9BB26385238D013BC9
:10461C00238551E74123E25C282A00D06AE7444A0B
:10462C002021E26200222263E1540133E2543E3B3A
:10463C0062632B4211D0626A511C61622168496A23
:10464C001170228D002A08D0013A2285628D013A20
:10465C0092B26285626C134363644123FE21E25C77
:10466C00E35C236820001A688A431A601022DA611E
:10467C0000224023E254FFF77FFD1DE7B03911E71C
:10468C002768B969B869C903CA0F9246FE22000CA3
:10469C0094461040BA68F9688846E16802291AD134
:1046AC009205920DD10948400621084022D1A16CF7
:1046BC008C4601218846C4446146A164A16C022940
:1046CC0000D0F9E6A064FB613833E0545146200079
:1046DC00FFF750FDF0E6B8223B68514693433B6030
:1046EC0000224023E25482B22000FFF743FDE3E6B0
:1046FC006D3B61E7B8223B68514693433B60002217
:10470C004023E2546246434620001A40FFF732FD34
:10471C00D2E621200139E1542063E35C0B40CA311D
:10472C00282B00D0BFE6B039BDE6B0390EE7C04645
:10473C000000FFFF8021406A0902026810B553682F
:10474C000B4353600023826B5363C26B536341333F
:10475C00C25C602A02D0FFF711FD10BD403AC25472
:10476C00FFF70EFDF9E7C0468021036849009A69FE
:10477C0070B5040018680A4216D0050652D50120FF
:10478C00656C28436064D961510559D50821606C6A
:10479C00014361648021C900D961920548D40B2181
:1047AC00626C114208D170BD51053DD50106EDD4A6
:1047BC000B21626C1142F6D000214222606CA15494
:1047CC00484AE2626185626C024362644122A15CE8
:1047DC00282938D0A15C292935D0A15C2A2932D0CE
:1047EC00FE20A15CA15C196881431960A15C602961
:1047FC0001D02021A1540022226362638022196817
:10480C00D2010A403ED180211868090201404CD1E6
:10481C004123E25C602A5AD040232000E154FFF788
:10482C00ADFCC0E75105BAD49205B8D50206B6D591
:10483C000222616C0A43626480229200DA61AEE764
:10484C009205F5D4ABE741222821A25C0A40282A24
:10485C0045D0F72040424122A15C193A1140282949
:10486C0001D0F72040421A68282102401A604122E8
:10487C00A154002222631C4A196862638022D2016F
:10488C000A40C0D01968194AA06B0A401A60184B2C
:10489C00002243634023E254FEF7E2FC002800D1DF
:1048AC0081E7A06B436B98477DE71868114901407D
:1048BC001960E06B0E4B43634023E254FEF7D0FCCF
:1048CC00002800D16FE7E06B436B98476BE7403AE9
:1048DC00E254013BE1542000FFF752FC63E7472010
:1048EC004042B8E70000FFFF2D440008FFBFFFFF68
:1048FC0041470008FF7FFFFF7047C04670B5041E9C
:10490C0049D00368DA68D20706D5DA68920703D56E
:10491C00DA68012052072FD4627CD2B2002A34D03C
:10492C000222072162741D4A1A605A688A43616820
:10493C000A435A609A68A168120B12030A439A60E0
:10494C001749E2688A4218D00AF016FEFA250600CA
:10495C00AD0004E00AF010FE801BA84211D82368B9
:10496C00DA68002AF6D11A69E168120B12030A43BD
:10497C001A6101230020637470BD1B699342E3D15B
:10498C00F7E7032303206374F6E722742000FFF794
:10499C00B3FF2368C4E70120EEE7C046555500007D
:1049AC00FF0F0000F0B5474680B4037C04000220E2
:1049BC00012B27D00123E2682374194B60749A42AF
:1049CC0023D02368174A01251A600AF0D5FD022668
:1049DC00804604270DE0DA6816420ED0DB681F42D1
:1049EC000BD00AF0C9FD4346C01AFA239B0098422B
:1049FC000FD82368DA681542EDD1012363740023C4
:104A0C000020237404BC9046F0BD2368064A1A604B
:104A1C00D8E703236374002303202374F2E7C04612
:104A2C00FF0F0000CCCC0000AAAA0000F8B5037C54
:104A3C0004000220012B00D1F8BD01236074237403
:104A4C000AF09AFDFA2607000225B60004E00AF0E7
:104A5C0093FDC01BB0420AD82268D3682B40F6D114
:104A6C00064900201160012223746274E4E70323D9
:104A7C006374002303202374DEE7C046AAAA000057
:104A8C008021034A490013680B4313607047C046EA
:104A9C00007000400420064A136983431361012906
:104AAC0003D040BF20BF20BF704730BFFCE7C046DB
:104ABC0000ED00E010B503240B4A1368A343184320
:104ACC0004231060094A106903431361012908D0BB
:104ADC0040BF20BF20BF0421044A13698B431361DC
:104AEC0010BD30BFF7E7C0460070004000ED00E09D
:104AFC00F0B54F464646C0B4036883B00400DA07ED
:104B0C002FD50C20C6494A680240042A00D11CE16A
:104B1C004A680240082A00D10EE16368012B00D1DB
:104B2C0094E1002B00D11AE1052B00D1FCE1BC4B28
:104B3C00BC4A19680A401A601968BB4A0A401A60D4
:104B4C000AF01AFD80250700B54EAD0205E00AF00B
:104B5C0013FDC01B642800D951E133682B42F6D0F9
:104B6C0023689A072AD50C21AD4A5068014200D11E
:104B7C00C6E050680140082900D1B8E0E368A84DB0
:104B8C00002B00D169E101232A68022713432B6013
:104B9C000AF0F2FC060005E00AF0EEFC801B02288D
:104BAC0000D92CE12B689E4A1F42F5D0F8201368DF
:104BBC0021698343C9000B43136023681A0700D58E
:104BCC007DE05A0740D580230020954A5B05D169CA
:104BDC008046194208D1D1691943D161D269134079
:104BEC000193019B012398468027904E7F003368E8
:104BFC003B4200D1D8E0A368012B00D1E4E0002BAC
:104C0C0000D1FEE0052B00D19AE10121844B1A6AF8
:104C1C008A431A621A6A03318A431A620AF0ACFC9C
:104C2C007F4F81460226824D06E00AF0A5FC4B46DA
:104C3C00C01AA84200D9E2E03B6A1E42F5D04346B6
:104C4C00012B00D133E12368DB0612D56369012BFC
:104C5C0000D1BEE0053300D012E10421704A536B41
:104C6C008B435363F820536BA1698343C9000B43F7
:104C7C005363236A002B1CD00C21694D6A680A40CF
:104C8C00082A44D02A68022B00D117E1694B2C006A
:104C9C0013402B600AF070FC80250600AD0405E083
:104CAC000AF06AFC801B022800D9A8E023682B427A
:104CBC00F6D1002003B00CBC90469946F0BDE369D8
:104CCC00574D002B25D001236A6A022613436B62D1
:104CDC000AF052FC070005E00AF04EFCC01B02284B
:104CEC0000D98CE06B6A1E42F6D0236869E75168E4
:104CFC00C02252020A40802109028A4200D03DE7BC
:104D0C00474A1268920743D5E268012A40D0012035
:104D1C00D0E701226B6A022693436B620AF02CFCEB
:104D2C00070004E00AF028FCC01B022867D86B6A55
:104D3C001E42F7D1236844E7C022496852020A4058
:104D4C00802149028A4200D0E7E6354A1268920374
:104D5C0000D406E76268002A00D002E7D7E7304D9E
:104D6C00304B2A68802613402B602A682E4BB602E3
:104D7C0013402B600AF000FC070004E00AF0FCFB77
:104D8C00C01B64283BD82B683342F7D12368E8E674
:104D9C00F825234821690268C900AA430A43026026
:104DAC001A0700D40DE78AE733683B4333600AF0F7
:104DBC00E3FB050004E00AF0DFFB401B64281ED86F
:104DCC0033683B42F7D016E7154A116A0B4313625E
:104DDC0024E70422124D0227696B0A436A636A6B4B
:104DEC0013436B630AF0C8FB06006B6B0C4A1F4243
:104DFC0000D037E70AF0C0FB801B0228F5D903204E
:104E0C0058E70122064E0227336A094D9343336259
:104E1C00336A0332934333620AF0AEFB814611E0EE
:104E2C0000100240FFFFFEFFFFFFFBFF0070004081
:104E3C0088130000FFFFFFFE0AF09EFB4B46C01AD2
:104E4C00A842DCD8336A1F42F6D1F8E68021414AE9
:104E5C00490213680B43136072E601222B68022689
:104E6C0093432B600AF088FB070004E00AF084FBF4
:104E7C00C01B0228C3D82B681E42F7D123689DE6BD
:104E8C000423344D02266A6B134301226B636B6B54
:104E9C0093436B630AF070FB070004E00AF06CFBB1
:104EAC00C01B0228ABD86B6B1E42F7D1E1E6294A36
:104EBC00294BD1690B40D3612368C5E6274B80276A
:104ECC0013402B600AF058FBBF04804605E00AF043
:104EDC0053FB4346C01A022891D82B681D4E3B4207
:104EEC00F5D10F22F36A9343E26A1343F362626AC9
:104EFC00A16A736811431A4A8024134080220B4321
:104F0C00736033685204134333600AF035FBA40416
:104F1C00050005E00AF030FB401B022800D96EE7C3
:104F2C0033682342F6D0C4E680210A4BC9021A68C2
:104F3C000A4380211A601A6849020A431A60FFE585
:104F4C000422044B196A0A431A620122196A0A43A1
:104F5C001A6263E600100240FFFFFFEFFFFFFFFE47
:104F6C00FF7FC2FFF0B54F4646460C000121C0B48E
:104F7C00594A89B0136805000B40A3420DD213683F
:104F8C008B4323431360136819408C4205D00120D6
:104F9C0009B00CBC90469946F0BD2B689A0706D513
:104FAC00F0204E494A688243A86802434A60DB07F6
:104FBC0024D54A4A6B681268012B6AD0022B63D045
:104FCC009207E4D50321454E72688A4313437360FC
:104FDC000AF0D2FA6B680700012B5DD0022B6BD064
:104FEC000C2398463E4B994604E00AF0C5FAC01BC8
:104FFC0048454CD8424673681A42F6D10121364ACC
:10500C0013680B409C4205D213688B4313601368E2
:10501C001942BCD12B685B0706D53049314B4A6825
:10502C001340EA6813434B602F4C10222100684652
:10503C000AF0F2FA21001022103104A80AF0ECFA5E
:10504C000C2326494A681340082B0ED02748234BC3
:10505C00274A5B681B061B0FD35CD840254B186096
:10506C0000200AF06FFA002092E7CB6A0F21684605
:10507C00920C0A400B400131845C4218D15C1B48F5
:10508C00FBF73AF86043E2E792019BD47FE70320F9
:10509C007EE7920396D47AE70B339846104B9946E9
:1050AC0004E00AF069FAC01B4845F0D84246736820
:1050BC001340042BF5D1A1E70A339846084B9946C7
:1050CC0004E00AF059FAC01B4845E0D84246736820
:1050DC001340082BF5D191E700200240001002404C
:1050EC0088130000FFF8FFFF60F6000800127A003A
:1050FC0080F7000800000020014B18687047C0467C
:10510C0000000020F0B54F464646C0B4036883B09B
:10511C000400DA0339D5802300203D4A5B05D169B0
:10512C008046194208D1D1691943D161D269134023
:10513C000193019B012398468026364D76002B68FF
:10514C0033424CD0C021324D89002B6A0B4044D0E5
:10515C00626811408B420ED08026286A296A76023A
:10516C00314329622E6A2C4B2C4903403140296271
:10517C002B62C30722D42649274B086A03401A43E3
:10518C0043460A62012B3AD02368DA070ED400207A
:10519C009B0606D510221E490B6B9343E268134302
:1051AC000B6303B00CBC90469946F0BD0320184924
:1051BC000A6B8243A06802430A63E8E70AF0DCF951
:1051CC00174B07000226994604E00AF0D5F9C01BDC
:1051DC0048451AD82B6A1E42F7D06268CBE72B6879
:1051EC0033432B600AF0C8F9070004E00AF0C4F955
:1051FC00C01B642809D82B683342F7D0A2E7CA69D0
:10520C00084B1340CB612368BFE70320C9E7C046B6
:10521C000010024000700040FFFCFFFFFFFFFEFF8C
:10522C0088130000FFFFFFEFF8B5041E49D0437F41
:10523C00DBB2002B47D00223CA22637723685A6261
:10524C00773A5A62DA68520624D59968204A0020C7
:10525C000A409A609A6861680A4321690A43616945
:10526C000A439A60E268A1681A611A6909040A4340
:10527C0080211A61DA688A43DA60196C154A0A408F
:10528C001A641A6CA1690A431A64FF225A62012338
:10529C006377F8BD01225242DA600AF06DF9FA2602
:1052AC0007004025B6002368DA681542CDD10AF014
:1052BC0063F9C01BB042F6D9FF2223685A6204235B
:1052CC0063770120E5E7037709F0C0FFB3E7C04639
:1052DC00BFFF8FFFFFFFFBFFF0B5454657464E461D
:1052EC00E0B4037F04000D000220012B5DD00123EC
:1052FC0060772068237740268368002A5AD11E40A5
:10530C0000D089E0CE70206829780023092906D9BD
:10531C000A39C9B201330929FAD81B01DBB26A7800
:10532C00194309040027092A06D90A3AD2B20137CF
:10533C00092AFAD83F01FFB2AB783A431702002290
:10534C00092B00D88AE00A3BDBB20132092BFAD8D0
:10535C001201D2B294460E43320061463A430B43DB
:10536C001A43CA234362773B4362C36891465B0688
:10537C0035D54E463A4B1E4006608268394B134079
:10538C0083608368EA6813432A691343802283602D
:10539C00C3689343C36083689B0643D5FF23436272
:1053AC00FE3B63770023002023771CBC9046994674
:1053BC00A246F0BD32001A4031D1CA7020682E7856
:1053CC006B7836041B021E43AB781E43CA23436220
:1053DC00773B4362C3681643B1465B06C9D40123CD
:1053EC005B42C3600AF0C8F84023FA26824698460E
:1053FC00B60043462068C7681F40BAD10AF0BCF813
:10540C005346C01AB042F4D9FF22236801205A62D5
:10541C00042327776377C8E7CE78360474E7CE7811
:10542C003204CCE7A022C368FA279343C3600AF086
:10543C00A3F820268046BF002068C5683540ADD152
:10544C000AF09AF84346C01AB842F5D9FF222368ED
:10545C0001205A62042325776377A6E794467AE7FE
:10546C007F7F7F00FFFFFBFF0068F0B5836A474634
:10547C004B60036900685B045B0C8B60184B9046B7
:10548C00034040227F2080B41F0C06003A403F248A
:10549C00CA7042461D0AEDB2DBB23C402E401840A9
:1054AC000C704E708870002A15D12409A2001419B2
:1054BC000F2264001740E419360900090C70B4007F
:1054CC00A619840020187600154040001340761968
:1054DC00C0184E708870002004BC9046F0BDC046C9
:1054EC007F7F7F00F8B54F464646C0B4037F04006B
:1054FC000220012B29D0012360772377002A28D0A2
:10550C00C8784B7800041B021843CA238E780A789B
:10551C00216830434B62773B4B625203CB6810439C
:10552C0080465B064DD543468022444803404B6081
:10553C00CB689343CB608B689B0662D5FF234B6291
:10554C00FE3B63770023002023770CBC90469946E2
:10555C00F8BD4B7810321A424ED1CA780020092A75
:10556C0006D90A3AD2B20130092AFAD80001C0B2DF
:10557C00024312040025092B06D90A3BDBB2013584
:10558C00092BFAD82D01EDB288782B431D02002689
:10559C00092806D90A38C0B201360928FAD83601CA
:1055AC00F6B20B7830435B031A4313002B430343CF
:1055BC009846CA2321684B62773B4B62CB685B06EB
:1055CC00B1D401235B42CB6009F0D6FFFA268146A9
:1055DC004025B6002168CF682F40A4D109F0CCFF3C
:1055EC004B46C01AB042F5D9FF22236801205A62FB
:1055FC00042327776377A8E793430A33DBB24B7016
:10560C00ABE7A022CB68FA279343CB6009F0B4FF39
:10561C0020268046BF002168CD68354000D08DE73C
:10562C0009F0AAFF4346C01AB842F4D9FF222368F6
:10563C0001205A6204232577637786E73FFFFF003A
:10564C000368F0B55868144B03401F201C0A1F0C4C
:10565C00DDB2E4B21B0420405B0FCF7048708D703C
:10566C000B70002A15D13B099A00D3180F225B004E
:10567C0000091740DF1983001818400014402B094B
:10568C00001948709800C3185B0015405B19CF7067
:10569C008B700020F0BDC0463FFFFF00F8B54D46B3
:1056AC005F4656464446F0B4037F05000220012BAA
:1056BC0000D195E0012368772B77002A00D095E084
:1056CC0040242A6893681C4000D0A8E0CC702A685B
:1056DC000B780027092B06D90A3BDBB20137092BC3
:1056EC00FAD83F01FFB23B431F044B780020092B33
:1056FC0006D90A3BDBB20130092BFAD80001C0B243
:10570C001843030299468B780026092B06D90A3BCD
:10571C00DBB20136092BFAD83601F6B23343984680
:10572C002023CB5C092B00D887E000260A3BDBB298
:10573C000136092BFAD83601F0B284464869CE6995
:10574C00064334433C4326004846644606434046E1
:10575C001C43064324062643B0464B68FA269B4658
:10576C008B6901279A46CA235362773B536291682F
:10577C00334BB6000B40FF219360D3680B4031498B
:10578C000B43D36009F0F8FE814605E009F0F4FE06
:10579C004B46C01AB04248D82B68DC683C40F5D068
:1057AC0042465146DA615A460A4380215A649A6845
:1057BC0049000A43802180249A609A6849010A436F
:1057CC009A60214AA402106820431060916800205E
:1057DC0021439160FF225A6201236B7700232B77C0
:1057EC003CBC90469946A246AB46F8BD40262A687A
:1057FC0093681E4016D1CE702A684B69C86918434D
:10580C008B78034308780004034348780002034371
:10581C002020085C00060343334398469DE7CC7870
:10582C00240455E7CE783604E7E7FF222B680320E3
:10583C005A6203232C776B77D2E7002084467DE7EE
:10584C00FFFEFFFF7FFEFFFF00040140F0B547465F
:10585C0080B4037F05000220012B02D104BC9046CA
:10586C00F0BD0123CA222B772B6868775A62773AEE
:10587C005A629968134AFA270A409A609968124A40
:10588C0001260A409A6009F077FEBF00804605E0C9
:10589C0009F072FE4346C01AB8420BD82B68DC687C
:1058AC003440F5D0FF225A6201236B77002300208D
:1058BC002B77D3E7FF222B6803205A6203232C7724
:1058CC006B77CBE7FFFEFFFFFFEFFFFFF0B5564610
:1058DC009A4680234D4644465F465B004B62036804
:1058EC00F0B4DD695E6C280AC0B284467F2067463E
:1058FC0007404F70B946EFB23F223840B8464027B8
:10590C002C0CE4B213002740CF7020277604760CC1
:10591C004E602E0E234032400B708870CA55802783
:10592C00FF052F40CF61174F3D404D615546002D6F
:10593C0020D11B099D00EB185D000F231C402D1975
:10594C004C4624090D70A5002C19654664001D40B9
:10595C00641900094C7084002018444640001C4017
:10596C00001912098870900082181E40520092197A
:10597C001133CA5400203CBC90469946A246AB4613
:10598C00F0BDC04680808080036810B59A68040022
:10599C00D20402D5DB68DB0506D48022074B9202C9
:1059AC005A610123637710BD08F0CCFEFF212268F9
:1059BC00D3680B4002490B43D360EEE7000401406F
:1059CC007FFEFFFFF0B557464E464546E0B4037FD9
:1059DC0005008A4691460220012B53D00123CA228E
:1059EC002B772B6868775A62773A5A629A68520515
:1059FC000FD509F0C1FDFA2607000424B60004E017
:105A0C0009F0BAFDC01BB04249D82B68DA681442C1
:105A1C00F6D19968264AFA270A409A6009F0ACFD3B
:105A2C0004268046BF0005E009F0A6FD4346C01AD7
:105A3C00B8422CD82B68DC683440F5D0524607218C
:105A4C005A619A6880248A4349469A609A6864032A
:105A5C000A439A60174A106820431060916800202E
:105A6C002143916080219A68C9010A4380219A6080
:105A7C009A68C9000A439A60FF225A6201236B7725
:105A8C0000232B771CBC90469946A246F0BDFF2202
:105A9C002B6803205A6203232C776B77F2E7FF22E3
:105AAC002B6803205A6203236B7700232B77E9E7DB
:105ABC00FFFBFFFF00040140F0B5474680B4037FB5
:105ACC0005000220012B02D104BC9046F0BD01233D
